:100000000C9465060C9496060C9496060C94960631
:100010000C9496060C9496060C9496060C949606F0
:100020000C9496060C9496060C9496060C949606E0
:100030000C9496060C9496060C9496060C949606D0
:100040000C9496060C94391C0C9496060C94960607
:100050000C9496060C9496060C9496060C94E11952
:100060000C9496060C94551A0C942B1A0C94960624
:100070000C9496060C9496060C9496060C94960690
:100080000C940B1C0C9496060C9496060C949606F5
:100090000C9496060C9496060C9496060C948B1A67
:1000A0000C9496060C9496060C94DD1B0C94960604
:1000B0000C9496060C9496060C9496060C94AF1B22
:1000C0000C9496060C9496060C9496060C94960640
:1000D0000C9496060C9496060C9496060C94960630
:1000E0000C9496060C9440190C9453070C944F08EA
:1000F0000C941D150C94EA080C9437090C94810893
:100100000C9461070C94550F0C944F070C94C91074
:100110000C9457070C94EA0F0C9449070C94410770
:100120000C942F0B0C94B1100C9444190C941C07D4
:100130000C945C070C9495180C94F60E0C942607FE
:100140000C9484190C9431110C949E180C94671C17
:100150000C94A4080C94B2080C9422070C94A110DF
:100160000C94240E0C9437070C9452080C94BD1078
:100170000C94FD060C94E80A0C9431070C94A3250A
:100180000C943D190C94FA180C9417160C943B0718
:100190000C94EA0B0C9454080C9498180C94530883
:1001A0000C949F0A0C94C7140C94CD0F0C942E073A
:1001B0000C94DD110C942A070C9445070C945D07F0
:1001C0000C94900800000000003E5B4F5B3E3E6BCD
:1001D0004F6B3E1C3E7C3E1C183C7E3C181C577DE1
:1001E000571C1C5E7F5E1C00183C1800FFE7C3E72D
:1001F000FF0018241800FFE7DBE7FF30483A060E3F
:100200002629792926407F050507407F05253F5A85
:100210003CE73C5A7F3E1C1C08081C1C3E7F1422F5
:100220007F22145F5F005F5F06097F017F006689A0
:10023000956A606060606094A2FFA29408047E04E6
:100240000810207E201008082A1C08081C2A08080C
:100250001E101010100C1E0C1E0C30383E383006CC
:100260000E3E0E06000000000000005F00000007C8
:10027000000700147F147F14242A7F2A12231308F6
:10028000646236495620500008070300001C2241D2
:10029000000041221C002A1C7F1C2A08083E080876
:1002A0000080703000080808080800006060002026
:1002B000100804023E5149453E00427F4000724909
:1002C0004949462141494D331814127F10274545AD
:1002D00045393C4A494931412111090736494949C3
:1002E00036464949291E0000140000004034000031
:1002F000000814224114141414140041221408029A
:10030000015909063E415D594E7C1211127C7F490C
:100310004949363E414141227F4141413E7F494961
:1003200049417F090909013E414151737F0808088D
:100330007F00417F41002040413F017F081422415E
:100340007F404040407F021C027F7F0408107F3EB8
:100350004141413E7F090909063E4151215E7F0925
:10036000192946264949493203017F01033F40408C
:10037000403F1F2040201F3F4038403F6314081477
:100380006303047804036159494D43007F414141AF
:100390000204081020004141417F04020102044090
:1003A00040404040000307080020545478407F2814
:1003B0004444383844444428384444287F3854540A
:1003C000541800087E090218A4A49C787F0804042D
:1003D0007800447D40002040403D007F10284400CC
:1003E00000417F40007C047804787C08040478385D
:1003F00044444438FC1824241818242418FC7C088D
:10040000040408485454542404043F44243C404009
:10041000207C1C2040201C3C4030403C44281028BC
:10042000444C9090907C4464544C44000836410005
:100430000000770000004136080002010204023C7F
:100440002623263C1EA1A161123A4040207A38544E
:1004500054555921555579412254547842215554C7
:10046000784020545579400C1E527212395555551A
:1004700059395454545939555454580000457C4105
:100480000002457D420001457C407D1211127DF045
:10049000282528F07C545545002054547C547C0A6F
:1004A000097F4932494949323A4444443A324A4838
:1004B00048303A4141217A3A42402078009DA0A03C
:1004C0007D3D4242423D3D4040403D3C24FF24248E
:1004D000487E4943662B2FFC2F2BFF0929F620C0AD
:1004E000887E090320545479410000447D413048FE
:1004F000484A32384040227A007A0A0A727D0D1941
:10050000317D2629292F28262929292630484D40A2
:1005100020380808080808080808382F10C8ACBA9E
:100520002F102834FA00007B000008142A1422221D
:10053000142A14085500550055AA55AA55AAFF5566
:10054000FF55FF000000FF00101010FF00141414EE
:10055000FF001010FF00FF1010F010F0141414FC36
:10056000001414F700FF0000FF00FF1414F404FC53
:10057000141417101F10101F101F1414141F001034
:100580001010F0000000001F101010101F101010AD
:1005900010F010000000FF101010101010101010BC
:1005A000FF10000000FF140000FF00FF00001F10FC
:1005B000170000FC04F414141710171414F404F4B6
:1005C0000000FF00F714141414141414F700F714A7
:1005D0001414171410101F101F141414F4141010F6
:1005E000F010F000001F101F0000001F140000009A
:1005F000FC140000F010F01010FF10FF141414FF92
:10060000141010101F00000000F010FFFFFFFFFF8C
:10061000F0F0F0F0F0FFFFFF0000000000FFFF0F20
:100620000F0F0F0F3844443844FC4A4A4A347E02C4
:10063000020606027E027E02635549416338444445
:100640003C04407E201E2006027E020299A5E7A5FA
:10065000991C2A492A1C4C7201724C304A4D4D306B
:100660003048784830BC625A463D3E494949007E90
:100670000101017E2A2A2A2A2A44445F4444405127
:100680004A444040444A51400000FF0103E080FFDB
:10069000000008086B6B083612362436060F090F67
:1006A00006000018180000001010003040FF010183
:1006B000001F01011E00191D1712003C3C3C3C00AC
:1006C00000000000000103070F1F3F7F0080C0E013
:1006D000F0F8FCFEDB40A4A62EAF2000A1C8D3009A
:1006E000408DAED580A80000600000000000000032
:1006F00000000000000000E000000000000000001A
:10070000000000000001E000000000000000000008
:100710000000000001F000000000000000000000E8
:1007200000000003F00000000000000000000000D6
:10073000000007F0000000000000000000000000C2
:100740000007F800000000000000000000000000AA
:100750000FF800000003C0007E000001E0007F0FE2
:10076000F800000003C000FE000001E000FFEFF809
:1007700000000003C000FE000001E000FFFFF800E1
:10078000000003C000F00000000F007FFE7FC000EB
:100790000003C000F00000000F003FFE7FF83FF1B3
:1007A000FBCFFCFEF3BC3DEFE01FFE7FFF7FFBFFB6
:1007B000DFFEFEFFBC3DEFE01FC6FFFF7FFBFFDF5C
:1007C000FEFEFFBC3DEFE00FE3C7FE787BC3DE1EFD
:1007D000F0FFBC3DEF0007FF87FC787BC3DE1EF017
:1007E000F83C3DEF0001FFFFF0007BC3C01EF0F0BE
:1007F0003C3DEF0001F37FE03FFBC3CFFEF0F03C58
:100800003DEF0003E33F807FFBC3DFFEF0F03C3DA4
:10081000EF0007E73C00787BC3DE1EF0F03C3DEFC5
:100820000007FFBE00787BC3DE1EF0F03C3DEF000A
:1008300007FFFE00787BC3DE1EF0F03C3DEF000FAB
:10084000FFFE007FFBFFDFFEF0F03FFDEFE00FFF5C
:10085000FF007FFBFFDFFEF0F03FFDEFE00FF9FF51
:10086000003E79F9CF9EF0F01F3DE7E01FF1FF0059
:1008700000000000000000000000001F80FF007F5B
:10088000FFFFFFFFFFFFFFFFFFE01C007F007FFF78
:10089000FFFFFEB46D888D18E000001F007FFFFF92
:1008A000FFFE95AD7DB577E000000F007FFFFFFFF5
:1008B000FEA5AD9D8D19E0000006007FFFFFFFFE45
:1008C000B5ADEDB57EE00000000000018000000045
:1008D0000000000000000380000000000000000095
:1008E0000007C000000000000000000007C000007A
:1008F000000000000000000FC00000000000000029
:1009000000001FE00000000000000000001FE000E9
:1009100000000000000000003FE0000000000000B8
:100920000000003FF00000000000000000007FF029
:10093000000000000000001FF87FF0000000000031
:1009400000003FFE7FF0000000000000003FFF7F3E
:10095000F0000000000000001FFFFBE000000000AE
:100960000000000FFFF9FFC00000000000000FFFB3
:10097000F9FFF800000000000007FFF1FFFF000092
:100980000000000003FC73FFFF8000000000000176
:10099000FE3FFFFF80000000000000FF1E0FFF0071
:1009A0000000000000007FFE1FFC000000000000AF
:1009B000003FFFFFF8000000000000000FDFFFE035
:1009C000000000000000001F19FFC0000000000030
:1009D00000003F3CFF00000000000000007E7CF8AB
:1009E00000000000000000007FFE7C00000000000E
:1009F000000000FFFFFC0000000000000000FFFFFF
:100A0000FE0000000000000000FFFFFE00000000EC
:100A100000000001FFEFFE0000000000000001FFE9
:100A2000CFFE0000000000000003FF07FE000000F2
:100A30000000000003FC07FE0000000000000003AF
:100A4000F003FE00000000000000018000FE000036
:100A500000000000000000007E0000000000000018
:100A60000000003E000000000000000000000C003C
:100A70000000000000078000FC000003C000000030
:100A8000078001FC000003C0000000078001FC009B
:100A90000003C0000000078001E00000001E00000D
:100AA00000078001E00000001E007FE3F79FF9FDD2
:100AB000E7787BDFC0FFF7FFBFFDFDFF787BDFC07E
:100AC000FFF7FFBFFDFDFF787BDFC0F0F787BC3D80
:100AD000E1FF787BDE00F0F787BC3DE1F0787BDE5C
:100AE0000000F787803DE1E0787BDE007FF7879F9D
:100AF000FDE1E0787BDE00FFF787BFFDE1E0787B7A
:100B0000DE00F0F787BC3DE1E0787BDE00F0F787A0
:100B1000BC3DE1E0787BDE00F0F787BC3DE1E078AA
:100B20007BDE00FFF7FFBFFDE1E07FFBDFC0FFF7EB
:100B3000FFBFFDE1E07FFBDFC07CF3F39F3DE1E021
:100B40003E7BCFC00000000000000000000000FF5E
:100B5000FFFFFFFFFFFFFFFFFFC0FFFFFFFFFD687D
:100B6000DB111A31C0FFFFFFFFFD2B5AFB6AEFC0FC
:100B7000FFFFFFFFFD4B5B3B1A33C0FFFFFFFFFD95
:100B80006B5BDB6AFDC02200FF210053534431330D
:100B9000303620616C6C6F636174696F6E206661C2
:100BA000696C65640000002100240027002A002DE4
:100BB000003000330001010000040107010A0100B8
:100BC000002200250028002B002E003100340002F6
:100BD000010000050108010B010000200023002690
:100BE0000029002C002F0032000001000003010644
:100BF00001090105050505070508080808020202A4
:100C0000020A0A08080404040401010101010101A7
:100C1000010303030303030303040707070C0C0C7E
:100C20000C0C0C0C0C020202020606060606060656
:100C3000060B0B0B0B0B0B0B0B01021020200808F3
:100C4000102040102040800201020108040201012E
:100C50000204081020408080402010080402018017
:100C6000040201804020100804020108040201016E
:100C70000204081020408001020408102040800077
:100C8000000A0B02090C0D0E080703040100000006
:100C90000000000000000000000000000000000054
:100CA0000000000000000000000000121110000011
:100CB0000000000000000000000000000000000034
:100CC000000000000000671CA32511241FBECFEF09
:100CD000D1E2DEBFCDBF00E00CBF12E0A0E0B2E089
:100CE000E6E5FFE400E00BBF02C007900D92A03FD5
:100CF000B107D9F725E0A0EFB2E001C01D92A03FF7
:100D0000B207E1F716E0C4E6D6E000E006C021979E
:100D10000109802FFE010E944526C336D10780E0DD
:100D20000807A9F70E94391D0C9499270C9400001C
:100D30008F929F92AF92BF92FF920F931F93CF9388
:100D4000DF93F090E9052FE22F1508F44CC02091B5
:100D5000EB0508E512E0021B110927FD1395000FB2
:100D6000111F000F111F2091EA05C8E8D0E0C21B37
:100D7000D10927FDD395CC0FDD1FCC0FDD1F4E0110
:100D80000D2E000CAA08BB089801012E000C440B84
:100D9000550B281939094A095B09DC010E94DC2539
:100DA00024EB30E040E050E00E94B225820E931E1A
:100DB000A41EB51E8C169D062CF0E8018016910627
:100DC0000CF4E4012297CC0FDD1F2FB7F8948F2D80
:100DD00090E0FC01EE0FFF1FE80FF91FE85EFA4FED
:100DE000D283C1832FBFDF91CF911F910F91FF90CD
:100DF000BF90AF909F908F90089508958150823159
:100E000008F05AC0E82FF0E08827E65FF84F8F4FD0
:100E10000C9445262A072E071C07220726075C0785
:100E2000310737073B074107450749074F07530776
:100E30005C0757075D076107809180008F7780937B
:100E400080000895809180008F7DF9CF809180008F
:100E5000877FF5CF84B58F7784BD089584B58F7D66
:100E6000FBCF8091B0008F778093B0000895809180
:100E7000B0008F7DF9CF809190008F7780939000A4
:100E80000895809190008F7DF9CF80919000877FA9
:100E9000F5CF8091A0008F778093A0000895809176
:100EA000A0008F7DF9CF8091A000877FF5CF809142
:100EB00020018F77809320010895809120018F7DFC
:100EC000F9CF80912001877FF5CFCF93DF93282F33
:100ED00030E0F901E158F34F8491F901E75CF34FF9
:100EE000D491F901ED50F44FC491CC23A1F08111BC
:100EF0000E94FE06EC2FF0E0EE0FFF1FE752F44FCA
:100F0000A591B491EC91ED2381E090E009F480E0AB
:100F1000DF91CF91089580E090E0FACF1F93CF93B7
:100F2000DF93282F30E0F901E158F34F8491F90164
:100F3000E75CF34FD491F901ED50F44FC491CC2309
:100F4000A9F0162F81110E94FE06EC2FF0E0EE0FA3
:100F5000FF1FE154F44FA591B4918FB7F894EC9131
:100F6000111108C0D095DE23DC938FBFDF91CF91A4
:100F70001F910895DE2BF8CFCF93DF9390E0FC0113
:100F8000E75CF34F24918D50944FFC0184918823AA
:100F9000C9F090E0880F991FFC01EB55F44FA59123
:100FA000B491FC01E154F44FC591D49161110DC08D
:100FB0009FB7F8948C91209582238C938881282365
:100FC00028839FBFDF91CF910895623051F49FB77E
:100FD000F8943C91822F809583238C93E8812E2B6B
:100FE000EFCF8FB7F894EC912E2B2C938FBFEACFD5
:100FF0003FB7F8948091660490916704A0916804CB
:10100000B091690426B5A89B05C02F3F19F0019641
:10101000A11DB11D3FBFBA2FA92F982F8827BC0152
:10102000CD01620F711D811D911D42E0660F771F7A
:10103000881F991F4A95D1F708958F929F92AF927A
:10104000BF92CF92DF92EF92FF924B015C010E9420
:10105000F8076B017C010E94F8076C197D098E0965
:101060009F09683E734081059105A8F321E0821A2B
:101070009108A108B10888EEC80E83E0D81EE11CD3
:10108000F11C81149104A104B10429F7FF90EF90A1
:10109000DF90CF90BF90AF909F908F90089580E9A0
:1010A00091E0089508950895AF92BF92CF92DF9294
:1010B000EF92FF920F931F93CF93DF936C017B010D
:1010C0008B01040F151FEB015E01AE18BF08C0179E
:1010D000D10759F06991D601ED91FC910190F08111
:1010E000E02DC6011995892B79F7C501DF91CF91C4
:1010F0001F910F91FF90EF90DF90CF90BF90AF9036
:101100000895FC01538D448D252F30E0842F90E00D
:10111000821B930B541710F0CF96089501970895F2
:10112000FC01918D828D981761F0A28DAE0FBF2FBB
:10113000B11D5D968C91928D9F5F9F73928F90E011
:1011400008958FEF9FEF0895FC01918D828D981780
:1011500031F0828DE80FF11D858D90E008958FEFBD
:101160009FEF0895FC01918D228D892F90E0805C86
:101170009F4F821B91098F73992708958EE694E003
:101180000E94B20821E0892B09F420E0822F089503
:10119000FC01A48DA80FB92FB11DA35ABF4F2C91EC
:1011A000848D90E001968F739927848FA689B789E3
:1011B0002C93A089B1898C91837080648C93938DDA
:1011C000848D981306C00288F389E02D80818F7D7D
:1011D00080830895EF92FF920F931F93CF93DF9335
:1011E000EC0181E0888F9B8D8C8D98131AC0E88963
:1011F000F989808185FF15C09FB7F894EE89FF8932
:101200006083E889F98980818370806480839FBFCF
:1012100081E090E0DF91CF911F910F91FF90EF90CF
:101220000895F62E0B8D10E00F5F1F4F0F731127DF
:10123000E02E8C8D8E110CC00FB607FCFACFE8891A
:10124000F989808185FFF5CFCE010E94C808F1CFD2
:10125000EB8DEC0FFD2FF11DE35AFF4FF0829FB78E
:10126000F8940B8FEA89FB8980818062CFCFCF937E
:10127000DF93EC01888D8823B9F0AA89BB89E889BE
:10128000F9898C9185FD03C0808186FD0DC00FB664
:1012900007FCF7CF8C9185FFF2CF808185FFEDCFE2
:1012A000CE010E94C808E9CFDF91CF91089580E078
:1012B00090E0892B29F00E94BE0881110E94000055
:1012C00080E090E0892B49F080E090E0892B29F0C4
:1012D0000E94000081110E94000080E090E0892BB4
:1012E00049F080E090E0892B29F00E9400008111F4
:1012F0000E94000080E090E0892B49F080E090E0BF
:10130000892B29F00E94000081110C94000008959F
:10131000EF92FF920F931F93CF93DF93EC01EC803A
:10132000FD806E157F050CF070C057FF04C0240FC0
:10133000351F50E040E08E819F81FA01E20FF31FDC
:101340008E179F071CF49C01241B350B12161306E5
:101350000CF05BC0922F842F8695869586958E9D86
:10136000D0018F9DB00D11246A0F7B1FAF8DB8A1E6
:10137000A60FB71F477049F188E0841B482F682FDC
:1013800070E0FB01E453F94FE491281708F063C0C3
:10139000621B71092FEF30E002C0359527956A95E1
:1013A000E2F7E2230130110539F0B0F10230110506
:1013B00061F58C91E82702C08C91E82BEC9394178F
:1013C00020F12C813D81A20FB31FE92FE41BE830EF
:1013D00078F00230110521F58E2F9C9190959C9309
:1013E0002C813D81A20FB31F88508830B0F7E77081
:1013F000EE2359F0F0E0EC53F94FE4910130110580
:10140000F9F010F10230110519F1DF91CF911F9120
:101410000F91FF90EF900895E0958C91E823CECF47
:1014200081E00115110509F480E081959E2F8C93D0
:101430002C813D81A20FB31F98509830C0F7D7CFB1
:101440008C91E82BEC93E1CFE0958C91E823FACFD7
:101450008C91E827F7CF0130110509F4ADCFE0F208
:101460000230110509F4A5CFAE0DBF1DAECF0F930D
:101470001F93CF93DF9377FF04C0260F371F70E0D1
:1014800060E0DC011496CD91DC91FB01E20FF31FCB
:10149000CE17DF071CF49E01261B370B121613060E
:1014A0004CF5FA0157FD3796A3E0F595E795AA9517
:1014B000E1F7EC9FD001ED9FB00DFC9FB00D112422
:1014C0006A0F7B1FDC015F96ED91FC91E60FF71F21
:1014D0004770552781E090E001C0880F4A95EAF7F0
:1014E000482F0130110559F0A8F02E0F3F1F023090
:1014F0001105E1F0DF91CF911F910F9108952E0F0B
:101500003F1FE217F307B1F38191DF011197842B9D
:101510008C93F7CF80952E0F3F1FE217F30751F3FF
:101520009191DF01119798239C93F7CFE217F3076E
:1015300009F38191DF01119784278C93F7CF0F93E3
:101540001F93FA01DC0156964C9156974230E9F010
:101550004330A1F1413061F514964D915C91DA016F
:10156000AE1BBF0BFD01E21BF30B77FD0BC0DC01D3
:1015700016964D915C916417750724F4AB01BF0179
:101580000E94370A1F910F91089514964D915C9116
:10159000DA01A61BB70BBD0161507109DC0116967B
:1015A0004D915C91DA01AE1BBF0BFD01E21BF30B09
:1015B00077FDE8CFAF010E948809E4CF16964D91E0
:1015C0005C91DA01A61BB70BBD0161507109CDCF4B
:1015D0000F931F93FA01DC0156964C9156974230B7
:1015E000A9F0433091F1413019F514964D915C9179
:1015F000DA01AE1BBF0BFD013197F7FD04C0AB0153
:10160000BF010E9488091F910F91089514964D9172
:101610005C91DA01A61BB70BBD01DC0116964D915A
:101620005C91DA01AE1BBF0BFD013197621B730B9E
:10163000F7FDE9CFDC0116964D915C91E417F507B3
:1016400014F7AF010E94370ADECF16964D915C91D8
:10165000DA01A61BB70BBD01621B730BCECFFC01D9
:1016600077FD64C080859185681779070CF05EC0AE
:1016700057FD5CC082859385481759070CF056C00A
:1016800086898230B1F0833029F1813041F4848140
:101690009581841B950BAB01BC0161507109213010
:1016A000310509F108F443C02230310509F463C063
:1016B000089584819581DC01A61BB70BBD016150A3
:1016C000710986819781DC01A41BB50BAD014150E6
:1016D0005109E5CF86819781861B970BBA01AC0132
:1016E00041505109DCCFCA0157FD0796A3E09595FB
:1016F0008795AA95E1F7A481B5818A9F90018B9F78
:10170000300D9A9F300D1124620F731F078CF0A1CA
:10171000E02DE60FF71F4770552721E030E001C0AC
:10172000220F4A95EAF78081822B80830895CA01AF
:1017300057FD079633E0959587953A95E1F7A48193
:10174000B5818A9F90018B9F300D9A9F300D112497
:10175000620F731F078CF0A1E02DE60FF71F477093
:10176000552781E090E001C0880F4A95EAF78095FF
:1017700090818923DACFCA0157FD079623E095951A
:1017800087952A95E1F7A481B5818A9F90018B9F67
:10179000300D9A9F300D1124620F731F078CF0A13A
:1017A000E02DE60FF71F4770552721E030E001C01C
:1017B000220F4A95EAF780818227B7CF08958EBD20
:1017C00000000DB407FEFDCF8EB508958CBD9DBD04
:1017D00008950895FC016370668B8481958126814C
:1017E0003781613039F0633029F091878087338702
:1017F00022870895318720879387828708952F92C3
:101800003F924F925F926F927F928F929F92AF9290
:10181000BF92CF92DF92EF92FF920F931F93CF93DD
:10182000DF93CDB7DEB76A970FB6F894DEBF0FBE71
:10183000CDBF9A8F898F7A8369834A01D22E188708
:101840000F833701BC2CDC0159962D913C915A979E
:101850002115310509F015C118968D919C911997A4
:10186000681779070CF0D7C11A968D919C9148178B
:1018700059070CF0D0C14C2C512CB6E0CB9E600D1A
:10188000711D11247C876B87161617060CF0C3C1D7
:10189000EA2DF0E0FA87E98793E0EE0FFF1F9A95B3
:1018A000E1F7F88BEF87CF01840F951F1816190603
:1018B0000CF0B1C1A98DBA8D58968C91811104C0DC
:1018C000BFEABD1508F4D394A98DBA8DED91FC91B2
:1018D00011970284F385E02DCD011995B5E0DB9ECB
:1018E000C0011124E981FA81FC83EB83312C212C86
:1018F0009C012C533E4F388F2F8B4A2D50E05E8B2E
:101900004D8BEF89F88DE20DF31D44919E828D82FF
:10191000D12CC12C69817A81620D731D7A8B698B00
:10192000842F90E09C8B8B8BE98DFA8DA081B18107
:1019300040FF82C0F1E0BF126FC0AF126DC01C96B5
:10194000ED91FC912F813885A4014C0D5D1D6989B5
:101950007A89898D9A8D1995EB89FC89F595E7959A
:101960004E2F5FEFC51AD50A6D817E818D899E89C4
:10197000680F791F7E836D8398E0C916D10481F6C4
:10198000AFEF2A1A3A0AEB81FC81E40DF51DFC83C6
:10199000EB83F5E02F16310409F0B3CF2F813885A2
:1019A00026153705B9F0A98DBA8DED91FC91B1E0FE
:1019B000BB1257C0AB1255C069817A816B5F7F4FF4
:1019C0000088F189E02D830128E030E0A401898DB1
:1019D0009A8D1995A98DBA8DED91FC911197068874
:1019E000F789E02DCD016A960FB6F894DEBF0FBEE1
:1019F000CDBFDF91CF911F910F91FF90EF90DF90BE
:101A0000CF90BF90AF909F908F907F906F905F909E
:101A10004F903F902F9019941E96ED91FC91EF807E
:101A2000F88409851A8592014D815E816B817C81E4
:101A3000898D9A8D199590CF2F8138852615370578
:101A400009F48ACF31E0B31207C0A31205C01C9677
:101A5000ED91FC91930178CF1E96ED91FC9173016D
:101A6000E0CF6B857C85641975090684F785E02DC8
:101A700073010F8518899201A401898D9A8D19959A
:101A8000A9CFF90134969491329745915491D91A7E
:101A9000B7E0DB9E400D511D1124F90125913491D1
:101AA0003C8B2B8BFA0125903490FA01329674907E
:101AB00031963491398B329664903196449041E05E
:101AC0004C1518F04A1508F07FC0662D062C000C46
:101AD000770B7C836B83842D042C000C990B9E83E5
:101AE0008D83A98DBA8DED91FC9111970284F385B8
:101AF000E02DCD011995512CD12CC12CEA2DF0E00F
:101B0000FA87E9872B2D30E03C872B87A401440D11
:101B1000511D47FC5A95588F4F8B69817A81660D0C
:101B2000711D67FC7A957E876D877989C71608F0E5
:101B300051CF2C2D30E04D815E81420F531FA9857E
:101B4000BA854A9FC0014B9F900D5A9F900D11245A
:101B5000FC01E80DF91DF88BEF87852D612C4F896D
:101B6000588D420F531F5E8B4D8B671408F050C089
:101B700044244394480E877041F4C1010196EB89D7
:101B8000FC89E20DF31DD4901C01D7FE19C0A98D6C
:101B9000BA8DED91FC91662D70E0B1E0BB1219C0D9
:101BA000AB1217C02D853E85620F731F0484F58527
:101BB000E02D2F8138854D895E89898D9A8D199503
:101BC000DD0C6394842DD1CF1E821D821C821B826A
:101BD00088CF4B815C81640F751FAB85BC856A9F84
:101BE000C0016B9F900D7A9F900D112469817A81BD
:101BF000680F791F0684F785E02DEF80F88409854A
:101C00001A859D014F855889898D9A8D1995D8CF50
:101C1000570CC3948ACF6A960FB6F894DEBF0FBEF6
:101C2000CDBFDF91CF911F910F91FF90EF90DF908B
:101C3000CF90BF90AF909F908F907F906F905F906C
:101C40004F903F902F9008958F929F92AF92CF9296
:101C5000EF92FF920F931F93CF93DF93EC01262F08
:101C6000898D9A8D009709F051C06A30D1F41D8694
:101C70001C868D8948E0849F900111248E859F8564
:101C8000820F931F9F878E8781E090E0DF91CF9135
:101C90001F910F91FF90EF90CF90AF909F908F90FA
:101CA00008956D3089F3CC88AD888F898823C1F081
:101CB0008C859D8536E0C39E800D911D112448853D
:101CC00059854817590764F44E855F851D861C8623
:101CD00038E0A39EC0011124840F951F9F878E8733
:101CE000EA88FB88088919894E855F856C857D8522
:101CF000CE010E94FF0B2C898C859D8546E0249F98
:101D0000800D911D11249D878C87BECF6A3069F4A8
:101D10001D861C86FC013896E4912D898E859F8551
:101D2000E29F800D911D1124ADCF6D3009F4ACCF31
:101D3000FC0134963491631708F4A6CF3296E491EF
:101D4000E61708F4A1CFFC01329685909490462FB7
:101D5000431B342F47E0349F800C911C1124F40165
:101D6000329634913196E4913323A9F1EE2399F11F
:101D7000CC88F4013596E491AD884F89442301F174
:101D80000E2E000CFF0BE30FF11DCE9EA001CF9E87
:101D9000500D11246C857D85460F571F6885798508
:101DA000641775076CF44E855F851D861C86FC01E3
:101DB0003896E491AE9E400D511D11245F874E87E9
:101DC000EA88FB88088919894E855F856C857D8541
:101DD000CE010E94FF0BF4013496E4912C898C858E
:101DE0009D85E29F800D911D11248DCF6F927F9272
:101DF0008F929F92AF92BF92CF92DF92EF92FF921B
:101E00000F931F93CF93DF93EC016B015A013901BC
:101E10004801E881F9810284F385E02D1995E88174
:101E2000F9810288F389E02D87019301A501B601AC
:101E3000CE011995A501480D591D41505109E88160
:101E4000F9810288F389E02D9301B601CE0119953D
:101E5000E881F9810088F189E02D9401A501B6019E
:101E6000CE011995C60CD71CB60161507109E881E5
:101E7000F9810088F189E02D9401A501CE01199521
:101E8000E881F9810688F789E02DCE01DF91CF91B5
:101E90001F910F91FF90EF90DF90CF90BF90AF9088
:101EA0009F908F907F906F9019946F927F928F92F6
:101EB0009F92AF92BF92CF92DF92EF92FF920F93D9
:101EC0001F93CF93DF935C01EB016A014901380155
:101ED0008701DC01ED91FC916217730719F5641617
:101EE00075062CF0962D872D3A01C92ED82E960115
:101EF000261937092F5F3F4F048CF58DE02DA30184
:101F0000BE01C5011995DF91CF911F910F91FF90EF
:101F1000EF90DF90CF90BF90AF909F908F907F9089
:101F20006F9008954615570591F42617370724F04A
:101F3000892D4B01C22FD82F9E01281939092F5FF7
:101F40003F4F068CF78DE02DA601B401DACF028455
:101F5000F385E02D1995D501ED91FC910488F58963
:101F6000E02D83019401A601BE01C5011995D5019B
:101F7000ED91FC910688F789E02DC501DF91CF91A5
:101F80001F910F91FF90EF90DF90CF90BF90AF9097
:101F90009F908F907F906F901994EF92FF920F9384
:101FA0001F93DC011A960D911C911B9718962D9189
:101FB0003C911997ED91FC9100A0F1A1E02D7B01DE
:101FC00050E040E070E060E019951F910F91FF90A4
:101FD000EF9008954F925F926F927F928F929F92AF
:101FE000AF92BF92CF92DF92EF92FF920F931F9327
:101FF000CF93DF936C012B015A0139014801DC01B9
:10200000ED91FC910284F385E02D1995E201640CB9
:10201000751CD601ED91FC91C615D7055CF40088BE
:10202000F189E02D87019401A501BE01C601199532
:102030002196EFCF0688F789E02DC601DF91CF9179
:102040001F910F91FF90EF90DF90CF90BF90AF90D6
:102050009F908F907F906F905F904F9019948F9288
:102060009F92AF92BF92CF92DF92EF92FF920F9327
:102070001F93CF93DF93EC015B014A016901E88173
:10208000F9810284F385E02D199595012C0D3D1DF4
:1020900021503109E881F9810488F589E02D780122
:1020A0008401A401B501CE011995E881F981068862
:1020B000F789E02DCE01DF91CF911F910F91FF9015
:1020C000EF90DF90CF90BF90AF909F908F9019943A
:1020D0008F929F92AF92BF92CF92DF92EF92FF9238
:1020E0000F931F93CF93DF93EC015B014A016901CA
:1020F0007801E881F9810284F385E02D1995C80CF7
:10210000D91C860101501109E881F9810488F589FB
:10211000E02D9501A401B501CE011995E881F98161
:102120000688F789E02DCE01DF91CF911F910F91A5
:10213000FF90EF90DF90CF90BF90AF909F908F90E7
:102140001994EF92FF920F931F93DC01ED91FC9194
:1021500000A0F1A1E02D19951F910F91FF90EF9034
:1021600008950F931F93DC01ED91FC91068CF78D80
:10217000E02D19951F910F9108950F931F93DC0186
:10218000ED91FC91048CF58DE02D19951F910F9127
:102190000895DC01ED91FC910084F185E02D199406
:1021A0003F924F925F926F927F928F929F92AF92E7
:1021B000BF92CF92DF92EF92FF920F931F93CF9334
:1021C000DF935C017B014A016901390187E0680EF8
:1021D000711C93E0759467949A95E1F72B01400E7A
:1021E000511E10E000E0312CD0E0C0E0CE0187703D
:1021F0009927330C892B59F4FE0183E0F595E79577
:102200008A95E1F7E00FF11FE80DF91D349037FED4
:102210000AC021E030E0A701B5016C0F7D1F89EAFB
:1022200095E00E94C9102196CC16DD06F9F68FEFD5
:10223000E81AF80A060D171DE414F504A9F6DF9153
:10224000CF911F910F91FF90EF90DF90CF90BF90B3
:10225000AF909F908F907F906F905F904F903F9046
:1022600008952F923F924F925F926F927F928F923A
:102270009F92AF92BF92CF92DF92EF92FF920F9315
:102280001F93CF93DF9300D000D0CDB7DEB73C01D2
:102290006A013E832D83FC82EB825801A41AB50AA1
:1022A000B7FE03C0B194A194B1088D809E80861AB8
:1022B000970A97FE03C09194819491088A149B0415
:1022C0005CF0902F812F0D811E819D838E839C2D2C
:1022D0008D2D6B01692F782F0C151D055CF09D81EC
:1022E0008E817E836D83692F782F902F812F8601B9
:1022F000C92ED82E1601201A310A2B012D813E81BC
:10230000421A530A57FE03C0519441945108710177
:1023100037FE03C03FEFE31AF30AF594E7948D818B
:102320009E81861797075CF5A1E0B0E0BA83A98388
:10233000C016D1064CF1D301ED91FC910484F585D2
:10234000E02D2B813C81A8016D817E818A149B0444
:102350001CF04D815E81B801C3011995E418F508A0
:10236000F7FE0AC02D813E8189819A81280F391F8D
:102370003E832D83E20CF31C0F5F1F4FD9CF2FEF4D
:102380003FEF3A832983D4CF26960FB6F894DEBF69
:102390000FBECDBFDF91CF911F910F91FF90EF90B6
:1023A000DF90CF90BF90AF909F908F907F906F9075
:1023B0005F904F903F902F900895089520915C0377
:1023C000260F3327331F21323105ECF4209180038F
:1023D000FC0190E080E0243069F082E00895A09153
:1023E0005C032191AC01445C5C4FA40FB52FB11D7F
:1023F0002C930196861798F380915C03680F609385
:102400005C0380E0089581E008951092800381E0EC
:10241000809382031092810361E084E10E948E0721
:1024200061E085E10E948E07E9EBF0E080818E7F1C
:10243000808380818D7F808388E48093B80085E4E9
:102440008093BC000895CF93DF9391E090933B037A
:102450008823B9F0C091B800D091BA008091BC0037
:102460008A7B8093BC0060E084E10E948E0760E07C
:1024700085E10E948E070E940512D093BA00C09396
:10248000B800DF91CF910895E091AC038091AB0348
:10249000E81730F4F0E0EA5EFC4F808190E00895A8
:1024A0008FEF9FEF08959091AC038091AB032FEFD6
:1024B0003FEF981748F4E92FF0E0EA5EFC4F2081E7
:1024C00030E09F5F9093AC03C90108958091AB0306
:1024D0009091AC03891B990B0895CF92DF92EF92F4
:1024E000FF920F931F93CF93DF937C01CB018A015F
:1024F00020916D04222389F0EB016B01C40ED51EDF
:10250000CC15DD0569F06991D701ED91FC91019041
:10251000F081E02DC7011995F3CF642F0E94DE11E1
:10252000C801DF91CF911F910F91FF90EF90DF9045
:10253000CF900895CF93DF931F92CDB7DEB7698315
:1025400020916D042223F9F020916A04203258F082
:1025500021E030E0FC013383228390E080E00F90A3
:10256000DF91CF91089580916B04E82FF0E0EA505D
:10257000FD4F998190838F5F80936B0480936A04F1
:1025800081E090E0ECCF61E0CE0101960E94DE1187
:10259000F7CFCF92DF92EF92FF920F931F93CF93DB
:1025A000DF93D0916A0481E0D13208F09CC0C091E1
:1025B0006C040E94F8076B017C01809180038111FB
:1025C0006CC082E08093800381E0809382038FEF70
:1025D00080937F031092A403D093A303A6EFB2E0ED
:1025E000E3E8F3E080E0D8138DC01092A50380915A
:1025F000A503CC0FC82BC093A50380918103813024
:1026000009F084C0109281030E94F8076B017C01DD
:102610008091A5038093BB0080913703909138038C
:10262000A0913903B0913A03892B8A2B8B2BA1F00F
:102630000E94F80700913703109138032091390365
:1026400030913A036C197D098E099F090617170707
:102650002807390708F442C08091BC0083FDD8CF19
:1026600085EC8093BC000E94F8076B017C0180918F
:102670008003823009F44CC080917F038F3F09F4BE
:1026800069C080917F03803209F466C080917F0326
:10269000803309F463C084E026C0809137039091B1
:1026A0003803A0913903B0913A03892B8A2B8B2BE5
:1026B00009F483CF0E94F807009137031091380383
:1026C0002091390330913A036C197D098E099F09D5
:1026D000061717072807390708F06FCF80913603D0
:1026E0000E94231285E010926B0410926A041092EB
:1026F0006D04DF91CF911F910F91FF90EF90DF90CC
:10270000CF9008959D9191938F5F6DCF85EEA9CF66
:102710008091370390913803A0913903B0913A0327
:10272000892B8A2B8B2B09F4A2CF0E94F8070091EA
:102730003703109138032091390330913A036C1913
:102740007D098E099F09061717072807390708F022
:102750008ECFC4CF80E0C7CF82E0C5CF83E0C3CFA8
:10276000EF92FF920F931F93CF93DF937C01C62FBD
:102770008091C6059091C705009709F459C0209132
:10278000CA0531E030936D0420936C0410926B0401
:1027900010926A04DC01ED91FC910190F081E02D32
:1027A00060E019958701EE24E394F12CD1E0C1504B
:1027B0008091C6059091C705CF3F91F1B0E2EB162D
:1027C000F104D8F00E94C9128091C6059091C70506
:1027D0002091CA05D0936D0420936C0410926B0471
:1027E00010926A04DC01ED91FC910190F081E02DE2
:1027F00060E01995EE24E394F12C8091C605909148
:10280000C705F8016491DC01ED91FC910190F08124
:10281000E02D1995BFEFEB1AFB0A0F5F1F4FC7CFD3
:10282000DF91CF911F910F91FF90EF900C94C912FF
:10283000E091D605F091D70590818091DC058095D7
:10284000892380838701C15008F438C0F80184913E
:102850002091C4053091C505232B29F00E94DF0B80
:102860000F5F1F4FF0CF28E030E040E8E091D20545
:10287000F091D3059091DA05582F5423D9F0508167
:10288000952B9083E091D405F091D50590815091DE
:10289000DB05952B9083E091D405F091D50550810F
:1028A0009091DB05909595239083469521503109B1
:1028B000E9F6D6CF508190959523E3CFDF91CF9164
:1028C0001F910F91FF90EF9008951F93CF93DF9387
:1028D000EC018D8D9E8D009721F1162F29A131E0FD
:1028E00030936D0420936C0410926B0410926A0470
:1028F000DC01ED91FC910190F081E02D60E01995F3
:102900008D8D9E8DDC01ED91FC910190F081E02D8B
:10291000612F19958D8D9E8DDF91CF911F910C9414
:10292000C912ADA5BEA59C918BA9809589238C93D6
:102930008B8D9C8D892B31F0862FDF91CF911F914C
:102940000C94DF0B28E030E080E8A9A5BAA599A98E
:10295000462F4823C1F04C91942B9C93ABA5BCA56A
:102960009C914AA9942B9C93ABA5BCA54C919AA988
:10297000909594239C9386952150310931F7DF91EE
:10298000CF911F9108954C9190959423E6CF1F937A
:10299000CF93DF93EC01162F8D8D9E8D892BB1F196
:1029A0002DA93EA94FA958AD60E074E284EF90E0F4
:1029B0000E94E42520513109410951095695479556
:1029C000379527952093B80066EA111167EACE0182
:1029D0000E9465148D8D9E8D892B41F129AD3AADF4
:1029E0004BAD5CAD60E074E284EF90E00E94E425C2
:1029F0002051310941095109569547953795279539
:102A00002093B800DF91CF911F9108958B8D9C8DFD
:102A1000892B21F08EAD9FAD0E94E60BEFA5F8A9A2
:102A200090818CA9809589238083CECFEFA5F8A9CA
:102A300080819CA9892B8083E5CF90E080E0089578
:102A4000AF92BF92CF92DF92EF92FF920F931F93BC
:102A5000CF93DF936B017A01EC01CE50DD4F2881DB
:102A60003CE0389F8001399F100D1124A090A805EB
:102A7000B12C27FF1FC0FB011182108288818F5F5C
:102A8000888388819801280F311D87FD3A95F601CA
:102A90002A153B051CF488818C30C4F1808191811A
:102AA000049680349C4908F473C0F60180819181BA
:102AB000049670C088819801280F311D87FD3A95D2
:102AC0002A153B05DCF68881A801480F511D87FDBA
:102AD0005A95FA01EE0FFF1FE40FF51FE85EFA4F5B
:102AE000808186FFCBCF8881F801E80FF11D87FD3B
:102AF000FA95CF01EE0FFF1FE80FF91FE85EFA4FBE
:102B0000808160E08F730E948E07B8CF80819181B1
:102B10002881A801420F511D27FD5A959A01FA01FB
:102B2000EE0FFF1FE20FF31FE85EFA4F21813281A3
:102B3000820F931FF7019183808388819801280F6A
:102B4000311D87FD3A95F901EE0FFF1FE20FF31FCC
:102B5000E85EFA4F808186FF22C08881080F111D30
:102B600087FD1A95F801EE0FFF1FE00FF11FE85ED9
:102B7000FA4F808161E08F73DF91CF911F910F91A8
:102B8000FF90EF90DF90CF90BF90AF900C948E07A6
:102B900080E49CE9F701918380838FEF8883DF9144
:102BA000CF911F910F91FF90EF90DF90CF90BF904A
:102BB000AF9008950F931F93CF93DF932091F1026D
:102BC0002F5F322F37703093F10220FF2BC020E8A7
:102BD00031FD2064347009F02062205FFC01EC01BB
:102BE000239600E011E06485662329F070E0C801B7
:102BF0000E9431266F5F6187322F369F030E30E0CF
:102C0000311D1124311110C01682662311F061505C
:102C100061873196EC17FD0731F7DF91CF911F9156
:102C20000F91089520E0D4CF31503683EECF4F92EC
:102C30005F927F928F929F92AF92BF92CF92DF92DC
:102C4000EF92FF920F931F93CF93DF932C01EB0131
:102C50000E94F807F20127853089621B730B6A30E6
:102C60007105B0F3F8948A819B81181619060CF04F
:102C7000EAC1E881F981609102016061309102014D
:102C80003F7E30930201DA848F812D2D281B822F05
:102C90002F834F85042E000C550BAA81BB817D85A7
:102CA000FC84EE8488248394870EF394E3949E81BD
:102CB0009884B984AB841181C12C7C2D0C2D2C2DD2
:102CC0002181112788942111280F08F42FEF819575
:102CD000889480FC120F1795889481FC120F179529
:102CE000889482FC120F1795889483FC120F179515
:102CF000889484FC120F1795889485FC120F179501
:102D0000889486FC120F1795889487FC120F1795EC
:102D10008894722F8110712F8D0D172F002C6093C6
:102D20000201002C17FF309302012081772788943D
:102D300000C000C0309302012111290F00C0609330
:102D40000201002C16FF3093020108F42FEF919539
:102D5000889400C000C030930201F0FC720F00C0E4
:102D600060930201002C15FF30930201779588943F
:102D7000F1FC720F00C000C0309302017795889477
:102D800000C060930201002C14FF30930201F2FC9A
:102D9000720F7795889400C000C030930201F3FC55
:102DA000720F00C060930201002C13FF30930201E8
:102DB00077958894F4FC720F00C000C03093020134
:102DC0007795889400C060930201002C12FF309325
:102DD0000201F5FC720F7795889400C000C0309313
:102DE0000201F6FC720F00C060930201002C11FF7B
:102DF0003093020177958894F7FC720F00C000C0F1
:102E0000309302017795889400C060930201002CF2
:102E100010FF30930201122FF110172F9B0D00C0ED
:102E200000C03093020100C000C060930201002C7A
:102E300017FF3093020122817727889400C000C0D9
:102E4000309302012111290D00C060930201002C72
:102E500016FF3093020108F42FEFE40FF51F00C0B6
:102E600000C030930201E0FC720F00C060930201C9
:102E7000002C15FF3093020177958894E1FC720FC6
:102E800000C000C0309302017795889400C0609321
:102E90000201002C14FF30930201E2FC720F7795BF
:102EA000889400C000C030930201E3FC720F00C0A0
:102EB00060930201002C13FF3093020177958894F0
:102EC000E4FC720F00C000C0309302017795889433
:102ED00000C060930201002C12FF30930201E5FC58
:102EE000720F7795889400C000C030930201E6FC11
:102EF000720F00C060930201002C11FF3093020199
:102F000077958894E7FC720F00C000C030930201EF
:102F10007795889400C060930201002C10FF3093D5
:102F20000201122FE110172F919400C000C03093BE
:102F300002019A0C00C0002C60930201002C17FFC4
:102F40003093020121817727889400C000C030931C
:102F500002012111280F00C060930201002C16FF0E
:102F60003093020108F42FEF8195889400C000C0CF
:102F70003093020180FC720F00C060930201002CAC
:102F800015FF309302017795889481FC720F00C081
:102F900000C0309302017795889400C060930201CD
:102FA000002C14FF3093020182FC720F77958894F5
:102FB00000C000C03093020183FC720F00C0609318
:102FC0000201002C13FF309302017795889484FC52
:102FD000720F00C000C0309302017795889400C042
:102FE00060930201002C12FF3093020185FC720FE6
:102FF0007795889400C000C03093020186FC720F60
:1030000000C060930201002C11FF309302017795FC
:10301000889487FC720F00C000C03093020177953E
:10302000889400C060930201002C10FF30930201CD
:10303000122F8110172F8D0D00C000C03093020198
:10304000119709F06CCE4A815B8120EE31E0DA0104
:103050000E944D26DC01CB01F4E0B695A79597952B
:103060008795FA95D1F730E020E0B901EAE94E9F63
:10307000040E611D5E9F600D711D1124650F711D91
:10308000860F971FA11DB11D893E43E09407A1053E
:10309000B10508F434C0885E9340A109B10942E04B
:1030A000B695A795979587954A95D1F747E0849F60
:1030B000080E211D949F200D311D1124290F311D53
:1030C0006091F00270E0860F971F820F931F40916E
:1030D0006204509163046091640470916504292F27
:1030E0003327420F531F611D711D4093620450939B
:1030F000630460936404709365048093F002789491
:103100000E94F807F201708B6787DF91CF911F91C2
:103110000F91FF90EF90DF90CF90BF90AF909F9076
:103120008F907F905F904F90089581E090E0089598
:10313000E1E0F1E080818061808308956F927F9269
:103140008F92CF92DF92EF92FF920F931F93CF93C4
:10315000DF93CDB7DEB762970FB6F894DEBF0FBE30
:10316000CDBF6C017A013801822EDC011C962C91B6
:10317000CA0157FF04C088279927841B950B7A83BF
:1031800069839C838B839E838D836D867E868F86E9
:10319000213049F5CE0101960E94DA1583E0888B33
:1031A0001A8A198AF7FE02C08DEF888BD601ED913D
:1031B000FC910684F785E02DBE016F5F7F4FC6014D
:1031C000199562960FB6F894DEBF0FBECDBFDF91A2
:1031D000CF911F910F91FF90EF90DF90CF908F9044
:1031E0007F906F9008951C861B861A861986188614
:1031F0001F82D4CFEF92FF920F931F93CF93DF9351
:10320000CDB7DEB762970FB6F894DEBF0FBECDBF65
:103210007C01DC011C968C917A8369835C834B83EF
:103220005E834D830D871E872F878130F9F4CE0191
:1032300001960E94DA15188A1A8A198AD701ED9127
:10324000FC910684F785E02DBE016F5F7F4FC701BB
:10325000199562960FB6F894DEBF0FBECDBFDF9111
:10326000CF911F910F91FF90EF9008951C861B86C0
:103270001A86198618861F82DECF90E080E00895B6
:10328000FC018585968508950F931F93CF93DF9357
:1032900000D0CDB7DEB7AB0119821A821B82DC01E8
:1032A000ED91FC910190F081E02D00E010E020E034
:1032B000BE016F5F7F4F19950F900F900F90DF91B8
:1032C000CF911F910F9108952091AF053091B005D6
:1032D000C901079697FD079623E0959587952A954E
:1032E000E1F72091AD053091AE05829FA001839F4B
:1032F000500D929F500D112470E060E08091C80540
:103300009091C9050C9492270E948D27FB01019092
:103310000020E9F73197AF01461B570BDC01ED9117
:10332000FC910280F381E02D19940F931F93CF93AA
:10333000DF93EC010E9486198C016AE672E0CE01EF
:103340000E948619800F911FDF91CF911F910F91DD
:10335000089585ED8093BC008091370390913803E8
:10336000A0913903B0913A030796A11DB11D23E046
:10337000B695A795979587952A95D1F72091BC008A
:1033800024FD03C0109280030895409137035091AB
:1033900038036091390370913A03452B462B472B34
:1033A00069F30097A105B10541F02AE22A95F1F7EA
:1033B00000C00197A109B109E1CF809136030C94B7
:1033C00023121F920F920FB60F9211242F933F9347
:1033D0008F939F93AF93BF93809162049091630406
:1033E000A0916404B09165043091610423E0230F3F
:1033F0002D3758F50196A11DB11D209361048093CE
:10340000620490936304A0936404B0936504809174
:10341000660490916704A0916804B09169040196D4
:10342000A11DB11D8093660490936704A093680466
:10343000B0936904BF91AF919F918F913F912F916C
:103440000F900FBE0F901F90189526E8230F02963D
:10345000A11DB11DD2CF1F920F920FB60F92112452
:103460000BB60F922F933F934F935F936F937F937E
:103470008F939F93AF93BF93EF93FF938EE694E068
:103480000E94C808FF91EF91BF91AF919F918F91DA
:103490007F916F915F914F913F912F910F900BBE54
:1034A0000F900FBE0F901F9018951F920F920FB69E
:1034B0000F9211240BB60F922F938F939F93EF933C
:1034C000FF93E0917E04F0917F048081E091840479
:1034D000F091850482FD1DC09081809187048F5FEB
:1034E0008F7320918804821741F0E0918704F0E007
:1034F000E259FB4F958F80938704FF91EF919F9145
:103500008F912F910F900BBE0F900FBE0F901F90B9
:1035100018958081F2CF1F920F920FB60F9211244F
:103520000BB60F922F933F934F935F936F937F93BD
:103530008F939F93AF93BF93EF93FF938091B900C5
:10354000887F803609F44DC008F040C0883209F405
:10355000A9C028F5803109F49DC0C8F4882309F476
:10356000FBC0883009F496C0FF91EF91BF91AF91F5
:103570009F918F917F916F915F914F913F912F918B
:103580000F900BBE0F900FBE0F901F9018958831B3
:1035900009F488C0803241F780937F0314C08034DF
:1035A00009F49DC040F48033B9F38833E9F6809381
:1035B0007F0385ECB0C0803509F485C0883509F4F7
:1035C00096C0883489F60E94A919CECF883909F4AB
:1035D0008CC038F5883729F050F4883611F08037E0
:1035E00019F683E08093800310927E0357C08838D9
:1035F00009F47BC0803919F0803809F0B5CF80918B
:103600007E03803208F071C0E0917E0381E08E0F6E
:1036100080937E038091BB00F0E0E25AFC4F8083F0
:103620003DC0803B39F0E0F4803A09F479C0883A33
:1036300009F09ACF84E08093800310925D0310928A
:103640005C03E091A903F091AA03199580915C03B2
:1036500081110FC081E080935C0310923C0309C08C
:10366000803C09F4A6CF883C09F4A3CF883B09F03D
:103670007BCFE0915D0381E08E0F80935D03F0E0EE
:10368000E45CFC4F80818093BB0090915D0380914E
:103690005C0329C08091A5038093BB0085EC8093D7
:1036A000BC0062CF9091A4038091A303981758F5B2
:1036B000E091A40381E08E0F8093A403F0E0ED5726
:1036C000FC4F8081E9CFE091A40381E08E0F8093CD
:1036D000A4038091BB00F0E0ED57FC4F80839091F4
:1036E000A4038091A3039817C8F285E8D8CFE0918E
:1036F000A40381E08E0F8093A4038091BB00F0E0CF
:10370000ED57FC4F80838091820381115CCF81E073
:103710008093810384EA8093BC001092800324CFBD
:1037200085EC8093BC001092800380917E038032F0
:1037300030F4E0917E03F0E0E25AFC4F1082609199
:103740007E0370E0E091A703F091A8038EE593E07B
:10375000199510927E0308CF10927F0334CF1F92E9
:103760000F920FB60F9211240BB60F922F933F9327
:103770004F935F936F937F938F939F93AF93BF9379
:10378000EF93FF9348E251E064E271E090E080E063
:103790000E942015FF91EF91BF91AF919F918F9162
:1037A0007F916F915F914F913F912F910F900BBE41
:1037B0000F900FBE0F901F9018951F920F920FB68B
:1037C0000F9211240BB60F922F933F934F935F9359
:1037D0006F937F938F939F93AF93BF93EF93FF93D9
:1037E00048EA50E064EA70E083E090E00E9420152F
:1037F000FF91EF91BF91AF919F918F917F916F91C9
:103800005F914F913F912F910F900BBE0F900FBE84
:103810000F901F9018951F920F920FB60F921124C0
:103820000BB60F922F933F934F935F936F937F93BA
:103830008F939F93AF93BF93EF93FF9348E950E02B
:1038400064E970E082E090E00E942015FF91EF9122
:10385000BF91AF919F918F917F916F915F914F91A8
:103860003F912F910F900BBE0F900FBE0F901F90A6
:1038700018951F920F920FB60F9211240BB60F924C
:103880002F933F934F935F936F937F938F939F9368
:10389000AF93BF93EF93FF9348E850E064E870E084
:1038A00081E090E00E942015FF91EF91BF91AF91D0
:1038B0009F918F917F916F915F914F913F912F9148
:1038C0000F900BBE0F900FBE0F901F901895109287
:1038D00071041092700488EE93E0A0E0B0E0809351
:1038E000720490937304A0937404B093750480E3FE
:1038F00092E090936F0480936E0485EC90E0909337
:103900007B0480937A0484EC90E090937D04809310
:103910007C0480EC90E090937F0480937E0481ECA3
:1039200090E0909381048093800482EC90E09093E7
:1039300083048093820486EC90E0909385048093C6
:1039400084041092870410928804109289041092C3
:103950008A049FEF90930B0510920D0510920C05B1
:1039600010921705109216054FEF5FEFBA014093C2
:1039700012055093130560931405709315058091FB
:10398000A805803308F072C091E0980F9093A805C5
:103990008093E90590E0FC01EE0FFF1FE80FF91F8F
:1039A000E85EFA4F88EB9BE0928381831092AC052E
:1039B0001092AB0520E830E03093AE052093AD05C2
:1039C00080E490E09093B0058093AF053093B2050A
:1039D0002093B1059093B4058093B3051092BF0571
:1039E0001092B6051092B5051092B8051092B70561
:1039F00081E08093BE058093BD052FEF3FEF3093AC
:103A0000BC052093BB053093BA052093B90580937C
:103A1000C0051092C1051092C3051092C20582E440
:103A200092E09093AA058093A9051092C505109283
:103A3000C4051092C7051092C6051092C9051092D0
:103A4000C8058BE08093CD058CE08093CE0589E09E
:103A50008093CF058AE08093D00588E08093D105DC
:103A600080E58093E7051092E80508959093E905B5
:103A70009DCFCF93DF9300D0CDB7DEB7789484B5D8
:103A8000826084BD84B5816084BD85B5826085BD5A
:103A900085B5816085BD80916E00816080936E00E8
:103AA00010928100809181008260809381008091DA
:103AB000810081608093810080918000816080938B
:103AC00080008091B10084608093B1008091B0004B
:103AD00081608093B000809191008260809391001A
:103AE000809191008160809391008091900081602D
:103AF000809390008091A10082608093A1008091CA
:103B0000A10081608093A1008091A00081608093DA
:103B1000A000809121018260809321018091210188
:103B20008160809321018091200181608093200138
:103B300080917A00846080937A0080917A0082601C
:103B400080937A0080917A00816080937A008091DE
:103B50007A00806880937A001092C1008091C80535
:103B60009091C905892B11F10E9464192091AF052C
:103B70003091B0058091AD059091AE0521323105AF
:103B80000CF04BC0B9016052710977FF02C06F5F42
:103B90007F4F759567958357910997FD019600E2D0
:103BA00010E023E730E046EE56E04AC02091AF0532
:103BB0003091B005C901079697FD0796B3E095953A
:103BC0008795BA95E1F72091AD053091AE05AC012E
:103BD000429FC001439F900D529F900D11240E945F
:103BE00068269093C9058093C805892B09F0BCCF3E
:103BF0000BE81BE0F8016491662341F08EE694E047
:103C00000E94EA080F5F1F4F892BA1F76AE672E056
:103C10008EE694E00E948619FFCFB90160547109C5
:103C200077FF02C06F5F7F4F759567958255910949
:103C300097FD019600E410E022E530E046EC58E004
:103C4000959587950E94D01082E08093CB05809156
:103C5000C6059091C705892B09F4ABC18091AF05CA
:103C60009091B005809709F0A2C18CE38093CA05BA
:103C70001092AC031092AB0310926B0410926A0482
:103C80000E94051282E598E09093AA038093A9030D
:103C900083E598E09093A8038093A7038091D105D2
:103CA00087FD1EC061E00E94BC0761E08091D105E4
:103CB0000E948E0761E070E080E090E00E941D08A5
:103CC00060E08091D1050E948E076AE070E080E09C
:103CD00090E00E941D0861E08091D1050E948E074E
:103CE0008091C6059091C705892B09F421C22091C6
:103CF000DE053091DF054091E0055091E10560E07F
:103D000074E284EF90E00E94E425205131094109DA
:103D1000510956954795379527952093B80064E04B
:103D200082EE96E00E94B0136091AF05615089EA7F
:103D300095E00E94651464E08EED96E00E94B01359
:103D40008091CB0560E1813009F064E189EA95E07A
:103D50000E94651464E08AED96E00E94B0138FE83B
:103D60008093E6058091AD059091AE058038910570
:103D700009F0F7C18091AF059091B00580349105AD
:103D800009F0FFC18091CB05813009F0E8C18FE9CE
:103D90008093E60512E16AED89EA95E00E946514D8
:103DA000612F89EA95E00E94651461E889EA95E04F
:103DB0000E9465146091E60589EA95E00E94651409
:103DC00069ED89EA95E00E9465148091CB0562E275
:103DD000813009F061EF89EA95E00E94651466E0A0
:103DE00084ED96E00E94B0138091C6059091C705BE
:103DF000892B09F4CAC12091E2053091E305409175
:103E0000E4055091E50560E074E284EF90E00E94E3
:103E1000E4252051310941095109569547953795B7
:103E200027952093B8000E94641982E08093BD0515
:103E30008093BE058EE090E09093B6058093B50523
:103E400088E190E09093B8058093B70581E090E019
:103E50009093BC058093BB059093BA058093B905F8
:103E60006DE672E089EA95E00E9495198091C60599
:103E70009091C705892B09F492C12091DE053091FC
:103E8000DF054091E0055091E10560E074E284EFC8
:103E900090E00E94E42520513109410951095695CD
:103EA0004795379527952093B80065E086E89BE015
:103EB0000E94B0136091AD05615089EA95E00E94BF
:103EC00065142091AF053091B005C901079697FDA3
:103ED000079623E0959587952A95E1F72091AD0502
:103EE0003091AE05829F8001839F100D929F100D2F
:103EF0001124E090C805F090C9058091C605909105
:103F0000C7050E0D1F1D009709F457C32091CA0560
:103F100031E030936D0420936C0410926B04109286
:103F20006A04DC01ED91FC910190F081E02D60E4E8
:103F30001995CC24C394D12CBB24B3948091C6058D
:103F40009091C705E016F10609F440C1B0E2CB1626
:103F5000D104D8F00E94C9128091C6059091C7057E
:103F60002091CA05B0926D0420936C0410926B04EA
:103F700010926A04DC01ED91FC910190F081E02D3A
:103F800060E41995CC24C394D12C8091C6059091FE
:103F9000C705F70161917F01DC01ED91FC91019072
:103FA000F081E02D1995BFEFCB1ADB0AC7CF8DE367
:103FB0005DCE61E08091CF050E94BC0761E08091F9
:103FC000D0050E94BC078091CF05082E000C990BEC
:103FD000FC01ED50F44FE491F0E0EE0FFF1FE154CF
:103FE000F44F259134913093D7052093D605FC01E9
:103FF000E75CF34FE491E093DC058091D005082E57
:10400000000C990BFC01ED50F44FE491F0E0EE0F41
:10401000FF1FE154F44FA591B491B093D905A0933B
:10402000D805FC01E75CF34FE491E093DD058C914A
:10403000E82BEC938091C4059091C505892B09F478
:1040400034C01FB7F8948091A603811127C0E8E21D
:10405000FCE08491EEE6FCE09491E82FF0E0EE0FB6
:10406000FF1FEB55F44FA591B491EC91E92321F496
:1040700061E085E30E948E0761E085E30E94BC0752
:104080008CB580618CBD8CB580648CBD61E084E3AF
:104090000E94BC0761E083E30E94BC078091A603F5
:1040A0008F5F8093A6031FBFF9CD61E08091CD059E
:1040B0000E94BC0761E08091CE050E94BC07809100
:1040C000CD05082E000C990BFC01ED50F44FE49146
:1040D000F0E0EE0FFF1FE154F44F2591349130933F
:1040E000D3052093D205FC01E75CF34FE491E09304
:1040F000DA058091CE05082E000C990BFC01ED50DD
:10410000F44FE491F0E0EE0FFF1FE154F44FA5915E
:10411000B491B093D505A093D405FC01E75CF34FAF
:10412000E491E093DB058C91E095E823EC93B6CD28
:104130008091C4059091C505892B31F08091E705E8
:104140009091E8050E94E60BE091D805F091D90521
:1041500090818091DD05809589238083E0CD8FEC6F
:1041600017CE8036910569F48091AF059091B00526
:10417000409739F48091CB05813029F480E1809318
:10418000E60512E008CE8FEAFACFE091D805F0916B
:10419000D90580819091DD05892B808344CE809163
:1041A000C4059091C505892B31F08091E705909168
:1041B000E8050E94E60BE091D805F091D9059081C1
:1041C0008091DD058095892380836FCE0E94C9127E
:1041D0008091C6059091C705892B09F432C22091C0
:1041E000E2053091E3054091E4055091E50560E07A
:1041F00074E284EF90E00E94E425205131094109E6
:10420000510956954795379527952093B80061E059
:104210008FE10E94BC0761E08DE10E94BC0761E074
:104220008EE10E94BC0761E082E20E94BC0761E06F
:1042300080E20E94BC0761E081E20E94BC0761E06D
:1042400085E20E94BC0761E083E20E94BC0761E056
:1042500084E20E94BC0761E088E20E94BC0761E042
:1042600086E20E94BC0761E087E20E94BC0762E030
:1042700087E10E94BC0762E086E10E94BC0762E021
:1042800089E10E94BC0762E088E10E94BC0761E00E
:1042900086E00E94BC0760E081E30E94BC0762E008
:1042A00081E30E948E0761E086E00E948E07809184
:1042B000E905803308F052C061E086E00E94BC0747
:1042C0008091E905282F30E0F901EE0FFF1FE20F82
:1042D000F31FE85EFA4F9081907C96609083109275
:1042E000EA051092EB052CE0622F0E942526829FA2
:1042F000B001112430E020E0AB01420F531FFA015E
:10430000EE0FFF1FE40FF51FE85EFA4F908196FD58
:1043100017C02F5F3F4F2C30310571F7813009F006
:104320009AC11092800082E08093810010928500F3
:1043300010928400B19A80916F00826080936F0028
:10434000E091E9058E2F90E0FC01EE0FFF1FE80FD2
:10435000F91FE85EFA4F80818064808389E690E0EF
:104360000E9498068091C003811145C01092B2034B
:104370001092B1038FEF8093B5038093B6038093BF
:10438000B7038093B8038093B9038093BA0381E0A5
:104390008093BB031092BD031092BC031092B40330
:1043A0001092B3038091CE039091CF03892B31F407
:1043B0008FEA93E09093CF038093CE03E091AD0317
:1043C000F091AE03309721F08FEA93E095838483D8
:1043D0008FEA93E09093AE038093AD031092BF03F6
:1043E0001092BE038CE192E09093B0038093AF03F0
:1043F00081E08093C003809101018061809301017D
:1044000084ED93E09093B2038093B1038FE290E048
:104410009093BD038093BC0380910E0590910F058E
:10442000A0911005B0911105843CF9E09F07A1050A
:10443000B10520F484EC99E0A0E0B0E080930E0593
:1044400090930F05A0931005B0931105E4EDF3E0F0
:1044500081E694E047EA3BE420ED40833183228308
:1044600033968E179F07C9F7D0900B0580910E05E4
:1044700090910F05A0911005B0911105892B8A2B01
:104480008B2BD9F00E94F8070091D0031091D10333
:104490002091D2033091D303601B710B820B930BDD
:1044A00000910E0510910F05209110053091110516
:1044B0006017710782079307C8F20E94F80760939C
:1044C000D0037093D1038093D2039093D303E091F0
:1044D0001605F0911705309759F04091120550914B
:1044E000130560911405709115058D2D1995D82E21
:1044F000E090CE03F090CF034D2C512C712C612C09
:10450000E114F10409F4D3C0D7011C96CC901C9798
:1045100080910C0590910D058436910510F41C9640
:104520001C92D701ED91FC91A280B38019821A826E
:104530001B82DD2079F1F701369610E000E0219131
:10454000222319F19280992001F130E050E040E0FF
:104550002F5F3F4F4F4F5F4FC301B2010E9415269F
:104560009B01AC01892D90E0B0E0A0E0BC01CD0141
:104570006F5F7F4F8F4F9F4F0E941526A1E0B0E0E5
:10458000AC0FBD1FA00FB11F8C930F5F1F4F0330E7
:104590001105A9F609811A812B81F70145855685F8
:1045A00062817381C701F5011995D7011C96CC92E0
:1045B0001C971496ED90FC90A3CFE091D605F09156
:1045C000D70580819091DC05892B8083E016F10668
:1045D00009F4FECDF70181917F012091C40530914E
:1045E000C505232B19F00E94DF0BF0CF28E030E047
:1045F00040E8E091D205F091D3059091DA05542F6F
:104600005823D9F05081952B9083E091D405F091F7
:10461000D50590815091DB05952B9083E091D405D1
:10462000F091D50550819091DB059095952390836D
:10463000469521503109E9F6C9CF508190959523CF
:10464000E3CFE091D805F091D90580819091DD0507
:10465000892B8083DCCD823061F4109290008093AE
:104660009100109295001092940088BB8093710085
:1046700067CE833069F41092A00082E08093A1009D
:104680001092A5001092A40089BB8093720058CEAE
:10469000811156CE1092200182E080932101109268
:1046A0002501109224018ABB8093730049CE80912A
:1046B000CC039091CD039C012F5F3F4F3093CD03EE
:1046C0002093CC0349970CF44AC08FB7F8942091FB
:1046D00062043091630440916404509165048FBF7B
:1046E0008091C8039091C903A091CA03B091CB03F4
:1046F000281B390B4A0B5B0B21F421E030E040E032
:1047000050E0E091CC03F091CD0388EE93E0E89F78
:10471000B001E99F700DF89F700D1124072E000C59
:10472000880B990B0E94E42530930D0520930C050E
:104730001092CD031092CC032FB7F89480916204AD
:1047400090916304A0916404B09165042FBF80939D
:10475000C8039093C903A093CA03B093CB03E0911D
:104760007E04F0917F0482E08083E0917A04F091EE
:104770007B041082E0917C04F0917D048FEC8083B7
:1047800010928604E0918204F091830486E0808395
:10479000E0918004F0918104808180618083E091C8
:1047A0008004F0918104808188608083E09180049E
:1047B000F0918104808180688083E0918004F09191
:1047C000810480818F7D808386E10E946507892B2B
:1047D000F9F461E083E20E948E0760E084E20E94C7
:1047E0008E076FEF85E20E948E0760E086E20E94EE
:1047F0008E0761E087E20E948E076FEF88E20E94D9
:104800008E0761EB72E08EE694E00E949519BBC0C2
:1048100087E10E946507892BD9F460E083E20E945A
:104820008E0761E084E20E948E076FEF85E20E94AE
:104830008E0761E086E20E948E0760E087E20E94B8
:104840008E076FEF88E20E948E076CED72E0DBCF7F
:1048500089E10E946507892B79F460E080E20E947B
:104860008E0761E081E20E948E076FEF82E20E9474
:104870008E076AE772E0C7CF88E10E946507892B3F
:1048800079F461E080E20E948E0760E081E20E949C
:104890008E076FEF82E20E948E0762E872E0B3CF6C
:1048A00086E10E946507892B61F589E10E94650711
:1048B000892B39F561E083E20E948E0760E084E293
:1048C0000E948E076FEF85E20E948E0760E086E20D
:1048D0000E948E0761E087E20E948E076FEF88E2F8
:1048E0000E948E0760E080E20E948E0761E081E214
:1048F0000E948E076FEF82E20E948E0767E772E0E8
:1049000082CF86E10E946507892B09F4BFC087E149
:104910000E946507892B09F4E6C087E10E946507BC
:10492000892B09F4F8C060E080E20E948E0760E005
:1049300081E20E948E0760E082E20E948E0760E0C2
:1049400083E20E948E0760E084E20E948E0760E0AE
:1049500085E20E948E0760E086E20E948E0760E09A
:1049600087E20E948E0760E088E20E948E0768E876
:1049700072E08EE694E00E94951964E670E080E0B3
:1049800090E00E941D0881E30E946507892B09F0D1
:104990007AC06FE872E08EE694E00E9495196EE9A5
:1049A00072E08EE694E00E94951987E390E00E9401
:1049B00098066BEA72E08EE694E00E94951961E039
:1049C0008DE10E948E0760E08EE10E948E076FEFFE
:1049D0008FE10E948E0768E978E080E090E00E9415
:1049E0001D0866EB72E08EE694E00E94951960E087
:1049F0008DE10E948E0760E08EE10E948E0760E0EC
:104A00008FE10E948E0768EE73E080E090E00E94E4
:104A10001D0869EC72E08EE694E00E94951989E623
:104A200090E00E94980668EE73E080E090E00E94BB
:104A30001D0866ED72E08EE694E00E94951960E034
:104A40008DE10E948E0761E08EE10E948E076FEF7C
:104A50008FE10E948E0764EC79E080E090E00E9494
:104A60001D086FED72E08EE694E00E94951960E0FB
:104A70008DE10E948E0760E08EE10E948E0760E06B
:104A80008FE10E948E070E9457099ECE88E10E9406
:104A90006507892B09F03BCF61E083E20E948E0716
:104AA00060E084E20E948E076FEF85E20E948E072D
:104AB00060E086E20E948E0761E087E20E948E0736
:104AC0006FEF88E20E948E0761E080E20E948E070D
:104AD00060E081E20E948E076FEF82E20E948E0703
:104AE0006FE772E090CE89E10E946507892B09F09B
:104AF00014CF60E083E20E948E0761E084E20E94AE
:104B00008E076FEF85E20E948E0761E086E20E94C9
:104B10008E0760E0E0CE88E10E946507892B09F0EE
:104B200002CF60E083E20E948E0761E084E20E948F
:104B30008E076FEF85E20E948E0761E086E20E9499
:104B40008E0760E0BACF82E492E09093AA0580934A
:104B5000A9058091C8059091C905009711F00C94A2
:104B600004270895052E97FB1EF400940E94C92582
:104B700057FD07D00E94E42507FC03D04EF40C94A7
:104B8000C92550954095309521953F4F4F4F5F4F28
:104B9000089590958095709561957F4F8F4F9F4FA9
:104BA00008950E940626A59F900DB49F900DA49F86
:104BB000800D911D11240895B7FF0C94D1250E94FA
:104BC000D125821B930B0895A1E21A2EAA1BBB1BB1
:104BD000FD010DC0AA1FBB1FEE1FFF1FA217B307C9
:104BE000E407F50720F0A21BB30BE40BF50B661FDF
:104BF000771F881F991F1A9469F7609570958095A3
:104C000090959B01AC01BD01CF010895A29FB00119
:104C1000B39FC001A39F700D811D1124911DB29FF0
:104C2000700D811D1124911D0895DB018F939F93B9
:104C30000E94D125BF91AF91A29F800D911DA39F8E
:104C4000900DB29F900D11240895991B79E004C036
:104C5000991F961708F0961B881F7A95C9F78095BB
:104C6000089597FB072E16F4009407D077FD09D01E
:104C70000E94542607FC05D03EF4909581959F4FE5
:104C80000895709561957F4F0895EE0FFF1F881F5F
:104C90008BBF0790F691E02D19940E940626B7FF6E
:104CA0000895821B930B0895AA1BBB1B51E107C0FB
:104CB000AA1FBB1FA617B70710F0A61BB70B881FAC
:104CC000991F5A95A9F780959095BC01CD0108953B
:104CD0000F931F93CF93DF938230910510F482E0FE
:104CE00090E0E091EE05F091EF0530E020E0B0E0DB
:104CF000A0E0309799F42115310509F44AC0281B2A
:104D0000390B24303105D8F58A819B8161157105F5
:104D100089F1FB0193838283FE0111C0408151819F
:104D20000281138148175907E0F04817590799F491
:104D3000109761F012960C93129713961C9332966B
:104D4000CF01DF91CF911F910F9108950093EE0550
:104D50001093EF05F4CF2115310551F04217530799
:104D600038F0A901DB019A01BD01DF01F801C1CFD3
:104D7000EF01F9CF9093EF058093EE05CDCFFE01C3
:104D8000E20FF31F819391932250310939832883D5
:104D9000D7CF2091EC053091ED05232B41F42091E4
:104DA0000202309103023093ED052093EC0520912F
:104DB0000002309101022115310541F42DB73EB7B3
:104DC0004091040250910502241B350BE091EC0543
:104DD000F091ED05E217F307A0F42E1B3F0B281707
:104DE000390778F0AC014E5F5F4F2417350748F064
:104DF0004E0F5F1F5093ED054093EC058193919307
:104E00009FCFF0E0E0E09CCFCF93DF930097E9F0F5
:104E1000FC01329713821282A091EE05B091EF054A
:104E2000ED0130E020E01097A1F420813181820F64
:104E3000931F2091EC053091ED052817390709F0F3
:104E400061C0F093ED05E093EC05DF91CF910895FB
:104E5000EA01CE17DF07E8F54A815B819E01411523
:104E60005105B1F7E901FB83EA8349915991C40FD8
:104E7000D51FEC17FD0761F4808191810296840FA4
:104E8000951FE90199838883828193819B838A831B
:104E9000F0E0E0E012968D919C9113970097B9F5A0
:104EA0002D913C911197CD010296820F931F209175
:104EB000EC053091ED052817390739F6309751F593
:104EC0001092EF051092EE05B093ED05A093EC055E
:104ED000BCCFD383C28340815181840F951FC817F3
:104EE000D90761F44E5F5F4F88819981480F591F40
:104EF000518340838A819B8193838283211531056D
:104F000009F0B0CFF093EF05E093EE059ECFFD01E1
:104F1000DC01C0CF13821282D7CF81E090E0F894F9
:104F20000C949927DC0101C06D9341505040E0F78B
:104F3000089516E0C4E6D6E000E006C0802FFE012A
:104F40000E9445262196011DC536D10780E008073D
:064F5000A9F7F894FFCF61
:104F56000000F005800000000000841984198419FF
:104F66004419401995183D1900000000FA189E18BA
:104F760098184419401995184F0817160000000094
:104F8600EA08540881083709B2089008A408000006
:104F96000000240E54081D15DD112F0BFD06C91047
:104FA600A110BD10B1103111FD06EA0BC7149F0AFE
:104FB600E80AEA0FCD0F550FF60E0D0A004D4543D0
:104FC60048414E454B4F005550204C4546540055E0
:104FD600502052494748540043454E5445520042DA
:104FE6005554544F4E205052455353454400434C5C
:104FF6004157204F50454E494E4700474F494E476F
:1050060020444F574E0053544F5050494E4720416D
:105016005420424F54544F4D00434C415720434C6B
:105026004F53494E4700474F494E4720555000536E
:10503600544F5050494E4720415420544F50000081
:00000001FF
