:100000000C94A0070C94D1070C94D1070C94D10741
:100010000C94D1070C94D1070C94D1070C94D10700
:100020000C94D1070C94D1070C94D1070C94D107F0
:100030000C94D1070C94D1070C94D1070C94D107E0
:100040000C94D1070C942E290C94D1070C94D10751
:100050000C94D1070C94D1070C94D1070C94D6269C
:100060000C94D1070C944A270C9420270C94D107A8
:100070000C94D1070C94D1070C94D1070C94D107A0
:100080000C9400290C94D1070C94D1070C94D1073F
:100090000C94D1070C94D1070C94D1070C948027B1
:1000A0000C94D1070C94D1070C94D2280C94D1074E
:1000B0000C94D1070C94D1070C94D1070C94A4286C
:1000C0000C94D1070C94D1070C94D1070C94D10750
:1000D0000C94D1070C94D1070C94D1070C94D10740
:1000E0000C94D1070C9440090C94FC150C945817EF
:1000F0000C9450330C944D090C9469090C94D60A55
:100100000C945B090C9447090C9443220C94710ADB
:100110000C9451090C94C70A0C943C090C941309D3
:100120000C949D150C9491120C94300B0C94701738
:100130000C9438090C9464170C94F80A0C94440934
:100140000C946D090C94EA0A0C94730A0C94D81759
:100150000C946D0D0C9448170C9491160C9440223D
:100160000C94720A0C9409110C941A1F0C94CB1461
:100170000C9472090C949A0A0C9477090C94CE0B87
:100180000C945C290C94A1100C9465090C94240D1A
:100190000C9473090C945F090C94F51C0C9457098A
:1001A0000C94E8220C9474160C9432090C94841864
:1001B0000C9447220C9498210C94FD210C94B40DBE
:1001C0000C94A1210C949B210C947D0B0C949F1CEE
:1001D000556E6B6E6F776E20747970650053414B6E
:1001E00020696E64696361746573205549442069B0
:1001F00073206E6F7420636F6D706C6574652E0074
:100200004D494641524520544E5033585858004DA0
:1002100049464152452044455346697265004D495F
:100220004641524520506C7573004D494641524538
:1002300020556C7472616C69676874206F72205508
:100240006C7472616C696768742043004D49464163
:10025000524520344B42004D494641524520314BD6
:1002600042004D4946415245204D696E692C20336C
:100270003230206279746573005049434320636FC4
:100280006D706C69616E7420776974682049534F92
:100290002F49454320313830393220284E464329F2
:1002A000005049434320636F6D706C69616E742028
:1002B000776974682049534F2F49454320313434BE
:1002C00034332D3400546869732073616D706C652C
:1002D000206F6E6C7920776F726B7320776974680A
:1002E000204D494641524520436C61737369632038
:1002F00063617264732E00504943432074797065C2
:100300003A200043617264205549443A00436172C7
:100310006420666F756E642E204964656E7469662C
:1003200079696E672E2E2E0000000000003E5B4FA4
:100330005B3E3E6B4F6B3E1C3E7C3E1C183C7E3C45
:10034000181C577D571C1C5E7F5E1C00183C180053
:10035000FFE7C3E7FF0018241800FFE7DBE7FF30E3
:10036000483A060E2629792926407F050507407F51
:1003700005253F5A3CE73C5A7F3E1C1C08081C1CC4
:100380003E7F14227F22145F5F005F5F06097F01BA
:100390007F006689956A606060606094A2FFA294A5
:1003A00008047E040810207E201008082A1C080873
:1003B0001C2A08081E101010100C1E0C1E0C3038C1
:1003C0003E3830060E3E0E06000000000000005FC2
:1003D00000000007000700147F147F14242A7F2ADE
:1003E00012231308646236495620500008070300A0
:1003F000001C2241000041221C002A1C7F1C2A08EC
:10040000083E08080080703000080808080800004E
:1004100060600020100804023E5149453E00427FC2
:10042000400072494949462141494D331814127F11
:100430001027454545393C4A4949314121110907B1
:100440003649494936464949291E00001400000032
:100450004034000000081422411414141414004104
:1004600022140802015909063E415D594E7C1211C1
:10047000127C7F494949363E414141227F414141F9
:100480003E7F494949417F090909013E4141517374
:100490007F0808087F00417F41002040413F017FE5
:1004A000081422417F404040407F021C027F7F04AD
:1004B00008107F3E4141413E7F090909063E4151F6
:1004C000215E7F09192946264949493203017F01E6
:1004D000033F4040403F1F2040201F3F4038403FE7
:1004E000631408146303047804036159494D4300FD
:1004F0007F4141410204081020004141417F040234
:1005000001020440404040400003070800205454CA
:1005100078407F28444438384444442838444428A8
:100520007F385454541800087E090218A4A49C78FB
:100530007F0804047800447D40002040403D007F57
:100540001028440000417F40007C047804787C0837
:100550000404783844444438FC182424181824240B
:1005600018FC7C08040408485454542404043F44F0
:10057000243C4040207C1C2040201C3C4030403C1F
:1005800044281028444C9090907C4464544C44007F
:1005900008364100000077000000413608000201E3
:1005A0000204023C2623263C1EA1A161123A4040CF
:1005B000207A38545455592155557941225454784C
:1005C00042215554784020545579400C1E527212E5
:1005D000395555555939545454593955545458006E
:1005E00000457C410002457D420001457C407D1272
:1005F00011127DF0282528F07C54554500205454D4
:100600007C547C0A097F4932494949323A4444447E
:100610003A324A4848303A4141217A3A42402078B9
:10062000009DA0A07D3D4242423D3D4040403D3CBA
:1006300024FF2424487E4943662B2FFC2F2BFF09DF
:1006400029F620C0887E09032054547941000044D3
:100650007D413048484A32384040227A007A0A0ABE
:10066000727D0D19317D2629292F28262929292631
:1006700030484D4020380808080808080808382F76
:1006800010C8ACBA2F102834FA00007B0000081400
:100690002A142222142A14085500550055AA55AAD6
:1006A00055AAFF55FF55FF000000FF00101010FF76
:1006B00000141414FF001010FF00FF1010F010F0D1
:1006C000141414FC001414F700FF0000FF00FF14C2
:1006D00014F404FC141417101F10101F101F14140E
:1006E000141F00101010F0000000001F1010101058
:1006F0001F10101010F010000000FF10101010104C
:1007000010101010FF10000000FF140000FF00FF89
:1007100000001F10170000FC04F414141710171425
:1007200014F404F40000FF00F71414141414141447
:10073000F700F7141414171410101F101F141414BA
:10074000F4141010F010F000001F101F0000001F24
:1007500014000000FC140000F010F01010FF10FF57
:10076000141414FF141010101F00000000F010FFEC
:10077000FFFFFFFFF0F0F0F0F0FFFFFF00000000D0
:1007800000FFFF0F0F0F0F0F3844443844FC4A4A54
:100790004A347E02020606027E027E026355494109
:1007A000633844443C04407E201E2006027E020240
:1007B00099A5E7A5991C2A492A1C4C7201724C3054
:1007C0004A4D4D303048784830BC625A463D3E492B
:1007D0004949007E0101017E2A2A2A2A2A44445FCF
:1007E000444440514A444040444A51400000FF01C3
:1007F00003E080FF000008086B6B083612362436D1
:10080000060F090F06000018180000001010003035
:1008100040FF0101001F01011E00191D1712003CBD
:100820003C3C3C0000000000000103070F1F3F7F1D
:100830000080C0E0F0F8FCFE556E6B6E6F776E20A6
:100840006572726F720041204D49464152452050F9
:1008500049434320726573706F6E646564207769E5
:100860007468204E414B2E00546865204352435F0C
:100870004120646F6573206E6F74206D61746368CE
:100880002E00496E76616C696420617267756D65D2
:100890006E742E00496E7465726E616C20657272A2
:1008A0006F7220696E2074686520636F64652E2006
:1008B00053686F756C64206E6F742068617070652A
:1008C0006E2E004120627566666572206973206E27
:1008D0006F742062696720656E6F7567682E0054BB
:1008E000696D656F757420696E20636F6D6D756ECF
:1008F00069636174696F6E2E00436F6C6C69736914
:100900006F6E2064657465637465642E0045727251
:100910006F7220696E20636F6D6D756E69636174AF
:10092000696F6E2E00537563636573732E00DB4031
:10093000A4A62EAF2000A1C8D300408DAED580A8BC
:100940000000600000000000000000000000000047
:1009500000E00000000000000000000000000001B6
:10096000E00000000000000000000000000001F0B6
:100970000000000000000000000000000003F00084
:1009800000000000000000000000000007F0000070
:10099000000000000000000000000007F800000058
:1009A000000000000000000000000FF8000000033D
:1009B000C0007E000001E0007F0FF800000003C0CF
:1009C00000FE000001E000FFEFF800000003C0009F
:1009D000FE000001E000FFFFF800000003C000F08F
:1009E0000000000F007FFE7FC0000003C000F00089
:1009F00000000F003FFE7FF83FF1FBCFFCFEF3BC91
:100A00003DEFE01FFE7FFF7FFBFFDFFEFEFFBC3DF3
:100A1000EFE01FC6FFFF7FFBFFDFFEFEFFBC3DEFE9
:100A2000E00FE3C7FE787BC3DE1EF0FFBC3DEF00A6
:100A300007FF87FC787BC3DE1EF0F83C3DEF00012A
:100A4000FFFFF0007BC3C01EF0F03C3DEF0001F360
:100A50007FE03FFBC3CFFEF0F03C3DEF0003E33F00
:100A6000807FFBC3DFFEF0F03C3DEF0007E73C007A
:100A7000787BC3DE1EF0F03C3DEF0007FFBE007840
:100A80007BC3DE1EF0F03C3DEF0007FFFE00787BED
:100A9000C3DE1EF0F03C3DEF000FFFFE007FFBFFCA
:100AA000DFFEF0F03FFDEFE00FFFFF007FFBFFDF19
:100AB000FEF0F03FFDEFE00FF9FF003E79F9CF9E29
:100AC000F0F01F3DE7E01FF1FF0000000000000014
:100AD00000000000001F80FF007FFFFFFFFFFFFFFF
:100AE000FFFFFFE01C007F007FFFFFFFFEB46D886B
:100AF0008D18E000001F007FFFFFFFFE95AD7DB564
:100B000077E000000F007FFFFFFFFEA5AD9D8D1970
:100B1000E0000006007FFFFFFFFEB5ADEDB57EE013
:100B20000000000000018000000000000000000044
:100B3000038000000000000000000007C00000006B
:100B400000000000000007C00000000000000000DE
:100B5000000FC00000000000000000001FE00000C7
:100B6000000000000000001FE00000000000000086
:100B700000003FE00000000000000000003FF00027
:100B800000000000000000007FF0000000000000F6
:100B9000001FF87FF0000000000000003FFE7FF023
:100BA000000000000000003FFF7FF0000000000098
:100BB00000001FFFFBE0000000000000000FFFF935
:100BC000FFC00000000000000FFFF9FFF800000068
:100BD00000000007FFF1FFFF00000000000003FC21
:100BE00073FFFF80000000000001FE3FFFFF800058
:100BF0000000000000FF1E0FFF00000000000000CA
:100C00007FFE1FFC000000000000003FFFFFF80017
:100C10000000000000000FDFFFE000000000000007
:100C2000001F19FFC0000000000000003F3CFF0053
:100C3000000000000000007E7CF8000000000000C2
:100C400000007FFE7C0000000000000000FFFFFCB1
:100C50000000000000000000FFFFFE000000000098
:100C6000000000FFFFFE0000000000000001FFEF99
:100C7000FE0000000000000001FFCFFE00000000A9
:100C800000000003FF07FE0000000000000003FC5E
:100C900007FE0000000000000003F003FE0000005B
:100CA00000000000018000FE0000000000000000C5
:100CB00000007E000000000000000000003E000078
:100CC00000000000000000000C0000000000000711
:100CD0008000FC000003C0000000078001FC000051
:100CE00003C0000000078001FC000003C0000000FA
:100CF000078001E00000001E000000078001E00006
:100D000000001E007FE3F79FF9FDE7787BDFC0FF5F
:100D1000F7FFBFFDFDFF787BDFC0FFF7FFBFFDFDE5
:100D2000FF787BDFC0F0F787BC3DE1FF787BDE001A
:100D3000F0F787BC3DE1F0787BDE0000F787803D6F
:100D4000E1E0787BDE007FF7879FFDE1E0787BDEE6
:100D500000FFF787BFFDE1E0787BDE00F0F787BC9E
:100D60003DE1E0787BDE00F0F787BC3DE1E0787B99
:100D7000DE00F0F787BC3DE1E0787BDE00FFF7FFA7
:100D8000BFFDE1E07FFBDFC0FFF7FFBFFDE1E07FDC
:100D9000FBDFC07CF3F39F3DE1E03E7BCFC0000072
:100DA000000000000000000000FFFFFFFFFFFFFF4A
:100DB000FFFFFFC0FFFFFFFFFD68DB111A31C0FF1F
:100DC000FFFFFFFD2B5AFB6AEFC0FFFFFFFFFD4B4C
:100DD0005B3B1A33C0FFFFFFFFFD6B5BDB6AFDC0AF
:100DE0005353443133303620616C6C6F63617469E6
:100DF0006F6E206661696C65640057616974696E25
:100E00006720666F72206120636172642E2E2E004F
:100E100054696D653A200000002100240027002A53
:100E2000002D003000330001010000040107010A19
:100E30000100002200250028002B002E0031003484
:100E40000002010000050108010B01000020002341
:100E500000260029002C002F0032000001000003B2
:100E6000010601090105050505070508080808022E
:100E70000202020A0A080804040404010101010133
:100E80000101010303030303030303040707070C22
:100E90000C0C0C0C0C0C0C020202020606060606D8
:100EA0000606060B0B0B0B0B0B0B0B010210202085
:100EB00008081020401020408002010201080402AE
:100EC0000101020408102040808040201008040224
:100ED000018004020180402010080402010804027D
:100EE0000101020408102040800102040810204083
:100EF0008000000A0B02090C0D0E08070304010014
:100F000000000000000000000000000000000000E1
:100F1000000000000000000000000000001211109E
:100F200000000000000000000000000000000000C1
:100F3000000000000000002200FF21005C29503367
:100F400011241FBECFEFD1E2DEBFCDBF00E00CBF4A
:100F500015E0A0E0B2E0E2ECFAE600E00BBF02C070
:100F600007900D92A23AB107D9F728E0A2EAB5E0BE
:100F700001C01D92A43FB207E1F717E0CFE9D7E027
:100F800000E006C021970109802FFE010E94F23384
:100F9000CE39D10780E00807A9F70E94392A0C94BE
:100FA0004F350C9400008F929F92AF92BF92FF92A8
:100FB0000F931F93CF93DF93F0909D082FE22F158F
:100FC00008F44CC020919F0808E512E0021B1109AB
:100FD00027FD1395000F111F000F111F20919E0870
:100FE000C8E8D0E0C21BD10927FDD395CC0FDD1F87
:100FF000CC0FDD1F4E010D2E000CAA08BB08980176
:10100000012E000C440B550B281939094A095B09BC
:10101000DC010E94893324EB30E040E050E00E9484
:101020005F33820E931EA41EB51E8C169D062CF0F7
:10103000E801801691060CF4E4012297CC0FDD1F25
:101040002FB7F8948F2D90E0FC01EE0FFF1FE80FF3
:10105000F91FE45FF74FD283C1832FBFDF91CF9198
:101060001F910F91FF90BF90AF909F908F90089528
:101070008F929F92AF92BF92CF92DF92EF92FF92A8
:101080000F931F93CF93DF936B017C018CE3882E2A
:10109000912CA12CB12CC701A50194010E94913380
:1010A00060935B07CA01B901A50194010E949133C5
:1010B00060935C07C701B60120E13EE040E050E0EC
:1010C0000E949133CA01B90128E130E040E050E0CC
:1010D0000E94913360935D07C701B60120E831E5B6
:1010E00041E050E00E94913369017A01CA01B901DF
:1010F0006C5F7F4F8F4F9F4F27E030E040E050E024
:101100000E9491336F5F60935E07812C912C540194
:1011100040E0C4E6D0E000E911E0242F30E02E5496
:10112000384FF901E370FF273097F9F4C901BE0188
:101130000E94DE33892B31F4C901B8010E94DE33ED
:10114000892B99F48EE691E0A0E0B0E0880E991E1C
:10115000AA1EBB1ED501C401AA27BB27C816D906E3
:10116000EA06FB0638F04F5FD8CF8DE691E0A0E0AD
:10117000B0E0ECCF40936107C90164E670E00E94E3
:10118000DE33EC01C90160E971E00E94DE33309783
:1011900021F42097D9F40097C9F04DE651E060E0C2
:1011A00070E0841A950AA60AB70AC818D908EA088E
:1011B000FB08ADEBB2E020E0213069F4309789F50F
:1011C000209711F4009769F54DE106C04EE651E015
:1011D00060E070E0E6CF4C9150E070E060E031E01C
:1011E000320FC416D506E606F70640F0C41AD50A33
:1011F000E60AF70A1196232F3C30F1F62F5F209371
:101200006007C394C0925F07DF91CF911F910F9148
:10121000FF90EF90DF90CF90BF90AF909F908F9016
:1012200008954CE1D9CF08958150823108F05AC019
:10123000E82FF0E08827E05EF64F8F4F0C94F233F2
:1012400040094409320938093C09720947094D0926
:10125000510957095B095F096509690972096D0937
:1012600073097709809180008F77809380000895BB
:10127000809180008F7DF9CF80918000877FF5CFAE
:1012800084B58F7784BD089584B58F7DFBCF809121
:10129000B0008F778093B00008958091B0008F7D6B
:1012A000F9CF809190008F7780939000089580917E
:1012B00090008F7DF9CF80919000877FF5CF80914E
:1012C000A0008F778093A00008958091A0008F7D6B
:1012D000F9CF8091A000877FF5CF809120018F7793
:1012E000809320010895809120018F7DF9CF809116
:1012F0002001877FF5CFCF93DF93282F30E0F901CE
:10130000EF50F14F8491F901E555F14FD491F90176
:10131000EB59F14FC491CC23A1F081110E94140923
:10132000EC2FF0E0EE0FFF1FE55BF14FA591B491BC
:10133000EC91ED2381E090E009F480E0DF91CF9122
:10134000089580E090E0FACF1F93CF93DF93282F8A
:1013500030E0F901EF50F14F8491F901E555F14F7B
:10136000D491F901EB59F14FC491CC23A9F0162F78
:1013700081110E941409EC2FF0E0EE0FFF1FEF5CCB
:10138000F14FA591B4918FB7F894EC91111108C069
:10139000D095DE23DC938FBFDF91CF911F9108950D
:1013A000DE2BF8CFCF93DF9390E0FC01E555F14FB2
:1013B00024918B59914FFC0184918823C9F090E0CE
:1013C000880F991FFC01E95EF14FA591B491FC01D2
:1013D000EF5CF14FC591D49161110DC09FB7F894A6
:1013E0008C91209582238C938881282328839FBF0A
:1013F000DF91CF910895623051F49FB7F8943C91FA
:10140000822F809583238C93E8812E2BEFCF8FB78B
:10141000F894EC912E2B2C938FBFEACF3FB7F89422
:1014200080913B0790913C07A0913D07B0913E070A
:1014300026B5A89B05C02F3F19F00196A11DB11D2F
:101440003FBFBA2FA92F982F8827BC01CD01620F6B
:10145000711D811D911D42E0660F771F881F991F26
:101460004A95D1F708958F929F92AF92BF92CF92F3
:10147000DF92EF92FF924B015C010E940E0A6B011A
:101480007C010E940E0A6C197D098E099F09683E35
:10149000734081059105A8F321E0821A9108A10803
:1014A000B10888EEC80E83E0D81EE11CF11C81143F
:1014B0009104A104B10429F7FF90EF90DF90CF9041
:1014C000BF90AF909F908F9008952FB7F894609140
:1014D0003707709138078091390790913A072FBFED
:1014E00008950895089580E991E00895EF92FF929C
:1014F0000F931F93CF93DF938C017B01D0E0C0E06B
:10150000F701EC0FFD1F6491662361F0D801ED91A6
:10151000FC910190F081E02DC8011995892B11F003
:101520002196EECFCE01DF91CF911F910F91FF90C9
:10153000EF900895AF92BF92CF92DF92EF92FF9219
:101540000F931F93CF93DF936C017B018B01040FEB
:10155000151FEB015E01AE18BF08C017D10759F087
:101560006991D601ED91FC910190F081E02DC601C9
:101570001995892B79F7C501DF91CF911F910F91B3
:10158000FF90EF90DF90CF90BF90AF900895FC0157
:10159000538D448D252F30E0842F90E0821B930BD8
:1015A000541710F0CF96089501970895FC01918D7E
:1015B000828D981761F0A28DAE0FBF2FB11D5D9681
:1015C0008C91928D9F5F9F73928F90E008958FEF23
:1015D0009FEF0895FC01918D828D981731F0828DD7
:1015E000E80FF11D858D90E008958FEF9FEF08952E
:1015F000FC01918D228D892F90E0805C9F4F821B92
:1016000091098F739927089582E697E00E94F80A5E
:1016100021E0892B09F420E0822F0895FC01A48D9C
:10162000A80FB92FB11DA35ABF4F2C91848D90E004
:1016300001968F739927848FA689B7892C93A089E7
:10164000B1898C91837080648C93938D848D981371
:1016500006C00288F389E02D80818F7D8083089504
:10166000EF92FF920F931F93CF93DF93EC0181E0F2
:10167000888F9B8D8C8D98131AC0E889F989808199
:1016800085FF15C09FB7F894EE89FF896083E889CC
:10169000F98980818370806480839FBF81E090E0BE
:1016A000DF91CF911F910F91FF90EF900895F62E4B
:1016B0000B8D10E00F5F1F4F0F731127E02E8C8DE5
:1016C0008E110CC00FB607FCFACFE889F98980812A
:1016D00085FFF5CFCE010E940E0BF1CFEB8DEC0F05
:1016E000FD2FF11DE35AFF4FF0829FB7F8940B8F47
:1016F000EA89FB8980818062CFCFCF93DF93EC01B1
:10170000888D8823B9F0AA89BB89E889F9898C91E9
:1017100085FD03C0808186FD0DC00FB607FCF7CFA5
:101720008C9185FFF2CF808185FFEDCFCE010E94A5
:101730000E0BE9CFDF91CF91089580E090E0892BE7
:1017400029F00E94040B81110E94000080E090E0CB
:10175000892B49F080E090E0892B29F00E9400005D
:1017600081110E94000080E090E0892B49F080E028
:1017700090E0892B29F00E94000081110E94000056
:1017800080E090E0892B49F080E090E0892B29F0FF
:101790000E94000081110C9400000895BC016E5F4E
:1017A0007F4FDC01ED91FC910190F081E02D40E054
:1017B000199591E0811190E0892F08958430F1F01E
:1017C00050F4813091F030F1823091F0833099F013
:1017D00088E398E008958630B9F098F08730B9F042
:1017E0008F3FB1F786E498E008958DE099E0089581
:1017F00089EF98E008958FED98E0089583EC98E0E4
:10180000089584E998E0089582E898E0089588E6CC
:1018100098E0089585E299E00895EF92FF920F9382
:101820001F93CF93DF93EC01EC80FD806E157F0555
:101830000CF070C057FF04C0240F351F50E040E08B
:101840008E819F81FA01E20FF31F8E179F071CF410
:101850009C01241B350B121613060CF05BC0922F53
:10186000842F8695869586958E9DD0018F9DB00D8F
:1018700011246A0F7B1FAF8DB8A1A60FB71F477049
:1018800049F188E0841B482F682F70E0FB01E05D80
:10189000F74FE491281708F063C0621B71092FEF1E
:1018A00030E002C0359527956A95E2F7E2230130D2
:1018B000110539F0B0F10230110561F58C91E8277E
:1018C00002C08C91E82BEC93941720F12C813D8180
:1018D000A20FB31FE92FE41BE83078F002301105A6
:1018E00021F58E2F9C9190959C932C813D81A20F88
:1018F000B31F88508830B0F7E770EE2359F0F0E05E
:10190000E85DF74FE49101301105F9F010F1023074
:10191000110519F1DF91CF911F910F91FF90EF9079
:101920000895E0958C91E823CECF81E00115110553
:1019300009F480E081959E2F8C932C813D81A20F2C
:10194000B31F98509830C0F7D7CF8C91E82BEC9309
:10195000E1CFE0958C91E823FACF8C91E827F7CF7F
:101960000130110509F4ADCFE0F20230110509F4A0
:10197000A5CFAE0DBF1DAECF0F931F93CF93DF93B7
:1019800077FF04C0260F371F70E060E0DC0114967B
:10199000CD91DC91FB01E20FF31FCE17DF071CF4A2
:1019A0009E01261B370B121613064CF5FA0157FD44
:1019B0003796A3E0F595E795AA95E1F7EC9FD0015E
:1019C000ED9FB00DFC9FB00D11246A0F7B1FDC0151
:1019D0005F96ED91FC91E60FF71F4770552781E068
:1019E00090E001C0880F4A95EAF7482F01301105B1
:1019F00059F0A8F02E0F3F1F02301105E1F0DF91E2
:101A0000CF911F910F9108952E0F3F1FE217F307FB
:101A1000B1F38191DF011197842B8C93F7CF8095DF
:101A20002E0F3F1FE217F30751F39191DF0111973A
:101A300098239C93F7CFE217F30709F38191DF0115
:101A4000119784278C93F7CF0F931F93FA01DC0132
:101A500056964C9156974230E9F04330A1F141300F
:101A600061F514964D915C91DA01AE1BBF0BFD013F
:101A7000E21BF30B77FD0BC0DC0116964D915C91D8
:101A80006417750724F4AB01BF010E94BC0C1F91C1
:101A90000F91089514964D915C91DA01A61BB70B36
:101AA000BD0161507109DC0116964D915C91DA011E
:101AB000AE1BBF0BFD01E21BF30B77FDE8CFAF01BF
:101AC0000E940D0CE4CF16964D915C91DA01A61B95
:101AD000B70BBD0161507109CDCF0F931F93FA0170
:101AE000DC0156964C9156974230A9F0433091F163
:101AF000413019F514964D915C91DA01AE1BBF0B84
:101B0000FD013197F7FD04C0AB01BF010E940D0C30
:101B10001F910F91089514964D915C91DA01A61BC7
:101B2000B70BBD01DC0116964D915C91DA01AE1B3D
:101B3000BF0BFD013197621B730BF7FDE9CFDC0191
:101B400016964D915C91E417F50714F7AF010E94CA
:101B5000BC0CDECF16964D915C91DA01A61BB70B3B
:101B6000BD01621B730BCECFFC0177FD64C0808585
:101B70009185681779070CF05EC057FD5CC08285BF
:101B80009385481759070CF056C086898230B1F00A
:101B9000833029F1813041F484819581841B950B38
:101BA000AB01BC01615071092130310509F108F424
:101BB00043C02230310509F463C0089584819581C2
:101BC000DC01A61BB70BBD016150710986819781AD
:101BD000DC01A41BB50BAD0141505109E5CF868155
:101BE0009781861B970BBA01AC0141505109DCCF9C
:101BF000CA0157FD0796A3E095958795AA95E1F749
:101C0000A481B5818A9F90018B9F300D9A9F300DE2
:101C10001124620F731F078CF0A1E02DE60FF71F50
:101C20004770552721E030E001C0220F4A95EAF7BE
:101C30008081822B80830895CA0157FD079633E087
:101C4000959587953A95E1F7A481B5818A9F900192
:101C50008B9F300D9A9F300D1124620F731F078CDC
:101C6000F0A1E02DE60FF71F4770552781E090E0C7
:101C700001C0880F4A95EAF7809590818923DACFD1
:101C8000CA0157FD079623E0959587952A95E1F7B8
:101C9000A481B5818A9F90018B9F300D9A9F300D52
:101CA0001124620F731F078CF0A1E02DE60FF71FC0
:101CB0004770552721E030E001C0220F4A95EAF72E
:101CC00080818227B7CF08958EBD00000DB407FE36
:101CD000FDCF8EB508958CBD9DBD0895DF92EF9226
:101CE000FF920F931F93CF93DF937C01062FD42E87
:101CF000152F80E590E00E946B0E60E0F70186856D
:101D00000E94A40982E10E94640ECD2DD12F0C0FF8
:101D10001D2F111DC017D10721F089910E94640E5B
:101D2000F9CF61E0F7018685DF91CF911F910F9187
:101D3000FF90EF90DF900C94A4091F93CF93DF9353
:101D4000EC01162F80E590E00E946B0E60E08E851E
:101D50000E94A409812F80680E94640E80E00E9486
:101D6000640E182F61E08E850E94A409812FDF91F7
:101D7000CF911F9108950F931F93CF93DF93EC01A1
:101D8000062F142F80E590E00E946B0E60E08E8598
:101D90000E94A409802F0E94640E812F0E94640E6D
:101DA00061E08E85DF91CF911F910F910C94A40972
:101DB000CF92DF92EF92FF920F931F93CF93DF9317
:101DC000EC016B01F42E890140E062E00E94BB0E41
:101DD00044E06AE0CE010E94BB0E40E864E1CE011F
:101DE0000E94BB0EA6016F2DCE010E946E0E43E035
:101DF00062E0CE010E94BB0E0E94650A6B017C016D
:101E000029E5C20ED11CE11CF11C6AE0CE010E9442
:101E10009D0E82FF1BC040E062E0CE010E94BB0E1F
:101E200064E4CE010E949D0EF801808362E4CE013D
:101E30000E949D0EF801818380E0DF91CF911F9178
:101E40000F91FF90EF90DF90CF9008950E94650A68
:101E50006C157D058E059F05C0F283E0EECF2F92B5
:101E60003F924F925F926F927F928F929F92AF922A
:101E7000BF92CF92DF92EF92FF920F931F93CF9377
:101E8000DF931F921F92CDB7DEB73C01162F942E21
:101E9000290180E0A114B10411F0F5018081382CF2
:101EA000329490EF3922380E40E062E0C3010E9484
:101EB000BB0E4FE768E0C3010E94BB0E40E864E13F
:101EC000C3010E94BB0EA201602FC3010E946E0ECF
:101ED000432D6AE1C3010E94BB0E412F62E0C301A2
:101EE0000E94BB0E1C3051F46AE1C3010E949D0E9A
:101EF000482F40686AE1C3010E94BB0E0E94650A38
:101F00001B012C01F4E22F0E311C411C511C68E016
:101F1000C3010E949D0E982F992109F0B6C080FF41
:101F200016C083E00F900F90DF91CF911F910F911A
:101F3000FF90EF90DF90CF90BF90AF909F908F90E9
:101F40007F906F905F904F903F902F9008950E94E8
:101F5000650A6215730584059505C8F2E2CFE114A0
:101F6000F10409F467C0C114D10409F463C064E149
:101F7000C3010E949D0E982EF6018081891508F4F8
:101F80007EC090829920C9F180E590E00E946B0E9E
:101F900060E0F30186850E94A4099A9482E90E9478
:101FA000640E882099F00FEF10E001C0000F8A94B2
:101FB000EAF782E90E94640E902F9095F701208144
:101FC00092238023982B9083882483948701080D83
:101FD000111D891440F482E90E94640EF801819376
:101FE0008F018394F6CF80E00E94640EF801808315
:101FF00061E0F30186850E94A40968E1C3010E94A3
:102000009D0E8770A114B10411F0F501808353FC7B
:1020100038C0E114F104B9F1C114D104A1F1988DD3
:10202000992389F1F6014081413031F4843029F55A
:102030008FEF78CF80E0EBCF4230F8F081111DC0F8
:1020400042509E012F5F3F4FB701C3010E94D80E3F
:10205000811168CFF6019081E90EF11CF7013297EA
:1020600020819981291309C0F1E0EF1AF108F701E5
:1020700020819A81291709F455CF87E053CF84E056
:1020800051CF82E04FCF80E04DCF6CE0C3010E9482
:102090009D0E582E837109F462CF81E043CF8F9259
:1020A000AF92BF92CF92DF92EF92FF920F93CF93B6
:1020B000DF93CDB7DEB72C970FB6F894DEBF0FBE17
:1020C000CDBF90E699838A83E1E5F7E0DE011396C0
:1020D00081918D9387E0E735F807D1F7E091A20869
:1020E000E150FF0BE056F74FDE011996CE010D9639
:1020F00021912D93A817B907D9F71F92812CB12CE4
:10210000A12CD12CC12CF12CE12C0CE09E012F5FD5
:102110003F4F40E16EE080EA98E00E942F0F0F9061
:102120002C960FB6F894DEBF0FBECDBFDF91CF91D6
:102130000F91FF90EF90DF90CF90BF90AF908F9076
:1021400008956F927F928F92AF92BF92CF92DF925B
:10215000EF92FF920F93CF93DF9300D01F921F92C5
:10216000CDB7DEB73C0182E08D8340E064E2C3017D
:102170000E94BB0E40E066E2C3010E94BB0E46E235
:1021800068E4C3010E94BB0E86E28B838D8182309E
:10219000F0F16CE1C3010E949D0E482F4F776CE176
:1021A000C3010E94BB0E87E08C831F92812CCE015D
:1021B00004965C0101966C0104977C0101E09E018C
:1021C0002D5F3F4F40E36CE0C3010E942F0F982F1B
:1021D0000F90811119C08D818230C9F48C818111D9
:1021E00016C081E00F900F900F900F900F90DF912D
:1021F000CF910F91FF90EF90DF90CF90BF90AF9075
:102200008F907F906F90089581E0923059F380E035
:10221000E9CF2F923F924F925F926F927F928F926F
:102220009F92AF92BF92CF92DF92EF92FF920F9365
:102230001F93CF93DF93CDB7DEB72E970FB6F894E9
:10224000DEBF0FBECDBF06E0413508F04BC14E8763
:102250002B013C016CE10E949D0E482F4F776CE1F1
:10226000C3010E94BB0E83E989832E85222329F0B6
:1022700081E0F2019081953008F480E099249394F4
:102280001C869C85990F990F990F1E85191B17FDA8
:1022900010E032E0882319F098E89B8333E021E0D6
:1022A000912F977009F420E0912F9595959595952C
:1022B000290FD1F094E0811193E0291708F4922FAF
:1022C0002C85E22FF0E03196E40DF51D232F41918E
:1022D000A1E0B0E0AC0FBD1FA20FB11D4C932F5F6A
:1022E000422F431B491798F38111185F10320CF4E9
:1022F00084C080E78A838B819C8189279D8189277F
:102300009E8189278F839E01285F3F4F47E0BE0152
:102310006F5F7F4FC3010E94D80E082F8111E2C06A
:102320001A8693E09B871D87FE0137961F0109E0FF
:102330008A84482D4295407F480D6AE1C3010E947E
:10234000BB0E1F92CE010A965C01FE013B966F0107
:1023500071019E012F5F3F4F40E36CE0C3010E947B
:102360002F0F082F0F90823009F065C06CE1C30178
:102370000E949D0E85FDB6C08F7109F480E2282F62
:1023800030E0412F110F550B421753070CF09EC040
:10239000182FE22FE595E595E595EF5F922F977061
:1023A00081E009F480E0E80F81E090E08C0F9D1F50
:1023B0008E0F911DFC01215031092770332781E0D8
:1023C00090E002C0880F991F2A95E2F79C01808156
:1023D000822B80838BCF85E98983FE85FF2331F0B3
:1023E00081E0F2019081983008F04BCF80E049CF36
:1023F00087E98983F6E0FC87F9CF912F97709A8758
:10240000812F8595859585958E5F282F2295207F34
:10241000290F2A8301E0911101C000E0080F222456
:102420002394312C2C0E3D1E280E311CF9E0F81B94
:10243000FB871D877DCF811155C010E29D859032AD
:102440000CF457CF8B81883809F042C083E093E0C9
:102450002C85E22FF0E03196E40DF51D980FA1E0F8
:10246000B0E0AC0FBD1FA80FB11D2C9121938F5F61
:102470008913F5CF8B858C87833009F04DC08A8511
:1024800081114AC09E012D5F3F4F41E0B101C30160
:102490000E94D80E082F811125C09B81F1018181F6
:1024A00098133CC09C818281981338C0808182FF40
:1024B00012C09394F2E09F1609F48DCF23E0921698
:1024C00009F496CF81E0981609F4CDCE05E00AC054
:1024D00082E094E0BDCFF2018387892D880F980EAA
:1024E00093949082802F2E960FB6F894DEBF0FBE85
:1024F000CDBFDF91CF911F910F91FF90EF90DF90B3
:10250000CF90BF90AF909F908F907F906F905F9093
:102510004F903F902F90089501E0E4CF07E0E2CF85
:102520000895FC016370668B8481958126813781D3
:10253000613039F0633029F09187808733872287B3
:102540000895318720879387828708952F923F923D
:102550004F925F926F927F928F929F92AF92BF92B3
:10256000CF92DF92EF92FF920F931F93CF93DF935F
:10257000CDB7DEB76A970FB6F894DEBF0FBECDBFFA
:102580009A8F898F7A8369834A01D22E18870F83A5
:102590003701BC2CDC0159962D913C915A9721159D
:1025A000310509F015C118968D919C9119976817FE
:1025B00079070CF0D7C11A968D919C91481759074D
:1025C0000CF0D0C14C2C512CB6E0CB9E600D711D8F
:1025D00011247C876B87161617060CF0C3C1EA2DF1
:1025E000F0E0FA87E98793E0EE0FFF1F9A95E1F795
:1025F000F88BEF87CF01840F951F181619060CF082
:10260000B1C1A98DBA8D58968C91811104C0BFEAD1
:10261000BD1508F4D394A98DBA8DED91FC91119755
:102620000284F385E02DCD011995B5E0DB9EC00154
:102630001124E981FA81FC83EB83312C212C9C014C
:10264000285D3C4F388F2F8B4A2D50E05E8B4D8B91
:10265000EF89F88DE20DF31D44919E828D82D12C7D
:10266000C12C69817A81620D731D7A8B698B842FED
:1026700090E09C8B8B8BE98DFA8DA081B18140FF1E
:1026800082C0F1E0BF126FC0AF126DC01C96ED9119
:10269000FC912F813885A4014C0D5D1D69897A89D3
:1026A000898D9A8D1995EB89FC89F595E7954E2FC3
:1026B0005FEFC51AD50A6D817E818D899E89680F6D
:1026C000791F7E836D8398E0C916D10481F6AFEF40
:1026D0002A1A3A0AEB81FC81E40DF51DFC83EB8399
:1026E000F5E02F16310409F0B3CF2F813885261578
:1026F0003705B9F0A98DBA8DED91FC91B1E0BB120F
:1027000057C0AB1255C069817A816B5F7F4F0088DB
:10271000F189E02D830128E030E0A401898D9A8DB4
:102720001995A98DBA8DED91FC9111970688F789BD
:10273000E02DCD016A960FB6F894DEBF0FBECDBF77
:10274000DF91CF911F910F91FF90EF90DF90CF908D
:10275000BF90AF909F908F907F906F905F904F90C1
:102760003F902F9019941E96ED91FC91EF80F88484
:1027700009851A8592014D815E816B817C81898DED
:102780009A8D199590CF2F8138852615370509F434
:102790008ACF31E0B31207C0A31205C01C96ED9199
:1027A000FC91930178CF1E96ED91FC917301E0CFDF
:1027B0006B857C85641975090684F785E02D7301A6
:1027C0000F8518899201A401898D9A8D1995A9CF39
:1027D000F90134969491329745915491D91AB7E002
:1027E000DB9E400D511D1124F901259134913C8B44
:1027F0002B8BFA0125903490FA0132967490319621
:102800003491398B329664903196449041E04C1566
:1028100018F04A1508F07FC0662D062C000C770BC7
:102820007C836B83842D042C000C990B9E838D83F9
:10283000A98DBA8DED91FC9111970284F385E02D5D
:10284000CD011995512CD12CC12CEA2DF0E0FA873D
:10285000E9872B2D30E03C872B87A401440D511DC7
:1028600047FC5A95588F4F8B69817A81660D711D8F
:1028700067FC7A957E876D877989C71608F051CFF6
:102880002C2D30E04D815E81420F531FA985BA8502
:102890004A9FC0014B9F900D5A9F900D1124FC013F
:1028A000E80DF91DF88BEF87852D612C4F89588D28
:1028B000420F531F5E8B4D8B671408F050C04424A9
:1028C0004394480E877041F4C1010196EB89FC895D
:1028D000E20DF31DD4901C01D7FE19C0A98DBA8D4D
:1028E000ED91FC91662D70E0B1E0BB1219C0AB1206
:1028F00017C02D853E85620F731F0484F585E02D7A
:102900002F8138854D895E89898D9A8D1995DD0CC9
:102910006394842DD1CF1E821D821C821B8288CF9E
:102920004B815C81640F751FAB85BC856A9FC001BC
:102930006B9F900D7A9F900D112469817A81680FA9
:10294000791F0684F785E02DEF80F88409851A85C4
:102950009D014F855889898D9A8D1995D8CF570C2F
:10296000C3948ACF6A960FB6F894DEBF0FBECDBF70
:10297000DF91CF911F910F91FF90EF90DF90CF905B
:10298000BF90AF909F908F907F906F905F904F908F
:102990003F902F9008958F929F92AF92CF92EF9297
:1029A000FF920F931F93CF93DF93EC01262F898D16
:1029B0009A8D009709F051C06A30D1F41D861C86AB
:1029C0008D8948E0849F900111248E859F85820F18
:1029D000931F9F878E8781E090E0DF91CF911F91B9
:1029E0000F91FF90EF90CF90AF909F908F900895B0
:1029F0006D3089F3CC88AD888F898823C1F08C85B0
:102A00009D8536E0C39E800D911D11244885598512
:102A10004817590764F44E855F851D861C8638E08B
:102A2000A39EC0011124840F951F9F878E87EA887B
:102A3000FB88088919894E855F856C857D85CE0167
:102A40000E94A6122C898C859D8546E0249F800DCE
:102A5000911D11249D878C87BECF6A3069F41D8635
:102A60001C86FC013896E4912D898E859F85E29F16
:102A7000800D911D1124ADCF6D3009F4ACCFFC0158
:102A800034963491631708F4A6CF3296E491E61792
:102A900008F4A1CFFC01329685909490462F431BF9
:102AA000342F47E0349F800C911C1124F40132969E
:102AB00034913196E4913323A9F1EE2399F1CC8836
:102AC000F4013596E491AD884F89442301F10E2E2F
:102AD000000CFF0BE30FF11DCE9EA001CF9E500D09
:102AE00011246C857D85460F571F6885798564178D
:102AF00075076CF44E855F851D861C86FC01389633
:102B0000E491AE9E400D511D11245F874E87EA88E7
:102B1000FB88088919894E855F856C857D85CE0186
:102B20000E94A612F4013496E4912C898C859D852F
:102B3000E29F800D911D11248DCF6F927F928F9215
:102B40009F92AF92BF92CF92DF92EF92FF920F933C
:102B50001F93CF93DF93EC016B015A0139014801B8
:102B6000E881F9810284F385E02D1995E881F981E6
:102B70000288F389E02D87019301A501B601CE01FA
:102B80001995A501480D591D41505109E881F98158
:102B90000288F389E02D9301B601CE011995E881F1
:102BA000F9810088F189E02D9401A501B601CE01DB
:102BB0001995C60CD71CB60161507109E881F981DD
:102BC0000088F189E02D9401A501CE011995E881D5
:102BD000F9810688F789E02DCE01DF91CF911F9111
:102BE0000F91FF90EF90DF90CF90BF90AF909F90AC
:102BF0008F907F906F9019946F927F928F929F9297
:102C0000AF92BF92CF92DF92EF92FF920F931F93FA
:102C1000CF93DF935C01EB016A0149013801870121
:102C2000DC01ED91FC916217730719F564167506C6
:102C30002CF0962D872D3A01C92ED82E96012619F3
:102C400037092F5F3F4F048CF58DE02DA301BE01A6
:102C5000C5011995DF91CF911F910F91FF90EF90D2
:102C6000DF90CF90BF90AF909F908F907F906F90AC
:102C700008954615570591F42617370724F0892D36
:102C80004B01C22FD82F9E01281939092F5F3F4FC2
:102C9000068CF78DE02DA601B401DACF0284F3850E
:102CA000E02D1995D501ED91FC910488F589E02D71
:102CB00083019401A601BE01C5011995D501ED91CD
:102CC000FC910688F789E02DC501DF91CF911F9116
:102CD0000F91FF90EF90DF90CF90BF90AF909F90BB
:102CE0008F907F906F901994EF92FF920F931F93A4
:102CF000DC011A960D911C911B9718962D913C9111
:102D00001997ED91FC9100A0F1A1E02D7B0150E01D
:102D100040E070E060E019951F910F91FF90EF90F7
:102D200008954F925F926F927F928F929F92AF928F
:102D3000BF92CF92DF92EF92FF920F931F93CF93A8
:102D4000DF936C012B015A0139014801DC01ED913F
:102D5000FC910284F385E02D1995E201640C751C49
:102D6000D601ED91FC91C615D7055CF40088F18978
:102D7000E02D87019401A501BE01C6011995219698
:102D8000EFCF0688F789E02DC601DF91CF911F9123
:102D90000F91FF90EF90DF90CF90BF90AF909F90FA
:102DA0008F907F906F905F904F9019948F929F9229
:102DB000AF92BF92CF92DF92EF92FF920F931F9349
:102DC000CF93DF93EC015B014A016901E881F9814E
:102DD0000284F385E02D199595012C0D3D1D2150A0
:102DE0003109E881F9810488F589E02D78018401B1
:102DF000A401B501CE011995E881F9810688F7890A
:102E0000E02DCE01DF91CF911F910F91FF90EF90B8
:102E1000DF90CF90BF90AF909F908F9019948F923A
:102E20009F92AF92BF92CF92DF92EF92FF920F9359
:102E30001F93CF93DF93EC015B014A016901780195
:102E4000E881F9810284F385E02D1995C80CD91C1D
:102E5000860101501109E881F9810488F589E02D86
:102E60009501A401B501CE011995E881F981068883
:102E7000F789E02DCE01DF91CF911F910F91FF9047
:102E8000EF90DF90CF90BF90AF909F908F9019946C
:102E9000EF92FF920F931F93DC01ED91FC9100A044
:102EA000F1A1E02D19951F910F91FF90EF900895DA
:102EB0000F931F93DC01ED91FC91068CF78DE02DB3
:102EC00019951F910F9108950F931F93DC01ED91B8
:102ED000FC91048CF58DE02D19951F910F910895AB
:102EE000DC01ED91FC910084F185E02D19943F9275
:102EF0004F925F926F927F928F929F92AF92BF920A
:102F0000CF92DF92EF92FF920F931F93CF93DF93B5
:102F10005C017B014A016901390187E0680E711C7F
:102F200093E0759467949A95E1F72B01400E511E3A
:102F300010E000E0312CD0E0C0E0CE01877099278E
:102F4000330C892B59F4FE0183E0F595E7958A95BA
:102F5000E1F7E00FF11FE80DF91D349037FE0AC0CC
:102F600021E030E0A701B5016C0F7D1F80EB98E0F8
:102F70000E9470172196CC16DD06F9F68FEFE81A3D
:102F8000F80A060D171DE414F504A9F6DF91CF9198
:102F90001F910F91FF90EF90DF90CF90BF90AF9077
:102FA0009F908F907F906F905F904F903F9008958B
:102FB0002F923F924F925F926F927F928F929F9249
:102FC000AF92BF92CF92DF92EF92FF920F931F9337
:102FD000CF93DF9300D000D0CDB7DEB73C016A01BC
:102FE0003E832D83FC82EB825801A41AB50AB7FEFA
:102FF00003C0B194A194B1088D809E80861A970A6F
:1030000097FE03C09194819491088A149B045CF00C
:10301000902F812F0D811E819D838E839C2D8D2D60
:103020006B01692F782F0C151D055CF09D818E8139
:103030007E836D83692F782F902F812F8601C92E73
:10304000D82E1601201A310A2B012D813E81421AF9
:10305000530A57FE03C0519441945108710137FE41
:1030600003C03FEFE31AF30AF594E7948D819E8144
:10307000861797075CF5A1E0B0E0BA83A983C01674
:10308000D1064CF1D301ED91FC910484F585E02D3E
:103090002B813C81A8016D817E818A149B041CF0E8
:1030A0004D815E81B801C3011995E418F508F7FE5A
:1030B0000AC02D813E8189819A81280F391F3E8364
:1030C0002D83E20CF31C0F5F1F4FD9CF2FEF3FEF83
:1030D0003A832983D4CF26960FB6F894DEBF0FBE6D
:1030E000CDBFDF91CF911F910F91FF90EF90DF90B7
:1030F000CF90BF90AF909F908F907F906F905F9098
:103100004F903F902F900895089520912D06260FFF
:103110003327331F21323105ECF420915106FC0195
:1031200090E080E0243069F082E00895A0912D06BF
:103130002191AC01435F594FA40FB52FB11D2C93C2
:103140000196861798F380912D06680F60932D06DF
:1031500080E0089581E008951092510681E0809307
:1031600053061092520661E084E10E94A40961E0D6
:1031700085E10E94A409E9EBF0E080818E7F8083E5
:1031800080818D7F808388E48093B80085E480937C
:10319000BC000895CF93DF9391E090930C068823B1
:1031A000B9F0C091B800D091BA008091BC008A7B80
:1031B0008093BC0060E084E10E94A40960E085E1A6
:1031C0000E94A4090E94AC18D093BA00C093B80022
:1031D000DF91CF910895E091A3068091A206E817B0
:1031E00030F4F0E0E951FA4F808190E008958FEFDC
:1031F0009FEF08959091A3068091A2062FEF3FEFD5
:10320000981748F4E92FF0E0E951FA4F208130E0B7
:103210009F5F9093A306C90108958091A2069091A3
:10322000A306891B990B0895CF92DF92EF92FF922C
:103230000F931F93CF93DF937C01CB018A012091E1
:103240005A07222389F0EB016B01C40ED51ECC1561
:10325000DD0569F06991D701ED91FC910190F08154
:10326000E02DC7011995F3CF642F0E948518C8017E
:10327000DF91CF911F910F91FF90EF90DF90CF9052
:103280000895CF93DF931F92CDB7DEB76983209166
:103290005A072223F9F020915707203258F021E0F5
:1032A00030E0FC013383228390E080E00F90DF91D7
:1032B000CF91089580915807E82FF0E0E953FA4F35
:1032C000998190838F5F809358078093570781E09F
:1032D00090E0ECCF61E0CE0101960E948518F7CF17
:1032E000CF92DF92EF92FF920F931F93CF93DF93D2
:1032F000D091570781E0D13208F09CC0C0915907A6
:103300000E940E0A6B017C018091510681116CC0F4
:1033100082E08093510681E0809353068FEF809383
:10332000500610927506D0937406A7ECB5E0E4E55C
:10333000F6E080E0D8138DC0109276068091760674
:10334000CC0FC82BC093760680915206813009F0CD
:1033500084C0109252060E940E0A6B017C0180917B
:1033600076068093BB008091080690910906A09193
:103370000A06B0910B06892B8A2B8B2BA1F00E9499
:103380000E0A009108061091090620910A06309154
:103390000B066C197D098E099F0906171707280768
:1033A000390708F442C08091BC0083FDD8CF85EC7A
:1033B0008093BC000E940E0A6B017C018091510633
:1033C000823009F44CC0809150068F3F09F469C0E7
:1033D00080915006803209F466C080915006803397
:1033E00009F463C084E026C0809108069091090624
:1033F000A0910A06B0910B06892B8A2B8B2B09F41E
:1034000083CF0E940E0A00910806109109062091B0
:103410000A0630910B066C197D098E099F09061763
:1034200017072807390708F06FCF809107060E9419
:10343000CA1885E0109258071092570710925A0741
:10344000DF91CF911F910F91FF90EF90DF90CF9080
:1034500008959D9191938F5F6DCF85EEA9CF809157
:10346000080690910906A0910A06B0910B06892BD7
:103470008A2B8B2B09F4A2CF0E940E0A009108061A
:103480001091090620910A0630910B066C197D09EE
:103490008E099F09061717072807390708F08ECFEE
:1034A000C4CF80E0C7CF82E0C5CF83E0C3CFEF9227
:1034B000FF920F931F93CF93DF937C01C62F8091D0
:1034C000CD089091CE08009709F459C02091D108F9
:1034D00031E030935A072093590710925807109201
:1034E0005707DC01ED91FC910190F081E02D60E047
:1034F00019958701EE24E394F12CD1E0C15080911D
:10350000CD089091CE08CF3F91F1B0E2EB16F104D7
:10351000D8F00E9470198091CD089091CE0820912A
:10352000D108D0935A072093590710925807109248
:103530005707DC01ED91FC910190F081E02D60E0F6
:103540001995EE24E394F12C8091CD089091CE084A
:10355000F8016491DC01ED91FC910190F081E02D86
:103560001995BFEFEB1AFB0A0F5F1F4FC7CFDF9113
:10357000CF911F910F91FF90EF900C947019E091F3
:10358000DD08F091DE0890818091E3088095892321
:1035900080838701C15008F438C0F80184912091DC
:1035A000CB083091CC08232B29F00E94640E0F5FCA
:1035B0001F4FF0CF28E030E040E8E091D908F091CB
:1035C000DA089091E108582F5423D9F05081952BB7
:1035D0009083E091DB08F091DC0890815091E20843
:1035E000952B9083E091DB08F091DC08508190915D
:1035F000E208909595239083469521503109E9F68C
:10360000D6CF508190959523E3CFDF91CF911F9135
:103610000F91FF90EF9008951F93CF93DF93EC01EC
:103620008D8D9E8D009721F1162F29A131E03093C9
:103630005A07209359071092580710925707DC0138
:10364000ED91FC910190F081E02D60E019958D8D58
:103650009E8DDC01ED91FC910190F081E02D612FB8
:1036600019958D8D9E8DDF91CF911F910C947019BE
:10367000ADA5BEA59C918BA9809589238C938B8D3C
:103680009C8D892B31F0862FDF91CF911F910C9467
:10369000640E28E030E080E8A9A5BAA599A9462FD4
:1036A0004823C1F04C91942B9C93ABA5BCA59C9155
:1036B0004AA9942B9C93ABA5BCA54C919AA9909533
:1036C00094239C9386952150310931F7DF91CF9156
:1036D0001F9108954C9190959423E6CFDF92EF923D
:1036E000FF920F931F93CF93DF938091CD0890911A
:1036F000CE08892B09F498C02091E5083091E6089E
:103700004091E7085091E80860E074E284EF90E0AF
:103710000E9491332051310941095109569547952D
:10372000379527952093B80065E087E39FE00E94D6
:10373000571A6091B408615080EB98E00E940C1B0E
:103740002091B6083091B708C901079697FD0796F2
:1037500033E0959587953A95E1F72091B40830913B
:10376000B508829F8001839F100D929F100D112438
:10377000C091CF08D091D0088091CD089091CE080B
:103780000C0F1D1F009709F48FC02091D10831E064
:1037900030935A07209359071092580710925707F1
:1037A000DC01ED91FC910190F081E02D60E4199530
:1037B000EE24E394F12CDD24D3948091CD089091F4
:1037C000CE080C171D0709F446C0B0E2EB16F10451
:1037D000D8F00E9470198091CD089091CE08209168
:1037E000D108D0925A072093590710925807109287
:1037F0005707DC01ED91FC910190F081E02D60E430
:103800001995EE24E394F12C8091CD089091CE0887
:103810006991DC01ED91FC910190F081E02D199509
:10382000BFEFEB1AFB0AC9CF8091CB089091CC086F
:10383000892B31F08091EE089091EF080E946B0E79
:10384000E091DF08F091E00890818091E408809594
:103850008923808369CF0E9470198091CD0890914F
:10386000CE08892B09F461C02091E9083091EA085B
:103870004091EB085091EC0860E074E284EF90E036
:103880000E949133205131094109510956954795BC
:10389000379527952093B800DF91CF911F910F9115
:1038A000FF90EF90DF900895E091DD08F091DE0841
:1038B00080819091E308892B80830C171D0769F2A2
:1038C00089912091CB083091CC08232B19F00E94CC
:1038D000640EF3CF28E030E040E8E091D908F091A1
:1038E000DA089091E108582F5423D9F05081952B94
:1038F0009083E091DB08F091DC0890815091E20820
:10390000952B9083E091DB08F091DC085081909139
:10391000E208909595239083469521503109E9F668
:10392000CCCF508190959523E3CFE091DF08F091C3
:10393000E00880819091E408892B8083ADCF1F93AC
:10394000CF93DF93EC01162F8D8D9E8D892BB1F1D6
:103950002DA93EA94FA958AD60E074E284EF90E034
:103960000E949133205131094109510956954795DB
:10397000379527952093B80066EA111167EACE01C2
:103980000E940C1B8D8D9E8D892B41F129AD3AAD86
:103990004BAD5CAD60E074E284EF90E00E94913347
:1039A0002051310941095109569547953795279579
:1039B0002093B800DF91CF911F9108958B8D9C8D3E
:1039C000892B21F08EAD9FAD0E946B0EEFA5F8A95B
:1039D00090818CA9809589238083CECFEFA5F8A90B
:1039E00080819CA9892B8083E5CF90E080E00895B9
:1039F000CF93CFB7F8948091C605811127C0EAE92B
:103A0000FEE08491E0EEFEE09491E82FF0E0EE0F0E
:103A1000FF1FE95EF14FA591B491EC91E92321F4E8
:103A200061E085E30E94A40961E085E30E94D20978
:103A30008CB580618CBD8CB580648CBD61E084E305
:103A40000E94D20961E083E30E94D2098091C605F9
:103A50008F5F8093C605CFBFCF910895AF92BF927D
:103A6000CF92DF92EF92FF920F931F93CF93DF934A
:103A70006B017A01EC01CE53DA4F28813CE0389F8C
:103A80008001399F100D1124A0909C08B12C27FFB4
:103A90001FC0FB011182108288818F5F888388811B
:103AA0009801280F311D87FD3A95F6012A153B052F
:103AB0001CF488818C30C4F180819181049680341B
:103AC0009C4908F473C0F60180819181049670C00E
:103AD00088819801280F311D87FD3A952A153B05ED
:103AE000DCF68881A801480F511D87FD5A95FA011F
:103AF000EE0FFF1FE40FF51FE45FF74F808186FF95
:103B0000CBCF8881F801E80FF11D87FDFA95CF0131
:103B1000EE0FFF1FE80FF91FE45FF74F808160E0B1
:103B20008F730E94A409B8CF808191812881A80158
:103B3000420F511D27FD5A959A01FA01EE0FFF1F02
:103B4000E20FF31FE45FF74F21813281820F931F51
:103B5000F7019183808388819801280F311D87FDAB
:103B60003A95F901EE0FFF1FE20FF31FE45FF74FE5
:103B7000808186FF22C08881080F111D87FD1A955C
:103B8000F801EE0FFF1FE00FF11FE45FF74F808198
:103B900061E08F73DF91CF911F910F91FF90EF90B4
:103BA000DF90CF90BF90AF900C94A40980E49CE983
:103BB000F701918380838FEF8883DF91CF911F91ED
:103BC0000F91FF90EF90DF90CF90BF90AF9008954E
:103BD0006093BE057093BF058093C0059093C105A7
:103BE000645D7E4F8F4F9F4F6093BA057093BB0506
:103BF0008093BC059093BD0582E090E09093B90559
:103C00008093B8050E94650A6093B4057093B5056A
:103C10008093B6059093B7050895CF92DF92EF9207
:103C2000FF92CF93DF938DE18093610789E08093CA
:103C3000600780935F0781E080935D0780935C0756
:103C400010925B0722EB37E080E8C82E85EDD82E76
:103C500082E8E82E86E3F82EE4E6F0E0C0E9D1E061
:103C6000C90183709927892B99F4C901BF010E946A
:103C7000DE33892B31F4C901BE010E94DE33892B6A
:103C800039F480E8C80E81E5D81E81E0E81EF11CF9
:103C90002F5F3F4F2F3C87E0380711F7EDEBF2E045
:103CA000A191B0E020E831E541E050E00E947E3390
:103CB000C60ED71EE81EF91E82E0E53CF80781F724
:103CC000C701B601645B7546854F9F4FDF91CF9169
:103CD000FF90EF90DF90CF900C94E81DCF92DF9291
:103CE000EF92FF920F931F930E94650A8B019C0134
:103CF000C090B405D090B505E090B605F090B7053A
:103D00006091BE057091BF058091C0059091C1057D
:103D10000C191D092E093F09083E134021053105E4
:103D2000E0F0DC01CB010196A11DB11D8093BE0521
:103D30009093BF05A093C005B093C105B701A6013C
:103D400048515C4F6F4F7F4F4093B4055093B5057A
:103D50006093B6057093B705C7CF1F910F91FF9081
:103D6000EF90DF90CF900895CF92DF92EF92FF9285
:103D70000E946E1E6B017C01809131079091320789
:103D8000A0913307B0913407C816D906EA06FB069E
:103D900061F0C701B6010E943808C0923107D09285
:103DA0003207E0923307F092340780915B0790E08E
:103DB000FF90EF90DF90CF9008950F931F93CF93D4
:103DC000DF932091B3052F5F322F37703093B30507
:103DD00020FF2BC020E831FD2064347009F0206200
:103DE000205FFC01EC01239600E011E0648566236E
:103DF00029F070E0C8010E94DE336F5F6187322FC7
:103E0000369F030E30E0311D1124311110C016828F
:103E1000662311F0615061873196EC17FD0731F789
:103E2000DF91CF911F910F91089520E0D4CF3150B1
:103E30003683EECF4F925F927F928F929F92AF9296
:103E4000BF92CF92DF92EF92FF920F931F93CF9387
:103E5000DF932C01EB010E940E0AF20127853089C5
:103E6000621B730B6A307105B0F3F8948A819B81F1
:103E7000181619060CF0EAC1E881F9816091020177
:103E80006061309102013F7E30930201DA848F81BC
:103E90002D2D281B822F2F834F85042E000C550BB0
:103EA000AA81BB817D85FC84EE8488248394870E5F
:103EB000F394E3949E819884B984AB841181C12CDE
:103EC0007C2D0C2D2C2D2181112788942111280F58
:103ED00008F42FEF8195889480FC120F1795889431
:103EE00081FC120F1795889482FC120F1795889405
:103EF00083FC120F1795889484FC120F17958894F1
:103F000085FC120F1795889486FC120F17958894DC
:103F100087FC120F17958894722F8110712F8D0DC9
:103F2000172F002C60930201002C17FF3093020121
:103F300020817727889400C000C0309302012111AE
:103F4000290F00C060930201002C16FF309302017C
:103F500008F42FEF9195889400C000C030930201BF
:103F6000F0FC720F00C060930201002C15FF30932B
:103F7000020177958894F1FC720F00C000C0309365
:103F800002017795889400C060930201002C14FF11
:103F900030930201F2FC720F7795889400C000C044
:103FA00030930201F3FC720F00C060930201002CF9
:103FB00013FF3093020177958894F4FC720F00C0D0
:103FC00000C0309302017795889400C0609302018D
:103FD000002C12FF30930201F5FC720F7795889444
:103FE00000C000C030930201F6FC720F00C0609365
:103FF0000201002C11FF3093020177958894F7FCA1
:10400000720F00C000C0309302017795889400C001
:1040100060930201002C10FF30930201122FF11067
:10402000172F9B0D00C000C03093020100C000C0DC
:1040300060930201002C17FF309302012281772741
:10404000889400C000C0309302012111290D00C0E6
:1040500060930201002C16FF3093020108F42FEF49
:10406000E40FF51F00C000C030930201E0FC720FA6
:1040700000C060930201002C15FF30930201779578
:104080008894E1FC720F00C000C030930201779564
:10409000889400C060930201002C14FF3093020149
:1040A000E2FC720F7795889400C000C03093020143
:1040B000E3FC720F00C060930201002C13FF3093E9
:1040C000020177958894E4FC720F00C000C0309321
:1040D00002017795889400C060930201002C12FFC2
:1040E00030930201E5FC720F7795889400C000C000
:1040F00030930201E6FC720F00C060930201002CB5
:1041000011FF3093020177958894E7FC720F00C08D
:1041100000C0309302017795889400C0609302013B
:10412000002C10FF30930201122FE110172F9194F1
:1041300000C000C0309302019A0C00C0002C6093B4
:104140000201002C17FF3093020121817727889408
:1041500000C000C0309302012111280F00C06093FD
:104160000201002C16FF3093020108F42FEF819515
:10417000889400C000C03093020180FC720F00C020
:1041800060930201002C15FF30930201779588940B
:1041900081FC720F00C000C03093020177958894B3
:1041A00000C060930201002C14FF3093020182FCD6
:1041B000720F7795889400C000C03093020183FC91
:1041C000720F00C060930201002C13FF30930201B4
:1041D0007795889484FC720F00C000C03093020170
:1041E0007795889400C060930201002C12FF3093F1
:1041F000020185FC720F7795889400C000C030934F
:10420000020186FC720F00C060930201002C11FFB6
:10421000309302017795889487FC720F00C000C02C
:10422000309302017795889400C060930201002CBE
:1042300010FF30930201122F8110172F8D0D00C037
:1042400000C030930201119709F06CCE4A815B8166
:1042500020EE31E0DA010E94FA33DC01CB01F4E018
:10426000B695A79597958795FA95D1F730E020E018
:10427000B901EAE94E9F040E611D5E9F600D711D3C
:104280001124650F711D860F971FA11DB11D893E59
:1042900043E09407A105B10508F434C0885E93405B
:1042A000A109B10942E0B695A795979587954A95DA
:1042B000D1F747E0849F080E211D949F200D311DEA
:1042C0001124290F311D6091B20570E0860F971FF0
:1042D000820F931F4091370750913807609139073B
:1042E00070913A07292F3327420F531F611D711D0B
:1042F00040933707509338076093390770933A0714
:104300008093B20578940E940E0AF201708B678741
:10431000DF91CF911F910F91FF90EF90DF90CF90A1
:10432000BF90AF909F908F907F905F904F90089537
:1043300081E090E00895E1E0F1E080818061808398
:1043400008956F927F928F92CF92DF92EF92FF92B9
:104350000F931F93CF93DF93CDB7DEB762970FB65E
:10436000F894DEBF0FBECDBF6C017A013801822EFA
:10437000DC011C962C91CA0157FF04C0882799279D
:10438000841B950B7A8369839C838B839E838D83A7
:104390006D867E868F86213049F5CE0101960E947A
:1043A000DD1E83E0888B1A8A198AF7FE02C08DEF22
:1043B000888BD601ED91FC910684F785E02DBE0136
:1043C0006F5F7F4FC601199562960FB6F894DEBFF6
:1043D0000FBECDBFDF91CF911F910F91FF90EF9056
:1043E000DF90CF908F907F906F9008951C861B86F2
:1043F0001A86198618861F82D4CFEF92FF920F93E8
:104400001F93CF93DF93CDB7DEB762970FB6F894C3
:10441000DEBF0FBECDBF7C01DC011C968C917A8380
:1044200069835C834B835E834D830D871E872F8753
:104430008130F9F4CE0101960E94DD1E188A1A8A95
:10444000198AD701ED91FC910684F785E02DBE0114
:104450006F5F7F4FC701199562960FB6F894DEBF64
:104460000FBECDBFDF91CF911F910F91FF90EF90C5
:1044700008951C861B861A86198618861F82DECF31
:1044800090E080E00895FC018585968508950F935E
:104490001F93CF93DF9300D0CDB7DEB7AB01198266
:1044A0001A821B82DC01ED91FC910190F081E02DDC
:1044B00000E010E020E0BE016F5F7F4F19950F9084
:1044C0000F900F90DF91CF911F910F910895209140
:1044D000B6083091B708C901079697FD079623E003
:1044E000959587952A95E1F72091B4083091B50804
:1044F000829FA001839F500D929F500D112470E068
:1045000060E08091CF089091D0080C9448358F924C
:10451000AF92BF92CF92DF92EF92FF920F93CF9321
:10452000DF93CDB7DEB764970FB6F894DEBF0FBE4A
:10453000CDBF062FE62EF12CA701BC01CE010196BE
:104540000E943F3521E030E02C0F3D1F2E0D3F1D16
:10455000402FBE016F5F7F4F80EA98E00E94D80E27
:10456000811123C082E18C8B1B8A0E5F1F92812CEC
:10457000CE0143965C0101966C0143977C019C013E
:1045800040E36CE080EA98E00E942F0F0F908111C9
:104590000CC08C898130D1F48B898430B9F481E0EE
:1045A00099819A3009F480E0819564960FB6F89469
:1045B000DEBF0FBECDBFDF91CF910F91FF90EF9087
:1045C000DF90CF90BF90AF908F90089581E0EDCFB6
:1045D0000E943A35FB0101900020E9F73197AF01C5
:1045E000461B570BDC01ED91FC910280F381E02D1D
:1045F00019948F929F92AF92BF92EF92FF920F9376
:104600001F93CF93DF93CDB7DEB7A1970FB6F89482
:10461000DEBF0FBECDBF7C01FA01CB0119A2223053
:1046200008F42AE08E010F5D1F4F822E912CB12CD1
:10463000A12CBF01A50194010E949133F901CA0187
:104640006A300CF5605DD8016E938D01232B242B0D
:10465000252B79F790E080E0109721F0BD01C7018C
:104660000E94EA22A1960FB6F894DEBF0FBECDBF1E
:10467000DF91CF911F910F91FF90EF90BF90AF907E
:104680009F908F900895695CDECFCF92DF92EF927A
:10469000FF92CF93DF936C01990FEE08FF08F7FEAE
:1046A0001BC06DE282E697E00E94300BEC014427CC
:1046B0005527BA014C195D096E097F092AE082E687
:1046C00097E00E94F9228C0F9D1FDF91CF91FF9000
:1046D000EF90DF90CF9008952AE0B701A60182E61F
:1046E00097E0DF91CF91FF90EF90DF90CF900C9407
:1046F000F922BC0182E697E00C94EA2261E173E0C2
:104700000C94EA22CF93DF93BC0182E697E00E94EB
:10471000760AEC0182E697E00E947E238C0F9D1FB3
:10472000DF91CF9108950F931F93CF93DF93EC0107
:104730000E94EA228C01CE010E947E23800F911FED
:10474000DF91CF911F910F9108958F92AF92BF92F9
:10475000CF92DF92EF92FF920F931F93CF93DF934D
:104760001F92CDB7DEB7182F282F392F37FF02C081
:104770002D5F3F4F822F83600E944F10082F8823A8
:10478000C1F084E193E00E947923802F0E94DE0B28
:104790000E94822383E090E00F90DF91CF911F91E0
:1047A0000F91FF90EF90DF90CF90BF90AF908F90E0
:1047B000089582E1898380E380933F071093400747
:1047C00021E437E042E06FE377E080EA98E00E947E
:1047D000D80E182F811118C081E08F93812CB12C35
:1047E000A12CCE0101966C018FE3E82E87E0F82E14
:1047F00004E0970140E36CE080EA98E00E942F0F0C
:10480000182F0F90882361F087E393E00E947923AB
:10481000812F0E94DE0B0E94822384E090E0BCCFB7
:104820006EE473E082E697E00E949323B5CF809117
:104830003F078153843018F090E080E00895809124
:1048400040078535C9F76DE573E082E697E00E9481
:104850009323809141079FEC980F933098F463E184
:1048600073E082E697E00E9493236091410782E61D
:1048700097E00E94300B82E793E00E94792381E069
:1048800090E008958635C1F663E873E082E697E02C
:104890000E94932382E090E00895CF92DF92EF92FE
:1048A000FF920F931F93CF93DF931F921F92CDB769
:1048B000DEB78C016B017C0197FF03C083E0E80E3B
:1048C000F11C83E0E82A03301105E4F0C8010196E9
:1048D00083709927892BB1F4C8010E94452360E9B0
:1048E00073E082E697E00E94932382E090E00F90CD
:1048F0000F90DF91CF911F910F91FF90EF90DF907C
:10490000CF90089563E173E082E697E00E949323DD
:10491000C8010E94452369EA73E082E697E00E949D
:1049200093238E2D0E944F10F82E882361F080EC87
:1049300093E00E9479238F2D0E94DE0B0E94822338
:1049400083E090E0D4CF80EA89830A8362E0CE01DD
:1049500001960E948722182F81110EC060E1C601C6
:104960000E948722182F811107C06CED73E082E648
:1049700097E00E949323BBCF8AEE93E00E947923B5
:10498000812F0E94DE0B0E94822384E090E0AFCF53
:10499000EF92FF920F931F93CF93DF9380EA98E0FB
:1049A0000E94A110882309F4B9C180EA98E00E940E
:1049B000CE0B882309F4B2C182E697E00E947E23E1
:1049C0006DE073E082E697E00E94760A82E697E067
:1049D0000E947E2363E073E082E697E00E94760AFD
:1049E0000091A208C3EAD8E010E00117C1F07E01EF
:1049F0008881803188F482E094E00E9479232196B6
:104A0000F701408150E070E060E020E182E697E04D
:104A10000E94F9221F5FE9CF85E393E0EECF82E6A3
:104A200097E00E947E2367EF72E082E697E00E94A3
:104A3000760AE091AD08EF77E13408F043C0F0E08A
:104A4000EA5AFD4FC0818CE492E0C530A9F018F518
:104A500089E792E0C23081F038F481EA92E0C13017
:104A600059F080ED91E008C082E692E0C33021F079
:104A700087E592E0C430A9F70E948223C350C33077
:104A800018F185EC92E0DF91CF911F910F91FF908B
:104A9000EF900C9482238FE092E0C83069F348F4E1
:104AA0008AE292E0C63041F38EE192E0C73021F312
:104AB000D8CF80E092E0C930F9F28DED91E0CF3FA0
:104AC000D9F2CFCFC0E0CDCF8DE090E00E94A523FA
:104AD0008091400781113CC080914107811138C00D
:104AE00080914207811134C080914307811130C009
:104AF00065E074E082E697E00E94932360E472E050
:104B00008DE090E00E944D246BE174E082E697E036
:104B10000E9493238DE090E00E94A5238AE294E016
:104B20000E947923CFE3D7E00FE417E0699182E692
:104B300097E00E94300B0C171D07C1F7C1E0D0E0D1
:104B4000CE01DF91CF911F910F91FF90EF900895CB
:104B50000E941724019709F06FC067E374E082E6B2
:104B600097E00E94932390914107809143079133EE
:104B700051F5833509F04EC06CE474E082E697E0AD
:104B80000E94932362EA75E08DE090E00E944D243C
:104B900060E372E08DE090E00E944D248DE090E0B3
:104BA0000E94A5238AE294E00E947923CFE3D7E014
:104BB0000FE417E0699182E697E00E94300B0C1732
:104BC0001D07C1F7BBCF923309F0ABC0833509F0A5
:104BD000ABC061E674E082E697E00E94932362EA4C
:104BE00075E08DE090E00E944D2460E272E0D2CF4B
:104BF000833509F099C062E874E082E697E00E948C
:104C0000932362EA75E08DE090E00E944D2460E11C
:104C100072E0C0CF8E3409F087C063EA74E082E6A8
:104C200097E00E94932362EA75E08DE090E00E9495
:104C30004D2460E072E0AECF0E941724892B61F50D
:104C400066ED74E082E697E00E94932362EA75E0E5
:104C50008DE090E00E944D2460E472E08DE090E0F1
:104C60000E944D246BE174E082E697E00E9493235A
:104C70008DE090E00E94A5238AE294E00E947923CF
:104C8000CFE3D7E0699182E697E00E94300BF7E02E
:104C9000CF34DF07B9F752CF0E941724EC010297F7
:104CA00011F563E873E082E697E00E94932363E1E5
:104CB00073E082E697E00E9493238DE090E00E94EB
:104CC000A5238AE294E00E9479230FE317E0F8011C
:104CD00061918F0182E697E00E94300BF7E00F347C
:104CE0001F07A9F72DCF63E173E082E697E00E94EA
:104CF00093238DE090E00E94A5238AE294E00E9435
:104D00007923CFE3D7E00FE417E0699182E697E0DB
:104D10000E94300B0C171D07C1F712CFD0E0C0E086
:104D20000FCF933309F464CF8B3409F037CF67EB9F
:104D300074E082E697E00E94932330CF85ED809364
:104D4000BC008091080690910906A0910A06B091D6
:104D50000B060796A11DB11D23E0B695A795979563
:104D600087952A95D1F72091BC0024FD03C01092AD
:104D700051060895409108065091090660910A066F
:104D800070910B06452B462B472B69F30097A10525
:104D9000B10541F02AE22A95F1F700C00197A10977
:104DA000B109E1CF809107060C94CA181F920F92A7
:104DB0000FB60F9211242F933F938F939F93AF932E
:104DC000BF938091370790913807A0913907B09130
:104DD0003A073091360723E0230F2D3758F5019617
:104DE000A11DB11D20933607809337079093380794
:104DF000A0933907B0933A0780913B0790913C0705
:104E0000A0913D07B0913E070196A11DB11D809371
:104E10003B0790933C07A0933D07B0933E07BF919B
:104E2000AF919F918F913F912F910F900FBE0F9057
:104E30001F90189526E8230F0296A11DB11DD2CF11
:104E40001F920F920FB60F9211240BB60F922F9351
:104E50003F934F935F936F937F938F939F93AF9302
:104E6000BF93EF93FF9382E697E00E940E0BFF91B2
:104E7000EF91BF91AF919F918F917F916F915F91D2
:104E80004F913F912F910F900BBE0F900FBE0F903F
:104E90001F9018951F920F920FB60F9211240BB608
:104EA0000F922F938F939F93EF93FF93E09172074D
:104EB000F09173078081E0917807F091790782FD86
:104EC0001DC0908180917B078F5F8F7320917C073D
:104ED000821741F0E0917B07F0E0EE59F84F958F93
:104EE00080937B07FF91EF919F918F912F910F906E
:104EF0000BBE0F900FBE0F901F9018958081F2CFC0
:104F00001F920F920FB60F9211240BB60F922F9390
:104F10003F934F935F936F937F938F939F93AF9341
:104F2000BF93EF93FF938091B900887F803609F497
:104F30004DC008F040C0883209F4A9C028F580317E
:104F400009F49DC0C8F4882309F4FBC0883009F433
:104F500096C0FF91EF91BF91AF919F918F917F91FB
:104F60006F915F914F913F912F910F900BBE0F90DA
:104F70000FBE0F901F901895883109F488C08032B9
:104F800041F78093500614C0803409F49DC040F46A
:104F90008033B9F38833E9F68093500685ECB0C0CE
:104FA000803509F485C0883509F496C0883489F6BF
:104FB0000E949E26CECF883909F48CC038F58837F8
:104FC00029F050F4883611F0803719F683E0809389
:104FD000510610924F0657C0883809F47BC08039BB
:104FE00019F0803809F0B5CF80914F06803208F073
:104FF00071C0E0914F0681E08E0F80934F06809143
:10500000BB00F0E0E15DF94F80833DC0803B39F0AB
:10501000E0F4803A09F479C0883A09F09ACF84E044
:105020008093510610922E0610922D06E091A00654
:10503000F091A106199580912D0681110FC081E094
:1050400080932D0610920D0609C0803C09F4A6CF6E
:10505000883C09F4A3CF883B09F07BCFE0912E0672
:1050600081E08E0F80932E06F0E0E35FF94F8081A0
:105070008093BB0090912E0680912D0629C08091CF
:1050800076068093BB0085EC8093BC0062CF909144
:10509000750680917406981758F5E091750681E0C1
:1050A0008E0F80937506F0E0EC5AF94F8081E9CFBE
:1050B000E091750681E08E0F809375068091BB00AC
:1050C000F0E0EC5AF94F8083909175068091740658
:1050D0009817C8F285E8D8CFE091750681E08E0F69
:1050E000809375068091BB00F0E0EC5AF94F808305
:1050F0008091530681115CCF81E08093520684EA4F
:105100008093BC001092510624CF85EC8093BC00A4
:105110001092510680914F06803230F4E0914F0694
:10512000F0E0E15DF94F108260914F0670E0E09190
:105130009E06F0919F068FE296E0199510924F0619
:1051400008CF1092500634CF1F920F920FB60F92D5
:1051500011240BB60F922F933F934F935F936F934E
:105160007F938F939F93AF93BF93EF93FF9348E207
:1051700051E064E271E090E080E00E942E1DFF911A
:10518000EF91BF91AF919F918F917F916F915F91BF
:105190004F913F912F910F900BBE0F900FBE0F902C
:1051A0001F9018951F920F920FB60F9211240BB6F5
:1051B0000F922F933F934F935F936F937F938F93B0
:1051C0009F93AF93BF93EF93FF9348EA50E064EA55
:1051D00070E083E090E00E942E1DFF91EF91BF915F
:1051E000AF919F918F917F916F915F914F913F917F
:1051F0002F910F900BBE0F900FBE0F901F90189520
:105200001F920F920FB60F9211240BB60F922F938D
:105210003F934F935F936F937F938F939F93AF933E
:10522000BF93EF93FF9348E950E064E970E082E0B8
:1052300090E00E942E1DFF91EF91BF91AF919F9141
:105240008F917F916F915F914F913F912F910F902F
:105250000BBE0F900FBE0F901F9018951F920F92CC
:105260000FB60F9211240BB60F922F933F934F93CB
:105270005F936F937F938F939F93AF93BF93EF93BE
:10528000FF9348E850E064E870E081E090E00E941D
:105290002E1DFF91EF91BF91AF919F918F917F91C3
:1052A0006F915F914F913F912F910F900BBE0F9097
:1052B0000FBE0F901F90189510926507109264070B
:1052C00088EE93E0A0E0B0E08093660790936707D4
:1052D000A0936807B09369078DEC92E09093630701
:1052E0008093620785EC90E090936F0780936E0740
:1052F00084EC90E0909371078093700780EC90E0CD
:10530000909373078093720781EC90E090937507F8
:105310008093740782EC90E09093770780937607F0
:1053200086EC90E0909379078093780710927B0742
:1053300010927C0710927D0710927E079FEF90934A
:10534000FF07109201081092000810920B081092AB
:105350000A084FEF5FEFBA01409306085093070821
:1053600060930808709309081092B3081092B2086D
:1053700040E850E05093B5084093B40820E430E092
:105380003093B7082093B6085093B9084093B808F3
:105390003093BB082093BA081092C6081092BD083B
:1053A0001092BC081092BF081092BE0881E0809352
:1053B000C5088093C4082FEF3FEF3093C3082093B4
:1053C000C2083093C1082093C0088093C708109288
:1053D000C8081092CA081092C90829EE32E030932A
:1053E000B1082093B0081092CC081092CB0810920C
:1053F000CE081092CD081092D0081092CF088BE002
:105400008093D4088CE08093D50889E08093D608F7
:105410008AE08093D70888E08093D80880E580935D
:10542000EE081092EF082FED32E03093A1082093A0
:10543000A00885E38093AE0885E08093AF08809153
:105440009C08803398F491E0980F90939C08809387
:105450009D0890E0FC01EE0FFF1FE80FF91FE45FCD
:10546000F74F88EB9BE092838183089590939D088A
:105470000895CF93DF9300D0CDB7DEB7789484B58D
:10548000826084BD84B5816084BD85B5826085BD40
:1054900085B5816085BD80916E00816080936E00CE
:1054A00010928100809181008260809381008091C0
:1054B0008100816080938100809180008160809371
:1054C00080008091B10084608093B1008091B00031
:1054D00081608093B0008091910082608093910000
:1054E0008091910081608093910080919000816013
:1054F000809390008091A10082608093A1008091B0
:10550000A10081608093A1008091A00081608093C0
:10551000A00080912101826080932101809121016E
:10552000816080932101809120018160809320011E
:1055300080917A00846080937A0080917A00826002
:1055400080937A0080917A00816080937A008091C4
:105550007A00806880937A001092C100E09172070F
:10556000F091730712E01083E0916E07F0916F07DE
:105570001082E0917007F09171078FEC8083109298
:105580007A07E0917607F091770786E08083E091D3
:105590007407F0917507808180618083E0917407C2
:1055A000F0917507808188608083E0917407F091A5
:1055B0007507808180688083E0917407F09175079A
:1055C00080818F7D80830E940D1E0E946722109330
:1055D000C4081093C5088CE090E09093BD088093B8
:1055E000BC0886E190E09093BF088093BE0881E0FC
:1055F00090E09093C3088093C2089093C108809371
:10560000C0086EEE74E080EB98E00E9493230E9445
:105610006E1B62E086E10E94D20962E087E10E948F
:10562000D20962E089E10E94D20962E088E10E9429
:10563000D20961E08FE10E94D20961E08DE10E9410
:10564000D20961E08EE10E94D20961E082E20E940B
:10565000D20961E080E20E94D20961E081E20E9409
:10566000D20961E085E20E94D20961E083E20E94F2
:10567000D20961E084E20E94D20961E088E20E94DE
:10568000D20961E086E20E94D20961E087E20E94CD
:10569000D20961E086E00E94D20960E081E30E94C5
:1056A000D20962E081E30E94A40960E086E00E94E2
:1056B000A40960E083E00E94D20960E084E00E94D7
:1056C000D20980919D08803308F052C061E086E0E5
:1056D0000E94D20980919D08282F30E0F901EE0F39
:1056E000FF1FE20FF31FE45FF74F9081907C9660FD
:1056F000908310929E0810929F082CE0622F0E94C7
:10570000D233829FB001112430E020E0AB01420F80
:10571000531FFA01EE0FFF1FE40FF51FE45FF74F71
:10572000908196FD17C02F5F3F4F2C30310571F7E8
:10573000813009F0CEC11092800082E08093810018
:105740001092850010928400B19A80916F0082605F
:1057500080936F00E0919D088E2F90E0FC01EE0F8A
:10576000FF1FE80FF91FE45FF74F8081806480839B
:1057700089E690E00E94D3070E94F81C61E08091C6
:10578000AE080E94D20961E08091AE080E94A4098F
:105790008091AF088F3F09F4C8C160E00E94D20930
:1057A0008091AF080E947B09892B09F0BEC161E09E
:1057B0008091AF080E94D20960E08091AF080E94FA
:1057C000A40983E090E00197F1F761E08091AF08D0
:1057D0000E94A40962E370E080E090E00E94330A36
:1057E00040E064E280EA98E00E94BB0E40E066E29E
:1057F00080EA98E00E94BB0E46E268E480EA98E006
:105800000E94BB0E40E864E580EA98E00E94BB0E6F
:1058100049EA66E580EA98E00E94BB0E43E068E54D
:1058200080EA98E00E94BB0E48EE6AE580EA98E0C4
:105830000E94BB0E40E46AE280EA98E00E94BB0E40
:105840004DE362E280EA98E00E94BB0E68E280EAE3
:1058500098E00E949D0E982F9370933039F0482F56
:10586000436068E280EA98E00E94BB0E82E697E01F
:105870000E947E238AEF9DE00E94822380918A0607
:10588000811145C010927C0610927B068FEF8093A9
:105890007F068093800680938106809382068093A2
:1058A00083068093840681E08093850610928706A4
:1058B0001092860610927E0610927D0680919806C0
:1058C00090919906892B31F489E796E09093990697
:1058D00080939806E0917706F0917806309721F052
:1058E00089E796E09583848389E796E0909378062C
:1058F0008093770610928906109288068DEA92E0CE
:1059000090937A068093790681E080938A0680914D
:10591000010180618093010184EA96E090937C0606
:1059200080937B068FE290E09093870680938606B3
:105930008091020890910308A0910408B091050895
:10594000843C29E09207A105B10520F484EC99E09C
:10595000A0E0B0E08093020890930308A0930408AD
:10596000B0930508E4EAF6E081E397E047EA3BE418
:1059700020ED40833183228333968E179F07C9F72A
:10598000D090FF078091020890910308A09104082D
:10599000B0910508892B8A2B8B2BD9F00E940E0A17
:1059A00000919A0610919B0620919C0630919D06CD
:1059B000601B710B820B930B00910208109103087E
:1059C000209104083091050860177107820793073A
:1059D000C8F20E940E0A60939A0670939B06809309
:1059E0009C0690939D06E0910A08F0910B08309771
:1059F00059F040910608509107086091080870918D
:105A000009088D2D1995D82EE0909806F0909906EA
:105A10004D2C512C712C612CE114F10409F49CC023
:105A2000D7011C96CC901C9780910008909101089A
:105A30008436910510F41C961C92D701ED91FC91CF
:105A4000A280B38019821A821B82DD2079F1F701CE
:105A5000369610E000E02191222319F192809920DE
:105A600001F130E050E040E02F5F3F4F4F4F5F4F7C
:105A7000C301B2010E94C2339B01AC01892D90E0A9
:105A8000B0E0A0E0BC01CD016F5F7F4F8F4F9F4F13
:105A90000E94C233A1E0B0E0AC0FBD1FA00FB11F48
:105AA0008C930F5F1F4F03301105A9F609811A81EE
:105AB0002B81F7014585568562817381C701F50108
:105AC0001995D7011C96CC921C971496ED90FC90DA
:105AD000A3CF823061F410929000809391001092D5
