:100000000C9435010C9466010C9466010C94660105
:100010000C9466010C9466010C9466010C946601C4
:100020000C9466010C9466010C9466010C946601B4
:100030000C9466010C9466010C9466010C946601A4
:100040000C9466010C9466010C9466010C94660194
:100050000C9466010C9466010C9466010C94A80340
:100060000C9466010C941C040C94F2030C9466012D
:100070000C9466010C9466010C9466010C94660164
:100080000C9466010C9466010C9466010C94660154
:100090000C9466010C9466010C9466010C94660144
:1000A0000C9466010C9466010C9466010C94660134
:1000B0000C9466010C9466010C9466010C94660124
:1000C0000C9466010C9466010C9466010C94660114
:1000D0000C9466010C9466010C9466010C94660104
:1000E0000C9466010C9493020C94CE020C94AC0216
:1000F0000C9497020C94BA020C94C4020C949F02C4
:100100000C9499010C9468010C94B2020C94A8020E
:100110000C945E030C94B6020C94D2020C948D02E3
:100120000C94C7010C9477010C94C8020C94A202A1
:100130000C9414020C949B020C94C0020C948B013E
:100140000C94CD020C9436050000210024002700F9
:100150002A002D00300033000101000004010701D6
:100160000A0100002200250028002B002E0031008B
:10017000340002010000050108010B01000020000D
:100180002300260029002C002F003200000100006F
:10019000030106010901050505050705080808080A
:1001A000020202020A0A080804040404010101010F
:1001B000010101010303030303030303040707070A
:1001C0000C0C0C0C0C0C0C0C0202020206060606AF
:1001D000060606060B0B0B0B0B0B0B0B010210207C
:1001E000200808102040102040800201020108046D
:1001F0000201010204081020408080402010080401
:100200000201800402018040201008040201080459
:10021000020101020408102040800102040810209D
:10022000408000000A0B02090C0D0E0807030401B0
:1002300000000000000000000000000000000000BE
:10024000000000000000000000000000000012118B
:10025000100000000000000000000000000000008E
:100260000000000000000000360511241FBECFEF83
:10027000D1E2DEBFCDBF00E00CBF12E0A0E0B2E0F3
:10028000EAEDFAE000E00BBF02C007900D92AA343D
:10029000B107D9F722E0AAE4B2E001C01D92A03F65
:1002A000B207E1F711E0C5E3D1E000E006C0219715
:1002B0000109802FFE010E946305C433D10780E04D
:1002C0000807A9F70E9452040C946B050C940000D7
:1002D000FC01538D448D252F30E0842F90E0821B4C
:1002E000930B541710F0CF96089501970895FC01D1
:1002F000918D828D981761F0A28DAE0FBF2FB11D29
:100300005D968C91928D9F5F9F73928F90E0089580
:100310008FEF9FEF0895FC01918D828D981731F03A
:10032000828DE80FF11D858D90E008958FEF9FEF8E
:100330000895FC01918D228D892F90E0805C9F4F64
:10034000821B91098F7399270895FC01A48DA80F32
:10035000B92FB11DA35ABF4F2C91848D90E0019607
:100360008F739927848FA689B7892C93A089B18927
:100370008C91837080648C93938D848D981306C0C8
:100380000288F389E02D80818F7D80830895EF922C
:10039000FF920F931F93CF93DF93EC0181E0888F3F
:1003A0009B8D8C8D98131AC0E889F989808185FF0F
:1003B00015C09FB7F894EE89FF896083E889F989B1
:1003C00080818370806480839FBF81E090E0DF91B3
:1003D000CF911F910F91FF90EF900895F62E0B8D06
:1003E00010E00F5F1F4F0F731127E02E8C8D8E11C1
:1003F0000CC00FB607FCFACFE889F989808185FF28
:10040000F5CFCE010E94A501F1CFEB8DEC0FFD2FB2
:10041000F11DE35AFF4FF0829FB7F8940B8FEA89E2
:10042000FB8980818062CFCFCF93DF93EC01888DF1
:100430008823B9F0AA89BB89E889F9898C9185FD5F
:1004400003C0808186FD0DC00FB607FCF7CF8C91ED
:1004500085FFF2CF808185FFEDCFCE010E94A501FF
:10046000E9CFDF91CF91089583E592E00E94990151
:1004700021E0892B09F420E0822F089580E090E0AC
:10048000892B29F00E94340281110E94000080E033
:1004900090E0892B49F080E090E0892B29F00E94C0
:1004A000000081110E94000080E090E0892B49F05B
:1004B00080E090E0892B29F00E94000081110E94C9
:1004C000000080E090E0892B49F080E090E0892BEB
:1004D00029F00E94000081110C94000008958150C1
:1004E000823108F05AC0E82FF0E08827E558FD4F28
:1004F0008F4F0C9463059B029F028D02930297021B
:10050000CD02A202A802AC02B202B602BA02C00236
:10051000C402CD02C802CE02D202809180008F7741
:10052000809380000895809180008F7DF9CF809125
:100530008000877FF5CF84B58F7784BD089584B51B
:100540008F7DFBCF8091B0008F778093B0000895AE
:100550008091B0008F7DF9CF809190008F7780934C
:1005600090000895809190008F7DF9CF8091900048
:10057000877FF5CF8091A0008F778093A0000895AA
:100580008091A0008F7DF9CF8091A000877FF5CF6B
:10059000809120018F778093200108958091200120
:1005A0008F7DF9CF80912001877FF5CFCF93DF93A7
:1005B000282F30E0F901EE5DFD4F8491F901E452FE
:1005C000FE4FD491F901EA56FE4FC491CC23A1F01D
:1005D00081110E946F02EC2FF0E0EE0FFF1FE45834
:1005E000FE4FA591B491EC91ED2381E090E009F4E8
:1005F00080E0DF91CF91089580E090E0FACF1F93E3
:10060000CF93DF93282F30E0F901EE5DFD4F849109
:10061000F901E452FE4FD491F901EA56FE4FC4911C
:10062000CC23A9F0162F81110E946F02EC2FF0E06D
:10063000EE0FFF1FEE59FE4FA591B4918FB7F894BE
:10064000EC91111108C0D095DE23DC938FBFDF91B0
:10065000CF911F910895DE2BF8CFCF93DF9390E0D9
:10066000FC01E452FE4F24918A569E4FFC01849176
:100670008823D1F090E0880F991FFC01E85BFE4FC2
:10068000A591B491FC01EE59FE4FC591D491611131
:100690000EC09FB7F8948C91E22FE0958E238C9337
:1006A0002881E223E8839FBFDF91CF9108958FB720
:1006B000F894EC91E22BEC938FBFF6CFAF92BF9200
:1006C000CF92DF92EF92FF920F931F93CF93DF931E
:1006D0006C017B018B01040F151FEB015E01AE184D
:1006E000BF08C017D10759F06991D601ED91FC916F
:1006F0000190F081E02DC6011995892B79F7C5018C
:10070000DF91CF911F910F91FF90EF90DF90CF90ED
:10071000BF90AF900895CF93DF93FC01019000202C
:10072000E9F73197AF01481B590BBC0183E592E013
:100730000E945E03EC0142E050E062E172E083E57A
:1007400092E00E945E038C0F9D1FDF91CF91089570
:100750001F920F920FB60F9211242F933F938F93F6
:100760009F93AF93BF9380914F0290915002A091BD
:100770005102B091520230914E0223E0230F2D37E7
:1007800058F50196A11DB11D20934E0280934F0292
:1007900090935002A0935102B093520280914A026A
:1007A00090914B02A0914C02B0914D020196A11D77
:1007B000B11D80934A0290934B02A0934C02B093D8
:1007C0004D02BF91AF919F918F913F912F910F90CB
:1007D0000FBE0F901F90189526E8230F0296A11DBB
:1007E000B11DD2CF1F920F920FB60F9211240BB6EC
:1007F0000F922F933F934F935F936F937F938F93BA
:100800009F93AF93BF93EF93FF9383E592E00E9492
:10081000A501FF91EF91BF91AF919F918F917F9132
:100820006F915F914F913F912F910F900BBE0F9061
:100830000FBE0F901F9018951F920F920FB60F9238
:1008400011240BB60F922F938F939F93EF93FF93E7
:10085000E0916302F09164028081E0916902F0917D
:100860006A0282FD1DC0908180916C028F5F8F7340
:1008700020916D02821741F0E0916C02F0E0ED5A98
:10088000FD4F958F80936C02FF91EF919F918F9117
:100890002F910F900BBE0F900FBE0F901F901895C9
:1008A0008081F2CF789484B5826084BD84B5816004
:1008B00084BD85B5826085BD85B5816085BD80912B
:1008C0006E00816080936E001092810080918100A3
:1008D000826080938100809181008160809381009B
:1008E000809180008160809380008091B10084605D
:1008F0008093B1008091B00081608093B0008091BE
:10090000910082608093910080919100816080933A
:100910009100809190008160809390008091A1006F
:1009200082608093A1008091A10081608093A100EA
:100930008091A00081608093A0008091210182605D
:100940008093210180912101816080932101809118
:10095000200181608093200180917A0084608093DF
:100960007A0080917A00826080937A0080917A0088
:10097000816080937A0080917A00806880937A0009
:100980001092C10061E080E20E942D0361E081E2EB
:100990000E942D0361E082E20E942D0361E083E268
:1009A0000E942D0361E084E20E942D0361E085E254
:1009B0000E942D0361E086E20E942D0361E087E240
:1009C0000E942D0361E088E20E942D0360E083E035
:1009D0000E942D0360E084E00E942D0383E00E94CA
:1009E000D6020197B9F583E00E94D6020197E1F49F
:1009F00060E083E20E94FF0261E084E20E94FF0265
:100A00006FEF85E20E94FF0261E086E20E94FF0232
:100A100060E087E20E94FF026FEF88E20E94FF021F
:100A200082E292E00E948B0384E00E94D60201974A
:100A3000A9F660E080E20E94FF0261E081E20E948C
:100A4000FF026FEF82E20E94FF0286E392E00E94C3
:100A50008B03C4CF84E00E94D602019721F285E186
:100A600092E00E948B030E943E02B8CFE3E5F2E0E1
:100A70001382128288EE93E0A0E0B0E08483958335
:100A8000A683B78384E092E09183808385EC90E035
:100A90009587848784EC90E09787868780EC90E048
:100AA000918B808B81EC90E0938B828B82EC90E039
:100AB000958B848B86EC90E0978B868B118E128EB3
:100AC000138E148E0895EE0FFF1F881F8BBF0790A3
:0A0AD000F691E02D1994F894FFCF81
:100ADA0000000000C7015E03680114029901770152
:100AEA008B010D0A0057454C434F4D4520484F4D49
:100AFA00450052455455524E494E4720544F205AAC
:100B0A0020484F4D450052455455524E494E4720B4
:0A0B1A00544F205820484F4D45006D
:00000001FF
