:100000000C9435010C9466010C9466010C94660105
:100010000C9466010C9466010C9466010C946601C4
:100020000C9466010C9466010C9466010C946601B4
:100030000C9466010C9466010C9466010C946601A4
:100040000C9466010C9466010C9466010C94660194
:100050000C9466010C9466010C9466010C94CD031B
:100060000C9466010C9441040C9417040C946601E2
:100070000C9466010C9466010C9466010C94660164
:100080000C9466010C9466010C9466010C94660154
:100090000C9466010C9466010C9466010C94660144
:1000A0000C9466010C9466010C9466010C94660134
:1000B0000C9466010C9466010C9466010C94660124
:1000C0000C9466010C9466010C9466010C94660114
:1000D0000C9466010C9466010C9466010C94660104
:1000E0000C9466010C9486010C94C7010C94BD011C
:1000F0000C94AF010C94AB010C94B9010C945F0308
:100100000C94CC020C9498010C94CB010C948C01AF
:100110000C94B8020C9490010C949B010C94A902CD
:100120000C94D8050C94A5010C94A1010C94120315
:100130000C94DA020C94C1010C94C6010C94B30126
:100140000C9494010C947C020000210024002700F0
:100150002A002D00300033000101000004010701D6
:100160000A0100002200250028002B002E0031008B
:10017000340002010000050108010B01000020000D
:100180002300260029002C002F003200000100006F
:10019000030106010901050505050705080808080A
:1001A000020202020A0A080804040404010101010F
:1001B000010101010303030303030303040707070A
:1001C0000C0C0C0C0C0C0C0C0202020206060606AF
:1001D000060606060B0B0B0B0B0B0B0B010210207C
:1001E000200808102040102040800201020108046D
:1001F0000201010204081020408080402010080401
:100200000201800402018040201008040201080459
:10021000020101020408102040800102040810209D
:10022000408000000A0B02090C0D0E0807030401B0
:1002300000000000000000000000000000000000BE
:10024000000000000000000000000000000012118B
:10025000100000000000000000000000000000008E
:100260000000000000000000D80511241FBECFEFE1
:10027000D1E2DEBFCDBF00E00CBF12E0A0E0B2E0F3
:10028000EEE1FCE000E00BBF02C007900D92A0334E
:10029000B107D9F722E0A0E3B2E001C01D92A63D6C
:1002A000B207E1F711E0C5E3D1E000E006C0219715
:1002B0000109802FFE010E940506C433D10780E0AA
:1002C0000807A9F70E9477040C940D060C9400000F
:1002D0008150823108F05AC0E82FF0E08827EC58AE
:1002E000FE4F8F4F0C9405069401980186018C01F6
:1002F0009001C6019B01A101A501AB01AF01B301B2
:10030000B901BD01C601C101C701CB0180918000C7
:100310008F77809380000895809180008F7DF9CF42
:1003200080918000877FF5CF84B58F7784BD089555
:1003300084B58F7DFBCF8091B0008F778093B00024
:1003400008958091B0008F7DF9CF809190008F77D4
:10035000809390000895809190008F7DF9CF8091D7
:100360009000877FF5CF8091A0008F778093A000C9
:1003700008958091A0008F7DF9CF8091A000877FA4
:10038000F5CF809120018F7780932001089580918F
:1003900020018F7DF9CF80912001877FF5CFCF930A
:1003A000DF93282F30E0F901EE5DFD4F8491F901D4
:1003B000E452FE4FD491F901EA56FE4FC491CC238A
:1003C000A1F081110E946801EC2FF0E0EE0FFF1FF9
:1003D000E458FE4FA591B491EC91ED2381E090E0BB
:1003E00009F480E0DF91CF91089580E090E0FACFAA
:1003F0001F93CF93DF93282F30E0F901EE5DFD4F7F
:100400008491F901E452FE4FD491F901EA56FE4F6E
:10041000C491CC23A9F0162F81110E946801EC2F02
:10042000F0E0EE0FFF1FEE59FE4FA591B4918FB78C
:10043000F894EC91111108C0D095DE23DC938FBFA6
:10044000DF91CF911F910895DE2BF8CFCF93DF93EB
:1004500090E0FC01E452FE4F24918A569E4FFC012D
:1004600084918823D1F090E0880F991FFC01E85B0C
:10047000FE4FA591B491FC01EE59FE4FC591D49168
:10048000623071F49FB7F8943C91822F809583235A
:100490008C93E8812E2B28839FBFDF91CF91089505
:1004A0008FB7F894EC912E2B2C938FBFF6CF3FB7DC
:1004B000F8948091350290913602A0913702B09164
:1004C000380226B5A89B05C02F3F19F00196A11D43
:1004D000B11D3FBFBA2FA92F982F8827BC01CD018E
:1004E000620F711D811D911D42E0660F771F881FED
:1004F000991F4A95D1F70895AF92BF92CF92DF929C
:10050000EF92FF920F931F93CF93DF936C017B01C8
:100510008B01040F151FEB015E01AE18BF08C01759
:10052000D10759F06991D601ED91FC910190F081CC
:10053000E02DC6011995892B79F7C501DF91CF917F
:100540001F910F91FF90EF90DF90CF90BF90AF90F1
:100550000895FC01538D448D252F30E0842F90E0C9
:10056000821B930B541710F0CF96089501970895AE
:10057000FC01918D828D981761F0A28DAE0FBF2F77
:10058000B11D5D968C91928D9F5F9F73928F90E0CD
:1005900008958FEF9FEF0895FC01918D828D98173C
:1005A00031F0828DE80FF11D858D90E008958FEF79
:1005B0009FEF0895FC01918D228D892F90E0805C42
:1005C0009F4F821B91098F739927089589E392E0C9
:1005D0000E94DA0221E0892B09F420E0822F08959D
:1005E000FC01A48DA80FB92FB11DA35ABF4F2C91A8
:1005F000848D90E001968F739927848FA689B7899F
:100600002C93A089B1898C91837080648C93938D95
:10061000848D981306C00288F389E02D80818F7D38
:1006200080830895EF92FF920F931F93CF93DF93F0
:10063000EC0181E0888F9B8D8C8D98131AC0E8891E
:10064000F989808185FF15C09FB7F894EE89FF89ED
:100650006083E889F98980818370806480839FBF8B
:1006600081E090E0DF91CF911F910F91FF90EF908B
:100670000895F62E0B8D10E00F5F1F4F0F7311279B
:10068000E02E8C8D8E110CC00FB607FCFACFE889D6
:10069000F989808185FFF5CFCE010E94F002F1CF6C
:1006A000EB8DEC0FFD2FF11DE35AFF4FF0829FB74A
:1006B000F8940B8FEA89FB8980818062CFCFCF933A
:1006C000DF93EC01888D8823B9F0AA89BB89E8897A
:1006D000F9898C9185FD03C0808186FD0DC00FB620
:1006E00007FCF7CF8C9185FFF2CF808185FFEDCF9E
:1006F000CE010E94F002E9CFDF91CF91089580E012
:1007000090E0892B29F00E94E60281110E940000EE
:1007100080E090E0892B49F080E090E0892B29F07F
:100720000E94000081110E94000080E090E0892B6F
:1007300049F080E090E0892B29F00E9400008111AF
:100740000E94000080E090E0892B49F080E090E07A
:10075000892B29F00E94000081110C94000008955B
:10076000CF93DF93FC0101900020E9F73197AF01AF
:10077000481B590BBC0189E392E00E947C02EC010A
:1007800042E050E062E172E089E392E00E947C0284
:100790008C0F9D1FDF91CF9108951F920F920FB67E
:1007A0000F9211242F933F938F939F93AF93BF93F7
:1007B0008091310290913202A0913302B0913402C3
:1007C0003091300223E0230F2D3758F50196A11DFB
:1007D000B11D209330028093310290933202A09396
:1007E0003302B09334028091350290913602A09189
:1007F0003702B09138020196A11DB11D80933502D8
:1008000090933602A0933702B0933802BF91AF9114
:100810009F918F913F912F910F900FBE0F901F903E
:10082000189526E8230F0296A11DB11DD2CF1F9265
:100830000F920FB60F9211240BB60F922F933F9386
:100840004F935F936F937F938F939F93AF93BF93D8
:10085000EF93FF9389E392E00E94F002FF91EF9102
:10086000BF91AF919F918F917F916F915F914F91C8
:100870003F912F910F900BBE0F900FBE0F901F90C6
:1008800018951F920F920FB60F9211240BB60F926C
:100890002F938F939F93EF93FF93E0914902F091F1
:1008A0004A028081E0914F02F091500282FD1DC00A
:1008B0009081809152028F5F8F7320915302821733
:1008C00041F0E0915202F0E0E75CFD4F958F80939C
:1008D0005202FF91EF919F918F912F910F900BBE3C
:1008E0000F900FBE0F901F9018958081F2CF7894D3
:1008F00084B5826084BD84B5816084BD85B5826025
:1009000085BD85B5816085BD80916E0081608093D5
:100910006E0010928100809181008260809381003E
:10092000809181008160809381008091800081604E
:10093000809380008091B10084608093B1008091A9
:10094000B00081608093B0008091910082608093BC
:10095000910080919100816080939100809190003E
:100960008160809390008091A10082608093A100BB
:100970008091A10081608093A1008091A00081609E
:100980008093A00080912101826080932101809159
:1009900021018160809321018091200181608093F9
:1009A000200180917A00846080937A0080917A009F
:1009B000826080937A0080917A00816080937A00CF
:1009C00080917A00806880937A001092C10061E083
:1009D00088E20E94260261E08AE20E94260261E02B
:1009E0008CE20E94260261E082E30E94260261E01E
:1009F0008EE20E94260261E080E30E94260262E00D
:100A000085E30E94260262E083E30E94260262E000
:100A100081E30E94260262E08FE20E942602E091BA
:100A20004902F0914A0282E08083E0914502F09110
:100A300046021082E0914702F09148028FEC8083D9
:100A400010925102E0914D02F0914E0286E08083B7
:100A5000E0914B02F0914C02808180618083E091B3
:100A60004B02F0914C02808188608083E0914B02C0
:100A7000F0914C02808180688083E0914B02F0917C
:100A80004C0280818F7D808383E30E94CF01892B7C
:100A900099F461E08AE20E94F80160E08CE20E9431
:100AA000F8016FEF88E20E94F80185E192E00E9470
:100AB000B0030E947F03E8CF85E30E94CF01892B1A
:100AC00079F460E08AE20E94F80161E08CE20E9421
:100AD000F8016FEF88E20E94F8018AE192E0E7CF27
:100AE00081E30E94CF01892B79F461E08EE20E94BC
:100AF000F80160E080E30E94F8016FEF82E30E945A
:100B0000F8018DE192E0D3CF8FE20E94CF0160E047
:100B1000892B71F48EE20E94F80161E080E30E946B
:100B2000F8016FEF82E30E94F80182E292E0BFCF0A
:100B30008AE20E94F80160E08CE20E94F80160E025
:100B400088E20E94F80160E08EE20E94F80160E015
:100B500080E30E94F80160E082E30E94F80188E2ED
:100B600092E00E94B0030E9457024B015C0184E6B0
:100B7000C82ED12CE12CF12C0E945702681979095A
:100B80008A099B09683E734081059105A8F321E01D
:100B9000C21AD108E108F10888EE880E83E0981E99
:100BA000A11CB11CC114D104E104F10429F781CFC7
:100BB000E9E3F2E01382128288EE93E0A0E0B0E075
:100BC00084839583A683B78384E092E091838083B6
:100BD00085EC90E09587848784EC90E09787868702
:100BE00080EC90E0918B808B81EC90E0938B828BFA
:100BF00082EC90E0958B848B86EC90E0978B868BD3
:100C0000118E128E138E148E0895EE0FFF1F881F03
:0E0C10008BBF0790F691E02D1994F894FFCF5A
:100C1E000000000012037C02A9025F03DA02B80290
:100C2E00CC020D0A00444F574E005550004C45461D
:100C3E00540052494748540043454E544552000013
:00000001FF
