:020000040000FA
:100000000C9458060C9489060C9489060C94890665
:100010000C9489060C9489060C9489060C94890624
:100020000C9489060C9489060C9489060C94890614
:100030000C9489060C9489060C9489060C94890604
:100040000C9489060C9489060C9489060C948906F4
:100050000C9489060C9489060C9489060C94521809
:100060000C9489060C94C6180C949C180C94890660
:100070000C9489060C9489060C9489060C948906C4
:100080000C9489060C9489060C9489060C948906B4
:100090000C9489060C9489060C9489060C94FC181F
:1000A0000C9489060C9489060C9489060C94890694
:1000B0000C9489060C9489060C9489060C94890684
:1000C0000C9489060C9489060C9489060C94890674
:1000D0000C9489060C9489060C9489060C94890664
:1000E0000C9489060C9411070C94C5170C94930773
:1000F0000C94630D0C94C9170C9408100C94DB0637
:100100000C94270A0C94C2170C94AA060C9423177B
:100110000C94E0060C940C0F0C9470100C94DE09F7
:100120000C9419070C9401070C94FC0F0C94F00F1D
:100130000C94FA060C941A170C941F070C941D17B4
:100140000C9431070C940B070C9423070C94F606BF
:100150000C9406140C94290F0C941C110C94F107A8
:100160000C947F170C9491070C94E00F0C940707E4
:100170000C9476080C9429080C945C140C94F206E8
:100180000C948E070C9415070C942D070C946E0A92
:100190000C94C0070C94CF070C9492070C94FE06A5
:1001A0000C94290B0C948E200C94940E0C9409182A
:1001B0000C9427070C94E3070C94350E0C94201A2A
:1001C0000C949C1400000000003E5B4F5B3E3E6BB5
:1001D0004F6B3E1C3E7C3E1C183C7E3C181C577DE1
:1001E000571C1C5E7F5E1C00183C1800FFE7C3E72D
:1001F000FF0018241800FFE7DBE7FF30483A060E3F
:100200002629792926407F050507407F05253F5A85
:100210003CE73C5A7F3E1C1C08081C1C3E7F1422F5
:100220007F22145F5F005F5F06097F017F006689A0
:10023000956A606060606094A2FFA29408047E04E6
:100240000810207E201008082A1C08081C2A08080C
:100250001E101010100C1E0C1E0C30383E383006CC
:100260000E3E0E06000000000000005F00000007C8
:10027000000700147F147F14242A7F2A12231308F6
:10028000646236495620500008070300001C2241D2
:10029000000041221C002A1C7F1C2A08083E080876
:1002A0000080703000080808080800006060002026
:1002B000100804023E5149453E00427F4000724909
:1002C0004949462141494D331814127F10274545AD
:1002D00045393C4A494931412111090736494949C3
:1002E00036464949291E0000140000004034000031
:1002F000000814224114141414140041221408029A
:10030000015909063E415D594E7C1211127C7F490C
:100310004949363E414141227F4141413E7F494961
:1003200049417F090909013E414151737F0808088D
:100330007F00417F41002040413F017F081422415E
:100340007F404040407F021C027F7F0408107F3EB8
:100350004141413E7F090909063E4151215E7F0925
:10036000192946264949493203017F01033F40408C
:10037000403F1F2040201F3F4038403F6314081477
:100380006303047804036159494D43007F414141AF
:100390000204081020004141417F04020102044090
:1003A00040404040000307080020545478407F2814
:1003B0004444383844444428384444287F3854540A
:1003C000541800087E090218A4A49C787F0804042D
:1003D0007800447D40002040403D007F10284400CC
:1003E00000417F40007C047804787C08040478385D
:1003F00044444438FC1824241818242418FC7C088D
:10040000040408485454542404043F44243C404009
:10041000207C1C2040201C3C4030403C44281028BC
:10042000444C9090907C4464544C44000836410005
:100430000000770000004136080002010204023C7F
:100440002623263C1EA1A161123A4040207A38544E
:1004500054555921555579412254547842215554C7
:10046000784020545579400C1E527212395555551A
:1004700059395454545939555454580000457C4105
:100480000002457D420001457C407D1211127DF045
:10049000282528F07C545545002054547C547C0A6F
:1004A000097F4932494949323A4444443A324A4838
:1004B00048303A4141217A3A42402078009DA0A03C
:1004C0007D3D4242423D3D4040403D3C24FF24248E
:1004D000487E4943662B2FFC2F2BFF0929F620C0AD
:1004E000887E090320545479410000447D413048FE
:1004F000484A32384040227A007A0A0A727D0D1941
:10050000317D2629292F28262929292630484D40A2
:1005100020380808080808080808382F10C8ACBA9E
:100520002F102834FA00007B000008142A1422221D
:10053000142A14085500550055AA55AA55AAFF5566
:10054000FF55FF000000FF00101010FF00141414EE
:10055000FF001010FF00FF1010F010F0141414FC36
:10056000001414F700FF0000FF00FF1414F404FC53
:10057000141417101F10101F101F1414141F001034
:100580001010F0000000001F101010101F101010AD
:1005900010F010000000FF101010101010101010BC
:1005A000FF10000000FF140000FF00FF00001F10FC
:1005B000170000FC04F414141710171414F404F4B6
:1005C0000000FF00F714141414141414F700F714A7
:1005D0001414171410101F101F141414F4141010F6
:1005E000F010F000001F101F0000001F140000009A
:1005F000FC140000F010F01010FF10FF141414FF92
:10060000141010101F00000000F010FFFFFFFFFF8C
:10061000F0F0F0F0F0FFFFFF0000000000FFFF0F20
:100620000F0F0F0F3844443844FC4A4A4A347E02C4
:10063000020606027E027E02635549416338444445
:100640003C04407E201E2006027E020299A5E7A5FA
:10065000991C2A492A1C4C7201724C304A4D4D306B
:100660003048784830BC625A463D3E494949007E90
:100670000101017E2A2A2A2A2A44445F4444405127
:100680004A444040444A51400000FF0103E080FFDB
:10069000000008086B6B083612362436060F090F67
:1006A00006000018180000001010003040FF010183
:1006B000001F01011E00191D1712003C3C3C3C00AC
:1006C00000000000000103070F1F3F7F0080C0E013
:1006D000F0F8FCFEDB40A4A62EAF2000A1C8D3009A
:1006E000408DAED580A80000600000000000000032
:1006F00000000000000000E000000000000000001A
:10070000000000000001E000000000000000000008
:100710000000000001F000000000000000000000E8
:1007200000000003F00000000000000000000000D6
:10073000000007F0000000000000000000000000C2
:100740000007F800000000000000000000000000AA
:100750000FF800000003C0007E000001E0007F0FE2
:10076000F800000003C000FE000001E000FFEFF809
:1007700000000003C000FE000001E000FFFFF800E1
:10078000000003C000F00000000F007FFE7FC000EB
:100790000003C000F00000000F003FFE7FF83FF1B3
:1007A000FBCFFCFEF3BC3DEFE01FFE7FFF7FFBFFB6
:1007B000DFFEFEFFBC3DEFE01FC6FFFF7FFBFFDF5C
:1007C000FEFEFFBC3DEFE00FE3C7FE787BC3DE1EFD
:1007D000F0FFBC3DEF0007FF87FC787BC3DE1EF017
:1007E000F83C3DEF0001FFFFF0007BC3C01EF0F0BE
:1007F0003C3DEF0001F37FE03FFBC3CFFEF0F03C58
:100800003DEF0003E33F807FFBC3DFFEF0F03C3DA4
:10081000EF0007E73C00787BC3DE1EF0F03C3DEFC5
:100820000007FFBE00787BC3DE1EF0F03C3DEF000A
:1008300007FFFE00787BC3DE1EF0F03C3DEF000FAB
:10084000FFFE007FFBFFDFFEF0F03FFDEFE00FFF5C
:10085000FF007FFBFFDFFEF0F03FFDEFE00FF9FF51
:10086000003E79F9CF9EF0F01F3DE7E01FF1FF0059
:1008700000000000000000000000001F80FF007F5B
:10088000FFFFFFFFFFFFFFFFFFE01C007F007FFF78
:10089000FFFFFEB46D888D18E000001F007FFFFF92
:1008A000FFFE95AD7DB577E000000F007FFFFFFFF5
:1008B000FEA5AD9D8D19E0000006007FFFFFFFFE45
:1008C000B5ADEDB57EE00000000000018000000045
:1008D0000000000000000380000000000000000095
:1008E0000007C000000000000000000007C000007A
:1008F000000000000000000FC00000000000000029
:1009000000001FE00000000000000000001FE000E9
:1009100000000000000000003FE0000000000000B8
:100920000000003FF00000000000000000007FF029
:10093000000000000000001FF87FF0000000000031
:1009400000003FFE7FF0000000000000003FFF7F3E
:10095000F0000000000000001FFFFBE000000000AE
:100960000000000FFFF9FFC00000000000000FFFB3
:10097000F9FFF800000000000007FFF1FFFF000092
:100980000000000003FC73FFFF8000000000000176
:10099000FE3FFFFF80000000000000FF1E0FFF0071
:1009A0000000000000007FFE1FFC000000000000AF
:1009B000003FFFFFF8000000000000000FDFFFE035
:1009C000000000000000001F19FFC0000000000030
:1009D00000003F3CFF00000000000000007E7CF8AB
:1009E00000000000000000007FFE7C00000000000E
:1009F000000000FFFFFC0000000000000000FFFFFF
:100A0000FE0000000000000000FFFFFE00000000EC
:100A100000000001FFEFFE0000000000000001FFE9
:100A2000CFFE0000000000000003FF07FE000000F2
:100A30000000000003FC07FE0000000000000003AF
:100A4000F003FE00000000000000018000FE000036
:100A500000000000000000007E0000000000000018
:100A60000000003E000000000000000000000C003C
:100A70000000000000078000FC000003C000000030
:100A8000078001FC000003C0000000078001FC009B
:100A90000003C0000000078001E00000001E00000D
:100AA00000078001E00000001E007FE3F79FF9FDD2
:100AB000E7787BDFC0FFF7FFBFFDFDFF787BDFC07E
:100AC000FFF7FFBFFDFDFF787BDFC0F0F787BC3D80
:100AD000E1FF787BDE00F0F787BC3DE1F0787BDE5C
:100AE0000000F787803DE1E0787BDE007FF7879F9D
:100AF000FDE1E0787BDE00FFF787BFFDE1E0787B7A
:100B0000DE00F0F787BC3DE1E0787BDE00F0F787A0
:100B1000BC3DE1E0787BDE00F0F787BC3DE1E078AA
:100B20007BDE00FFF7FFBFFDE1E07FFBDFC0FFF7EB
:100B3000FFBFFDE1E07FFBDFC07CF3F39F3DE1E021
:100B40003E7BCFC00000000000000000000000FF5E
:100B5000FFFFFFFFFFFFFFFFFFC0FFFFFFFFFD687D
:100B6000DB111A31C0FFFFFFFFFD2B5AFB6AEFC0FC
:100B7000FFFFFFFFFD4B5B3B1A33C0FFFFFFFFFD95
:100B80006B5BDB6AFDC02200FF210053534431330D
:100B9000303620616C6C6F636174696F6E206661C2
:100BA000696C65640000000A0B02090C0D0E080751
:100BB000030401000000000000000000000000002D
:100BC0000000000000000000000000000000000025
:100BD00000121110000000000000000000000000E2
:100BE00000000000000000000000000000220025BE
:100BF0000028002B002E0031003400020100000507
:100C00000108010B0100002100240027002A002D0B
:100C1000003000330001010000040107010A010552
:100C2000050505070508080808020202020A0A0865
:100C3000080404040401010101010101010303038B
:100C40000303030303040707070C0C0C0C0C0C0C28
:100C50000C0202020206060606060606060B0B0B2F
:100C60000B0B0B0B0B01021020200808102040106A
:100C70002040800201020108040201010204081060
:100C8000204080804020100804020180040201807E
:100C900040201008040201080402010102040810A7
:100CA000204080010204081020408000201A8E207D
:100CB00011241FBECFEFD1E2DEBFCDBF00E00CBFDD
:100CC00012E0A0E0B2E0E6ECF4E400E00BBF02C00A
:100CD00007900D92AA38B107D9F724E0AAE8B2E04C
:100CE00001C01D92A23FB207E1F716E0C7E5D6E0CA
:100CF00000E006C021970109802FFE010E94E32039
:100D0000C635D10780E00807A9F70E94951A0C9410
:100D100051220C94000090E0FC01EB59F34F249118
:100D2000815E934FFC018491882399F090E0880FB5
:100D3000991FFC01EB5FF34FA591B491FC01E551C4
:100D4000F44F859194918FB7F894EC91E22BEC934A
:100D50008FBF08950895282F30E0F901EB55F44F27
:100D60009491F901EB59F34F4491215E334FF9010E
:100D70002491222309F435C0992311F19150923125
:100D8000F8F4E92FF0E08827E753F94F8F4F0C94E0
:100D9000E320FA06FE06DB06F206F606E006010789
:100DA00007070B071107150719071F072307E00699
:100DB00027072D073107809180008F77809380006F
:100DC000E22FF0E0EE0FFF1FE551F44FA591B49133
:100DD0008FB7F894EC91611148C040954E234C9325
:100DE0008FBF0895809180008F7DE8CF8091800033
:100DF000877FE4CF84B58F7784BDE2CF84B58F7DC4
:100E0000FBCF8091B0008F778093B000D9CF8091D5
:100E1000B0008F7DF9CF809190008F778093900004
:100E2000CFCF809190008F7DF9CF80919000877F08
:100E3000F5CF8091A0008F778093A000C1CF8091E3
:100E4000A0008F7DF9CF8091A000877FF5CF8091A2
:100E500020018F7780932001B3CF809120018F7D77
:100E6000F9CF80912001877FF5CF4E2BB8CF3FB7C8
:100E7000F8948091FC039091FD03A091FE03B09142
:100E8000FF0326B5A89B05C02F3F19F00196A11DB1
:100E9000B11D3FBFBA2FA92F982F8827BC01CD01C4
:100EA000620F711D811D911D42E0660F771F881F23
:100EB000991F4A95D1F708958F929F92AF92BF9252
:100EC000CF92DF92EF92FF924B015C010E943707B5
:100ED0006B017C010E9437076C197D098E099F09FF
:100EE000683E734081059105A8F321E0821A9108BC
:100EF000A108B10888EEC80E83E0D81EE11CF11CE1
:100F000081149104A104B10429F7FF90EF90DF90C0
:100F1000CF90BF90AF909F908F90089580E991E01F
:100F2000089508950895AF92BF92CF92DF92EF9205
:100F3000FF920F931F93CF93DF936C017B018B0183
:100F4000040F151FEB015E01AE18BF08C017D107D3
:100F500059F06991D601ED91FC910190F081E02D5D
:100F6000C6011995892B79F7C501DF91CF911F91A2
:100F70000F91FF90EF90DF90CF90BF90AF900895CA
:100F8000FC01538D448D252F30E0842F90E0821B8F
:100F9000930B541710F0CF96089501970895FC0114
:100FA000918D828D981761F0A28DAE0FBF2FB11D6C
:100FB0005D968C91928D9F5F9F73928F90E00895C4
:100FC0008FEF9FEF0895FC01918D828D981731F07E
:100FD000828DE80FF11D858D90E008958FEF9FEFD2
:100FE0000895FC01918D228D892F90E0805C9F4FA8
:100FF000821B91098F739927089584E094E00E94E1
:10100000F10721E0892B09F420E0822F0895FC01EB
:10101000A48DA80FB92FB11DA35ABF4F2C91848D59
:1010200090E001968F739927848FA689B7892C93B6
:10103000A089B1898C91837080648C93938D848D09
:10104000981306C00288F389E02D80818F7D80830C
:101050000895EF92FF920F931F93CF93DF93EC01CC
:1010600081E0888F9B8D8C8D98131AC0E889F9894F
:10107000808185FF15C09FB7F894EE89FF89608352
:10108000E889F98980818370806480839FBF81E0D3
:1010900090E0DF91CF911F910F91FF90EF90089515
:1010A000F62E0B8D10E00F5F1F4F0F731127E02EF0
:1010B0008C8D8E110CC00FB607FCFACFE889F98928
:1010C000808185FFF5CFCE010E940708F1CFEB8D1F
:1010D000EC0FFD2FF11DE35AFF4FF0829FB7F894FC
:1010E0000B8FEA89FB8980818062CFCFCF93DF931A
:1010F000EC01888D8823B9F0AA89BB89E889F98930
:101100008C9185FD03C0808186FD0DC00FB607FC64
:10111000F7CF8C9185FFF2CF808185FFEDCFCE0197
:101120000E940708E9CFDF91CF91089580E090E019
:10113000892B29F00E94FD0781110E94000080E0A8
:1011400090E0892B49F080E090E0892B29F00E9403
:10115000000081110E94000080E090E0892B49F09E
:1011600080E090E0892B29F00E94000081110E940C
:10117000000080E090E0892B49F080E090E0892B2E
:1011800029F00E94000081110C9400000895EF9254
:10119000FF920F931F93CF93DF93EC01EC80FD80C0
:1011A0006E157F050CF070C057FF04C0240F351F6B
:1011B00050E040E08E819F81FA01E20FF31F8E170D
:1011C0009F071CF49C01241B350B121613060CF010
:1011D0005BC0922F842F8695869586958E9DD00133
:1011E0008F9DB00D11246A0F7B1FAF8DB8A1A60F84
:1011F000B71F477049F188E0841B482F682F70E0C3
:10120000FB01E453F94FE491281708F063C0621B17
:1012100071092FEF30E002C0359527956A95E2F706
:10122000E2230130110539F0B0F10230110561F50A
:101230008C91E82702C08C91E82BEC93941720F155
:101240002C813D81A20FB31FE92FE41BE83078F019
:101250000230110521F58E2F9C9190959C932C8145
:101260003D81A20FB31F88508830B0F7E770EE239E
:1012700059F0F0E0EC53F94FE49101301105F9F029
:1012800010F10230110519F1DF91CF911F910F91EB
:10129000FF90EF900895E0958C91E823CECF81E008
:1012A0000115110509F480E081959E2F8C932C8106
:1012B0003D81A20FB31F98509830C0F7D7CF8C91C3
:1012C000E82BEC93E1CFE0958C91E823FACF8C9159
:1012D000E827F7CF0130110509F4ADCFE0F2023075
:1012E000110509F4A5CFAE0DBF1DAECF0F931F930F
:1012F000CF93DF9377FF04C0260F371F70E060E0C5
:10130000DC011496CD91DC91FB01E20FF31FCE17A7
:10131000DF071CF49E01261B370B121613064CF533
:10132000FA0157FD3796A3E0F595E795AA95E1F701
:10133000EC9FD001ED9FB00DFC9FB00D11246A0F02
:101340007B1FDC015F96ED91FC91E60FF71F477064
:10135000552781E090E001C0880F4A95EAF7482FB1
:101360000130110559F0A8F02E0F3F1F0230110572
:10137000E1F0DF91CF911F910F9108952E0F3F1F44
:10138000E217F307B1F38191DF011197842B8C935E
:10139000F7CF80952E0F3F1FE217F30751F391917E
:1013A000DF01119798239C93F7CFE217F30709F316
:1013B0008191DF01119784278C93F7CF0F931F93AF
:1013C000FA01DC0156964C9156974230E9F04330D1
:1013D000A1F1413061F514964D915C91DA01AE1B9B
:1013E000BF0BFD01E21BF30B77FD0BC0DC01169672
:1013F0004D915C916417750724F4AB01BF010E9405
:1014000076091F910F91089514964D915C91DA0120
:10141000A61BB70BBD0161507109DC0116964D91F9
:101420005C91DA01AE1BBF0BFD01E21BF30B77FDF4
:10143000E8CFAF010E94C708E4CF16964D915C91AA
:10144000DA01A61BB70BBD0161507109CDCF0F9317
:101450001F93FA01DC0156964C9156974230A9F041
:10146000433091F1413019F514964D915C91DA01B8
:10147000AE1BBF0BFD013197F7FD04C0AB01BF01EF
:101480000E94C7081F910F91089514964D915C9189
:10149000DA01A61BB70BBD01DC0116964D915C91DC
:1014A000DA01AE1BBF0BFD013197621B730BF7FD19
:1014B000E9CFDC0116964D915C91E417F50714F71E
:1014C000AF010E947609DECF16964D915C91DA014C
:1014D000A61BB70BBD01621B730BCECFFC0177FDC2
:1014E00064C080859185681779070CF05EC057FD50
:1014F0005CC082859385481759070CF056C08689D1
:101500008230B1F0833029F1813041F484819581BA
:10151000841B950BAB01BC01615071092130310571
:1015200009F108F443C02230310509F463C008957D
:1015300084819581DC01A61BB70BBD016150710947
:1015400086819781DC01A41BB50BAD014150510987
:10155000E5CF86819781861B970BBA01AC0141507C
:101560005109DCCFCA0157FD0796A3E095958795F1
:10157000AA95E1F7A481B5818A9F90018B9F300DD8
:101580009A9F300D1124620F731F078CF0A1E02D7C
:10159000E60FF71F4770552721E030E001C0220F0A
:1015A0004A95EAF78081822B80830895CA0157FD0E
:1015B000079633E0959587953A95E1F7A481B58133
:1015C0008A9F90018B9F300D9A9F300D1124620FDE
:1015D000731F078CF0A1E02DE60FF71F477055270A
:1015E00081E090E001C0880F4A95EAF780959081EC
:1015F0008923DACFCA0157FD079623E09595879591
:101600002A95E1F7A481B5818A9F90018B9F300DC7
:101610009A9F300D1124620F731F078CF0A1E02DEB
:10162000E60FF71F4770552721E030E001C0220F79
:101630004A95EAF780818227B7CF08958EBD0000D2
:101640000DB407FEFDCF8EB508958CBD9DBD0895E8
:101650000895FC016370668B8481958126813781B2
:10166000613039F0633029F0918780873387228792
:101670000895318720879387828708952F923F921C
:101680004F925F926F927F928F929F92AF92BF9292
:10169000CF92DF92EF92FF920F931F93CF93DF933E
:1016A000CDB7DEB76A970FB6F894DEBF0FBECDBFD9
:1016B0009A8F898F7A8369834A01D22E18870F8384
:1016C0003701BC2CDC0159962D913C915A9721157C
:1016D000310509F015C118968D919C9119976817DD
:1016E00079070CF0D7C11A968D919C91481759072C
:1016F0000CF0D0C14C2C512CB6E0CB9E600D711D6E
:1017000011247C876B87161617060CF0C3C1EA2DCF
:10171000F0E0FA87E98793E0EE0FFF1F9A95E1F773
:10172000F88BEF87CF01840F951F181619060CF060
:10173000B1C1A98DBA8D58968C91811104C0BFEAB0
:10174000BD1508F4D394A98DBA8DED91FC91119734
:101750000284F385E02DCD011995B5E0DB9EC00133
:101760001124E981FA81FC83EB83312C212C9C012B
:101770002C533E4F388F2F8B4A2D50E05E8B4D8B74
:10178000EF89F88DE20DF31D44919E828D82D12C5C
:10179000C12C69817A81620D731D7A8B698B842FCC
:1017A00090E09C8B8B8BE98DFA8DA081B18140FFFD
:1017B00082C0F1E0BF126FC0AF126DC01C96ED91F8
:1017C000FC912F813885A4014C0D5D1D69897A89B2
:1017D000898D9A8D1995EB89FC89F595E7954E2FA2
:1017E0005FEFC51AD50A6D817E818D899E89680F4C
:1017F000791F7E836D8398E0C916D10481F6AFEF1F
:101800002A1A3A0AEB81FC81E40DF51DFC83EB8377
:10181000F5E02F16310409F0B3CF2F813885261556
:101820003705B9F0A98DBA8DED91FC91B1E0BB12ED
:1018300057C0AB1255C069817A816B5F7F4F0088BA
:10184000F189E02D830128E030E0A401898D9A8D93
:101850001995A98DBA8DED91FC9111970688F7899C
:10186000E02DCD016A960FB6F894DEBF0FBECDBF56
:10187000DF91CF911F910F91FF90EF90DF90CF906C
:10188000BF90AF909F908F907F906F905F904F90A0
:101890003F902F9019941E96ED91FC91EF80F88463
:1018A00009851A8592014D815E816B817C81898DCC
:1018B0009A8D199590CF2F8138852615370509F413
:1018C0008ACF31E0B31207C0A31205C01C96ED9178
:1018D000FC91930178CF1E96ED91FC917301E0CFBE
:1018E0006B857C85641975090684F785E02D730185
:1018F0000F8518899201A401898D9A8D1995A9CF18
:10190000F90134969491329745915491D91AB7E0E0
:10191000DB9E400D511D1124F901259134913C8B22
:101920002B8BFA0125903490FA01329674903196FF
:101930003491398B329664903196449041E04C1545
:1019400018F04A1508F07FC0662D062C000C770BA6
:101950007C836B83842D042C000C990B9E838D83D8
:10196000A98DBA8DED91FC9111970284F385E02D3C
:10197000CD011995512CD12CC12CEA2DF0E0FA871C
:10198000E9872B2D30E03C872B87A401440D511DA6
:1019900047FC5A95588F4F8B69817A81660D711D6E
:1019A00067FC7A957E876D877989C71608F051CFD5
:1019B0002C2D30E04D815E81420F531FA985BA85E1
:1019C0004A9FC0014B9F900D5A9F900D1124FC011E
:1019D000E80DF91DF88BEF87852D612C4F89588D07
:1019E000420F531F5E8B4D8B671408F050C0442488
:1019F0004394480E877041F4C1010196EB89FC893C
:101A0000E20DF31DD4901C01D7FE19C0A98DBA8D2B
:101A1000ED91FC91662D70E0B1E0BB1219C0AB12E4
:101A200017C02D853E85620F731F0484F585E02D58
:101A30002F8138854D895E89898D9A8D1995DD0CA8
:101A40006394842DD1CF1E821D821C821B8288CF7D
:101A50004B815C81640F751FAB85BC856A9FC0019B
:101A60006B9F900D7A9F900D112469817A81680F88
:101A7000791F0684F785E02DEF80F88409851A85A3
:101A80009D014F855889898D9A8D1995D8CF570C0E
:101A9000C3948ACF6A960FB6F894DEBF0FBECDBF4F
:101AA000DF91CF911F910F91FF90EF90DF90CF903A
:101AB000BF90AF909F908F907F906F905F904F906E
:101AC0003F902F9008958F929F92AF92CF92EF9276
:101AD000FF920F931F93CF93DF93EC01262F898DF5
:101AE0009A8D009709F051C06A30D1F41D861C868A
:101AF0008D8948E0849F900111248E859F85820FF7
:101B0000931F9F878E8781E090E0DF91CF911F9197
:101B10000F91FF90EF90CF90AF909F908F9008958E
:101B20006D3089F3CC88AD888F898823C1F08C858E
:101B30009D8536E0C39E800D911D112448855985F1
:101B40004817590764F44E855F851D861C8638E06A
:101B5000A39EC0011124840F951F9F878E87EA885A
:101B6000FB88088919894E855F856C857D85CE0146
:101B70000E943E0B2C898C859D8546E0249F800D1C
:101B8000911D11249D878C87BECF6A3069F41D8614
:101B90001C86FC013896E4912D898E859F85E29FF5
:101BA000800D911D1124ADCF6D3009F4ACCFFC0137
:101BB00034963491631708F4A6CF3296E491E61771
:101BC00008F4A1CFFC01329685909490462F431BD8
:101BD000342F47E0349F800C911C1124F40132967D
:101BE00034913196E4913323A9F1EE2399F1CC8815
:101BF000F4013596E491AD884F89442301F10E2E0E
:101C0000000CFF0BE30FF11DCE9EA001CF9E500DE7
:101C100011246C857D85460F571F6885798564176B
:101C200075076CF44E855F851D861C86FC01389611
:101C3000E491AE9E400D511D11245F874E87EA88C6
:101C4000FB88088919894E855F856C857D85CE0165
:101C50000E943E0BF4013496E4912C898C859D857D
:101C6000E29F800D911D11248DCF6F927F928F92F4
:101C70009F92AF92BF92CF92DF92EF92FF920F931B
:101C80001F93CF93DF93EC016B015A013901480197
:101C9000E881F9810284F385E02D1995E881F981C5
:101CA0000288F389E02D87019301A501B601CE01D9
:101CB0001995A501480D591D41505109E881F98137
:101CC0000288F389E02D9301B601CE011995E881D0
:101CD000F9810088F189E02D9401A501B601CE01BA
:101CE0001995C60CD71CB60161507109E881F981BC
:101CF0000088F189E02D9401A501CE011995E881B4
:101D0000F9810688F789E02DCE01DF91CF911F91EF
:101D10000F91FF90EF90DF90CF90BF90AF909F908A
:101D20008F907F906F9019946F927F928F929F9275
:101D3000AF92BF92CF92DF92EF92FF920F931F93D9
:101D4000CF93DF935C01EB016A0149013801870100
:101D5000DC01ED91FC916217730719F564167506A5
:101D60002CF0962D872D3A01C92ED82E96012619D2
:101D700037092F5F3F4F048CF58DE02DA301BE0185
:101D8000C5011995DF91CF911F910F91FF90EF90B1
:101D9000DF90CF90BF90AF909F908F907F906F908B
:101DA00008954615570591F42617370724F0892D15
:101DB0004B01C22FD82F9E01281939092F5F3F4FA1
:101DC000068CF78DE02DA601B401DACF0284F385ED
:101DD000E02D1995D501ED91FC910488F589E02D50
:101DE00083019401A601BE01C5011995D501ED91AC
:101DF000FC910688F789E02DC501DF91CF911F91F5
:101E00000F91FF90EF90DF90CF90BF90AF909F9099
:101E10008F907F906F901994EF92FF920F931F9382
:101E2000DC011A960D911C911B9718962D913C91EF
:101E30001997ED91FC9100A0F1A1E02D7B0150E0FC
:101E400040E070E060E019951F910F91FF90EF90D6
:101E500008954F925F926F927F928F929F92AF926E
:101E6000BF92CF92DF92EF92FF920F931F93CF9387
:101E7000DF936C012B015A0139014801DC01ED911E
:101E8000FC910284F385E02D1995E201640C751C28
:101E9000D601ED91FC91C615D7055CF40088F18957
:101EA000E02D87019401A501BE01C6011995219677
:101EB000EFCF0688F789E02DC601DF91CF911F9102
:101EC0000F91FF90EF90DF90CF90BF90AF909F90D9
:101ED0008F907F906F905F904F9019948F929F9208
:101EE000AF92BF92CF92DF92EF92FF920F931F9328
:101EF000CF93DF93EC015B014A016901E881F9812D
:101F00000284F385E02D199595012C0D3D1D21507E
:101F10003109E881F9810488F589E02D780184018F
:101F2000A401B501CE011995E881F9810688F789E8
:101F3000E02DCE01DF91CF911F910F91FF90EF9097
:101F4000DF90CF90BF90AF909F908F9019948F9219
:101F50009F92AF92BF92CF92DF92EF92FF920F9338
:101F60001F93CF93DF93EC015B014A016901780174
:101F7000E881F9810284F385E02D1995C80CD91CFC
:101F8000860101501109E881F9810488F589E02D65
:101F90009501A401B501CE011995E881F981068862
:101FA000F789E02DCE01DF91CF911F910F91FF9026
:101FB000EF90DF90CF90BF90AF909F908F9019944B
:101FC000EF92FF920F931F93DC01ED91FC9100A023
:101FD000F1A1E02D19951F910F91FF90EF900895B9
:101FE0000F931F93DC01ED91FC91068CF78DE02D92
:101FF00019951F910F9108950F931F93DC01ED9197
:10200000FC91048CF58DE02D19951F910F91089589
:10201000DC01ED91FC910084F185E02D19943F9253
:102020004F925F926F927F928F929F92AF92BF92E8
:10203000CF92DF92EF92FF920F931F93CF93DF9394
:102040005C017B014A016901390187E0680E711C5E
:1020500093E0759467949A95E1F72B01400E511E19
:1020600010E000E0312CD0E0C0E0CE01877099276D
:10207000330C892B59F4FE0183E0F595E7958A9599
:10208000E1F7E00FF11FE80DF91D349037FE0AC0AB
:1020900021E030E0A701B5016C0F7D1F8EEA94E0CE
:1020A0000E9408102196CC16DD06F9F68FEFE81A8B
:1020B000F80A060D171DE414F504A9F6DF91CF9177
:1020C0001F910F91FF90EF90DF90CF90BF90AF9056
:1020D0009F908F907F906F905F904F903F9008956A
:1020E0002F923F924F925F926F927F928F929F9228
:1020F000AF92BF92CF92DF92EF92FF920F931F9316
:10210000CF93DF9300D000D0CDB7DEB73C016A019A
:102110003E832D83FC82EB825801A41AB50AB7FED8
:1021200003C0B194A194B1088D809E80861A970A4D
:1021300097FE03C09194819491088A149B045CF0EB
:10214000902F812F0D811E819D838E839C2D8D2D3F
:102150006B01692F782F0C151D055CF09D818E8118
:102160007E836D83692F782F902F812F8601C92E52
:10217000D82E1601201A310A2B012D813E81421AD8
:10218000530A57FE03C0519441945108710137FE20
:1021900003C03FEFE31AF30AF594E7948D819E8123
:1021A000861797075CF5A1E0B0E0BA83A983C01653
:1021B000D1064CF1D301ED91FC910484F585E02D1D
:1021C0002B813C81A8016D817E818A149B041CF0C7
:1021D0004D815E81B801C3011995E418F508F7FE39
:1021E0000AC02D813E8189819A81280F391F3E8343
:1021F0002D83E20CF31C0F5F1F4FD9CF2FEF3FEF62
:102200003A832983D4CF26960FB6F894DEBF0FBE4B
:10221000CDBFDF91CF911F910F91FF90EF90DF9095
:10222000CF90BF90AF909F908F907F906F905F9076
:102230004F903F902F90089508952091F202260F1D
:102240003327331F21323105ECF420911603FC01B2
:1022500090E080E0243069F082E00895A091F202DD
:102260002191AC014E525D4FA40FB52FB11D2C939F
:102270000196861798F38091F202680F6093F2023C
:1022800080E0089581E008951092160381E0809324
:1022900018031092170361E084E10E94AB0661E02D
:1022A00085E10E94AB06E9EBF0E080818E7F8083C0
:1022B00080818D7F808388E48093B80085E480935B
:1022C000BC000895CF93DF9391E09093D1028823CF
:1022D000B9F0C091B800D091BA008091BC008A7B5F
:1022E0008093BC0060E084E10E94AB0660E085E181
:1022F0000E94AB060E944411D093BA00C093B8006C
:10230000DF91CF910895E091420380914103E81756
:1023100030F4F0E0E455FD4F808190E008958FEFB8
:102320009FEF089590914203809141032FEF3FEF7B
:10233000981748F4E92FF0E0E455FD4F208130E094
:102340009F5F90934203C90108958091410390914A
:102350004203891B990B0895CF92DF92EF92FF926F
:102360000F931F93CF93DF937C01CB018A012091C0
:102370000304222389F0EB016B01C40ED51ECC159A
:10238000DD0569F06991D701ED91FC910190F08133
:10239000E02DC7011995F3CF642F0E941D11C801CC
:1023A000DF91CF911F910F91FF90EF90DF90CF9031
:1023B0000895CF93DF931F92CDB7DEB76983209145
:1023C00003042223F9F020910004203258F021E088
:1023D00030E0FC013383228390E080E00F90DF91B6
:1023E000CF91089580910104E82FF0E0E457FD4F6C
:1023F000998190838F5F809301048093000481E032
:1024000090E0ECCF61E0CE0101960E941D11F7CF64
:10241000CF92DF92EF92FF920F931F93CF93DF93B0
:10242000D091000481E0D13208F09CC0C091020438
:102430000E9437076B017C018091160381116CC0EB
:1024400082E08093160381E0809318038FEF8093DE
:10245000150310923A03D0933903ACE8B2E0E9E1F6
:10246000F3E080E0D8138DC010923B0380913B03D2
:10247000CC0FC82BC0933B0380911703813009F028
:1024800084C0109217030E9437076B017C01809172
:102490003B038093BB008091CD029091CE02A0912E
:1024A000CF02B091D002892B8A2B8B2BA1F00E94F6
:1024B00037070091CD021091CE022091CF023091CA
:1024C000D0026C197D098E099F0906171707280786
:1024D000390708F442C08091BC0083FDD8CF85EC59
:1024E0008093BC000E9437076B017C01809116032A
:1024F000823009F44CC0809115038F3F09F469C004
:1025000080911503803209F466C0809115038033F1
:1025100009F463C084E026C08091CD029091CE0280
:10252000A091CF02B091D002892B8A2B8B2B09F47A
:1025300083CF0E9437070091CD021091CE022091E7
:10254000CF023091D0026C197D098E099F090617C0
:1025500017072807390708F06FCF8091CC020E9437
:10256000621185E01092010410920004109203049D
:10257000DF91CF911F910F91FF90EF90DF90CF905F
:1025800008959D9191938F5F6DCF85EEA9CF809136
:10259000CD029091CE02A091CF02B091D002892BB2
:1025A0008A2B8B2B09F4A2CF0E9437070091CD0212
:1025B0001091CE022091CF023091D0026C197D098A
:1025C0008E099F09061717072807390708F08ECFCD
:1025D000C4CF80E0C7CF82E0C5CF83E0C3CFEF9206
:1025E000FF920F931F93CF93DF937C01C62F8091AF
:1025F000CB049091CC04009709F459C02091CF04EA
:1026000031E03093030420930204109201041092ED
:102610000004DC01ED91FC910190F081E02D60E07F
:1026200019958701EE24E394F12CD1E0C1508091FB
:10263000CB049091CC04CF3F91F1B0E2EB16F104C2
:10264000D8F00E9408128091CB049091CC04209184
:10265000CF04D0930304209302041092010410923B
:102660000004DC01ED91FC910190F081E02D60E02F
:102670001995EE24E394F12C8091CB049091CC0435
:10268000F8016491DC01ED91FC910190F081E02D65
:102690001995BFEFEB1AFB0A0F5F1F4FC7CFDF91F2
:1026A000CF911F910F91FF90EF900C940812E09141
:1026B000DB04F091DC0490818091E1048095892312
:1026C00080838701C15008F438C0F80184912091BB
:1026D000C9043091CA04232B29F00E941E0B0F5FFE
:1026E0001F4FF0CF28E030E040E8E091D704F091B0
:1026F000D8049091DF04582F5423D9F05081952BA2
:102700009083E091D904F091DA0490815091E00433
:10271000952B9083E091D904F091DA045081909147
:10272000E004909595239083469521503109E9F670
:10273000D6CF508190959523E3CFDF91CF911F9114
:102740000F91FF90EF9008951F93CF93DF93EC01CB
:102750008D8D9E8D009721F1162F29A131E03093A8
:102760000304209302041092010410920004DC017F
:10277000ED91FC910190F081E02D60E019958D8D37
:102780009E8DDC01ED91FC910190F081E02D612F97
:1027900019958D8D9E8DDF91CF911F910C9408120C
:1027A000ADA5BEA59C918BA9809589238C938B8D1B
:1027B0009C8D892B31F0862FDF91CF911F910C9446
:1027C0001E0B28E030E080E8A9A5BAA599A9462FFC
:1027D0004823C1F04C91942B9C93ABA5BCA59C9134
:1027E0004AA9942B9C93ABA5BCA54C919AA9909512
:1027F00094239C9386952150310931F7DF91CF9135
:102800001F9108954C9190959423E6CF1F93CF93F9
:10281000DF93EC01162F8D8D9E8D892BB1F12DA9A3
:102820003EA94FA958AD60E074E284EF90E00E94A9
:10283000C1202051310941095109569547953795D5
:1028400027952093B80066EA111167EACE010E942D
:10285000A4138D8D9E8D892B41F129AD3AAD4BADE1
:102860005CAD60E074E284EF90E00E94C1202051F2
:102870003109410951095695479537952795209378
:10288000B800DF91CF911F9108958B8D9C8D892B7E
:1028900021F08EAD9FAD0E94250BEFA5F8A9908188
:1028A0008CA9809589238083CECFEFA5F8A980815C
:1028B0009CA9892B8083E5CF90E080E008950F9359
:1028C0001F93CF93DF9320918B022F5F322F3770AE
:1028D00030938B0220FF2BC020E831FD2064347040
:1028E00009F02062205FFC01EC01239600E011E07A
:1028F0006485662329F070E0C8010E94AD206F5FF7
:102900006187322F369F030E30E0311D11243111C3
:1029100010C01682662311F0615061873196EC1762
:10292000FD0731F7DF91CF911F910F91089520E0BE
:10293000D4CF31503683EECF4F925F927F928F92F9
:102940009F92AF92BF92CF92DF92EF92FF920F933E
:102950001F93CF93DF932C01EB010E943707F20105
:1029600027853089621B730B6A307105B0F3F894C8
:102970008A819B81181619060CF0EAC1E881F98159
:10298000609102016061309102013F7E309302014B
:10299000DA848F812D2D281B822F2F834F85042EC3
:1029A000000C550BAA81BB817D85FC84EE848824B4
:1029B0008394870EF394E3949E819884B984AB84C6
:1029C0001181C12C7C2D0C2D2C2D21811127889457
:1029D0002111280F08F42FEF8195889480FC120FA5
:1029E0001795889481FC120F1795889482FC120F1A
:1029F0001795889483FC120F1795889484FC120F06
:102A00001795889485FC120F1795889486FC120FF1
:102A10001795889487FC120F17958894722F811050
:102A2000712F8D0D172F002C60930201002C17FFC2
:102A30003093020120817727889400C000C0309332
:102A400002012111290F00C060930201002C16FF22
:102A50003093020108F42FEF9195889400C000C0D4
:102A600030930201F0FC720F00C060930201002C51
:102A700015FF3093020177958894F1FC720F00C026
:102A800000C0309302017795889400C060930201E2
:102A9000002C14FF30930201F2FC720F779588949A
:102AA00000C000C030930201F3FC720F00C06093BD
:102AB0000201002C13FF3093020177958894F4FCF7
:102AC000720F00C000C0309302017795889400C057
:102AD00060930201002C12FF30930201F5FC720F8B
:102AE0007795889400C000C030930201F6FC720F05
:102AF00000C060930201002C11FF30930201779512
:102B00008894F7FC720F00C000C0309302017795E3
:102B1000889400C060930201002C10FF30930201E2
:102B2000122FF110172F9B0D00C000C0309302012F
:102B300000C000C060930201002C17FF3093020117
:102B400022817727889400C000C0309302012111B0
:102B5000290D00C060930201002C16FF3093020182
:102B600008F42FEFE40FF51F00C000C030930201FE
:102B7000E0FC720F00C060930201002C15FF30933F
:102B8000020177958894E1FC720F00C000C0309379
:102B900002017795889400C060930201002C14FF15
:102BA00030930201E2FC720F7795889400C000C058
:102BB00030930201E3FC720F00C060930201002C0D
:102BC00013FF3093020177958894E4FC720F00C0E4
:102BD00000C0309302017795889400C06093020191
:102BE000002C12FF30930201E5FC720F7795889458
:102BF00000C000C030930201E6FC720F00C0609379
:102C00000201002C11FF3093020177958894E7FCB4
:102C1000720F00C000C0309302017795889400C005
:102C200060930201002C10FF30930201122FE1107B
:102C3000172F919400C000C0309302019A0C00C07D
:102C4000002C60930201002C17FF309302012181B8
:102C50007727889400C000C0309302012111280F0B
:102C600000C060930201002C16FF3093020108F4AB
:102C70002FEF8195889400C000C03093020180FC42
:102C8000720F00C060930201002C15FF3093020107
:102C90007795889481FC720F00C000C030930201C8
:102CA0007795889400C060930201002C14FF309344
:102CB000020182FC720F7795889400C000C03093A7
:102CC000020183FC720F00C060930201002C13FF0D
:102CD000309302017795889484FC720F00C000C085
:102CE000309302017795889400C060930201002C14
:102CF00012FF3093020185FC720F7795889400C013
:102D000000C03093020186FC720F00C06093020184
:102D1000002C11FF309302017795889487FC720F85
:102D200000C000C0309302017795889400C0609382
:102D30000201002C10FF30930201122F8110172F77
:102D40008D0D00C000C030930201119709F06CCEC8
:102D50004A815B8120EE31E0DA010E94EB20DC0148
:102D6000CB01F4E0B695A79597958795FA95D1F79D
:102D700030E020E0B901EAE94E9F040E611D5E9F3C
:102D8000600D711D1124650F711D860F971FA11D08
:102D9000B11D893E43E09407A105B10508F434C094
:102DA000885E9340A109B10942E0B695A795979531
:102DB00087954A95D1F747E0849F080E211D949F7F
:102DC000200D311D1124290F311D60918A0270E000
:102DD000860F971F820F931F4091F8035091F903BC
:102DE0006091FA037091FB03292F3327420F531F81
:102DF000611D711D4093F8035093F9036093FA032A
:102E00007093FB0380938A0278940E943707F20143
:102E1000708B6787DF91CF911F910F91FF90EF909B
:102E2000DF90CF90BF90AF909F908F907F905F90FA
:102E30004F90089581E090E00895E1E0F1E0808115
:102E40008061808308956F927F928F92CF92DF92FC
:102E5000EF92FF920F931F93CF93DF93CDB7DEB71F
:102E600062970FB6F894DEBF0FBECDBF6C017A013A
:102E70003801822EDC011C962C91CA0157FF04C038
:102E800088279927841B950B7A8369839C838B837E
:102E90009E838D836D867E868F86213049F5CE0197
:102EA00001960E945F1483E0888B1A8A198AF7FEC4
:102EB00002C08DEF888BD601ED91FC910684F785D9
:102EC000E02DBE016F5F7F4FC601199562960FB668
:102ED000F894DEBF0FBECDBFDF91CF911F910F9150
:102EE000FF90EF90DF90CF908F907F906F9008953C
:102EF0001C861B861A86198618861F82D4CFEF92ED
:102F0000FF920F931F93CF93DF93CDB7DEB76297F6
:102F10000FB6F894DEBF0FBECDBF7C01DC011C965E
:102F20008C917A8369835C834B835E834D830D87A9
:102F30001E872F878130F9F4CE0101960E945F141D
:102F4000188A1A8A198AD701ED91FC910684F785AF
:102F5000E02DBE016F5F7F4FC701199562960FB6D6
:102F6000F894DEBF0FBECDBFDF91CF911F910F91BF
:102F7000FF90EF9008951C861B861A861986188686
:102F80001F82DECF90E080E00895FC018585968564
:102F900008950F931F93CF93DF9300D0CDB7DEB783
:102FA000AB0119821A821B82DC01ED91FC91019028
:102FB000F081E02D00E010E020E0BE016F5F7F4F68
:102FC00019950F900F900F90DF91CF911F910F9156
:102FD00008952091B4043091B504C901079697FD76
:102FE000079623E0959587952A95E1F72091B204FD
:102FF0003091B304829FA001839F500D929F500D8A
:10300000112470E060E08091CD049091CE040C9486
:103010004A220E944522FB0101900020E9F73197E6
:10302000AF01461B570BDC01ED91FC910280F3814F
:10303000E02D199485ED8093BC008091CD02909194
:10304000CE02A091CF02B091D0020796A11DB11D72
:1030500023E0B695A795979587952A95D1F7209166
:10306000BC0024FD03C01092160308954091CD02C8
:103070005091CE026091CF027091D002452B462B29
:10308000472B69F30097A105B10541F02AE22A9583
:10309000F1F700C00197A109B109E1CF8091CC02FD
:1030A0000C9462111F920F920FB60F9211242F935E
:1030B0003F938F939F93AF93BF938091F803909129
:1030C000F903A091FA03B091FB033091F70323E0D9
:1030D000230F2D3758F50196A11DB11D2093F7033D
:1030E0008093F8039093F903A093FA03B093FB0342
:1030F0008091FC039091FD03A091FE03B091FF032A
:103100000196A11DB11D8093FC039093FD03A09334
:10311000FE03B093FF03BF91AF919F918F913F91B9
:103120002F910F900FBE0F901F90189526E8230F38
:103130000296A11DB11DD2CF1F920F920FB60F9212
:1031400011240BB60F922F933F934F935F936F937E
:103150007F938F939F93AF93BF93EF93FF9384E0FD
:1031600094E00E940708FF91EF91BF91AF919F916A
:103170008F917F916F915F914F913F912F910F9020
:103180000BBE0F900FBE0F901F9018951F920F92BD
:103190000FB60F9211240BB60F922F938F939F931C
:1031A000EF93FF93E0911404F09115048081E09176
:1031B0001A04F0911B0482FD1DC0908180911D04B2
:1031C0008F5F8F7320911E04821741F0E0911D04E0
:1031D000F0E0EC5FFB4F958F80931D04FF91EF9122
:1031E0009F918F912F910F900BBE0F900FBE0F905C
:1031F0001F9018958081F2CF1F920F920FB60F92F9
:1032000011240BB60F922F933F934F935F936F93BD
:103210007F938F939F93AF93BF93EF93FF9380918F
:10322000B900887F803609F44DC008F040C088326C
:1032300009F4A9C028F5803109F49DC0C8F4882399
:1032400009F4FBC0883009F496C0FF91EF91BF915B
:10325000AF919F918F917F916F915F914F913F912E
:103260002F910F900BBE0F900FBE0F901F901895CF
:10327000883109F488C0803241F78093150314C067
:10328000803409F49DC040F48033B9F38833E9F603
:103290008093150385ECB0C0803509F485C088356E
:1032A00009F496C0883489F60E941A18CECF88395E
:1032B00009F48CC038F5883729F050F4883611F0BD
:1032C000803719F683E0809316031092140357C0D9
:1032D000883809F47BC0803919F0803809F0B5CFFF
:1032E00080911403803208F071C0E091140381E0F2
:1032F0008E0F809314038091BB00F0E0EC50FD4FE3
:1033000080833DC0803B39F0E0F4803A09F479C015
:10331000883A09F09ACF84E0809316031092F30262
:103320001092F202E0913F03F091400319958091D1
:10333000F20281110FC081E08093F2021092D2025A
:1033400009C0803C09F4A6CF883C09F4A3CF883B90
:1033500009F07BCFE091F30281E08E0F8093F302BE
:10336000F0E0EE52FD4F80818093BB009091F3021C
:103370008091F20229C080913B038093BB0085ECD1
:103380008093BC0062CF90913A03809139039817E3
:1033900058F5E0913A0381E08E0F80933A03F0E014
:1033A000E75EFC4F8081E9CFE0913A0381E08E0F28
:1033B00080933A038091BB00F0E0E75EFC4F80838E
:1033C00090913A03809139039817C8F285E8D8CFD5
:1033D000E0913A0381E08E0F80933A038091BB0025
:1033E000F0E0E75EFC4F80838091180381115CCF91
:1033F00081E08093170384EA8093BC001092160347
:1034000024CF85EC8093BC001092160380911403A6
:10341000803230F4E0911403F0E0EC50FD4F108264
:103420006091140370E0E0913D03F0913E0384EF5E
:1034300092E019951092140308CF1092150334CF1F
:10344000E4E0F4E01382128288EE93E0A0E0B0E0C2
:1034500084839583A683B78380E392E091838083FE
:1034600085EC90E09587848784EC90E09787868749
:1034700080EC90E0918B808B81EC90E0938B828B41
:1034800082EC90E0958B848B86EC90E0978B868B1A
:10349000118E128E138E148EE1EAF4E08FEF80838A
:1034A00012821182148613868FEF9FEFDC018783CF
:1034B0009087A187B287EEEAF4E01382128220E8B7
:1034C00030E03583248380E490E0978386833187DE
:1034D000208793878287168A158614861786168614
:1034E00081E0858B848B2FEF3FEF338B228B318BE9
:1034F000208B878B108E128E118E82E492E0918346
:103500008083148E138E168E158E10A2178E8BE06C
:1035100084A38CE085A389E086A38AE087A388E062
:1035200080A780E586AF17AE0895CF93DF9300D0D4
:10353000CDB7DEB7789484B5826084BD84B58160F0
:1035400084BD85B5826085BD85B5816085BD80916E
:103550006E00816080936E001092810080918100E6
:1035600082608093810080918100816080938100DE
:10357000809180008160809380008091B1008460A0
:103580008093B1008091B00081608093B000809101
:10359000910082608093910080919100816080937E
:1035A0009100809190008160809390008091A100B3
:1035B00082608093A1008091A10081608093A1002E
:1035C0008091A00081608093A000809121018260A1
:1035D000809321018091210181608093210180915C
:1035E000200181608093200180917A008460809323
:1035F0007A0080917A00826080937A0080917A00CC
:10360000816080937A0080917A00806880937A004C
:103610001092C1008091CD049091CE04892B11F1BC
:103620000E94E9172091B4043091B5048091B2044E
:103630009091B304213231050CF04BC0B9016052B6
:10364000710977FF02C06F5F7F4F7595679583574C
:10365000910997FD019600E210E023E730E046EE85
:1036600056E04AC02091B4043091B504C9010796D0
:1036700097FD0796B3E095958795BA95E1F7209168
:10368000B2043091B304AC01429FC001439F900D3E
:10369000529F900D11240E9420219093CE0480937C
:1036A000CD04892B09F0BCCF0BE81BE0F801649135
:1036B000662341F084E094E00E9429080F5F1F4FC9
:1036C000892BA1F76AE672E084E094E00E940B186F
:1036D000FFCFB9016054710977FF02C06F5F7F4F60
:1036E000759567958255910997FD019600E410E064
:1036F00022E530E046EC58E0959587950E940F1042
:1037000082E08093D0048091CB049091CC04892BEB
:1037100009F4D5C18091B4049091B504809709F063
:10372000CCC18CE38093CF041092420310924103EA
:1037300010920104109200040E94441181E997E064
:103740009093400380933F0382E997E090933E0378
:1037500080933D038091D60487FD1DC00E948B0697
:1037600061E08091D6040E94AB0661E070E080E0E9
:1037700090E00E945C0760E08091D6040E94AB0656
:103780006AE070E080E090E00E945C0761E0809178
:10379000D6040E94AB068091CB049091CC04892B77
:1037A00009F444C22091E3043091E4044091E5041B
:1037B0005091E60460E074E284EF90E00E94C12042
:1037C000205131094109510956954795379527955B
:1037D0002093B80064E082EE96E00E94EF126091C0
:1037E000B40461508EEA94E00E94A41364E08EED6C
:1037F00096E00E94EF128091D00460E1813009F0E0
:1038000064E18EEA94E00E94A41364E08AED96E0FD
:103810000E94EF128FE88093EB048091B2049091A4
:10382000B3048038910509F01AC28091B4049091D4
:10383000B5048034910509F022C28091D004813012
:1038400009F00BC28FE98093EB0412E16AED8EEA76
:1038500094E00E94A413612F8EEA94E00E94A413C6
:1038600061E88EEA94E00E94A4136091EB048EEA72
:1038700094E00E94A41369ED8EEA94E00E94A413E0
:103880008091D00462E2813009F061EF8EEA94E029
:103890000E94A41366E084ED96E00E94EF128091EE
:1038A000CB049091CC04892B09F4EDC12091E7045D
:1038B0003091E8044091E9045091EA0460E074E238
:1038C00084EF90E00E94C120205131094109510943
:1038D00056954795379527952093B8000E94E9178C
:1038E00082E08093C2048093C3048CE090E09093C4
:1038F000BB048093BA0486E190E09093BD0480936A
:10390000BC0401E010E01093C1040093C0041093C4
:10391000BF040093BE046DE672E08EEA94E00E945C
:103920000B186AE672E08EEA94E00E940B1881E0C0
:103930008093C2048093C3048EE090E09093BB0414
:103940008093BA048CE290E09093BD048093BC0411
:103950001093C1040093C0041093BF040093BE04ED
:1039600067E772E08EEA94E00E940B186AE672E064
:103970008EEA94E00E940B188091CB049091CC04C5
:10398000892B09F48AC12091E3043091E404409129
:10399000E5045091E60460E074E284EF90E00E9458
:1039A000C120205131094109510956954795379554
:1039B00027952093B80065E086E89BE00E94EF120F
:1039C0006091B20461508EEA94E00E94A4132091A9
:1039D000B4043091B504C901079697FD079633E00A
:1039E000959587953A95E1F72091B2043091B3040B
:1039F000829F8001839F100D929F100D1124E090F3
:103A0000CD04F090CE048091CB049091CC040E0DA7
:103A10001F1D009709F4A4C22091CF0431E0309318
:103A20000304209302041092010410920004DC01AC
:103A3000ED91FC910190F081E02D60E41995CC248A
:103A4000C394D12CBB24B3948091CB049091CC042B
:103A50000E151F0509F438C1B0E2CB16D104D8F019
:103A60000E9408128091CB049091CC042091CF0445
:103A7000B0920304209302041092010410920004F7
:103A8000DC01ED91FC910190F081E02D60E419954D
:103A9000CC24C394D12C8091CB049091CC04F70119
:103AA00061917F01DC01ED91FC910190F081E02DAD
:103AB0001995BFEFCB1ADB0AC7CF8DE333CE8091C8
:103AC000D4040E948B068091D5040E948B068091BD
:103AD000D404082E000C990BFC01E15EF34FE49135
:103AE000F0E0EE0FFF1FE551F44F25913491309334
:103AF000DC042093DB04FC01EB59F34FE491E093E9
:103B0000E1048091D504082E000C990BFC01E15EC4
:103B1000F34FE491F0E0EE0FFF1FE551F44FA59154
:103B2000B491B093DE04A093DD04FC01EB59F34F94
:103B3000E491E093E2048C91E82BEC938091C9042A
:103B40009091CA04892B89F11FB7F89480913C03A6
:103B5000811124C0E4E5FCE08491EAE9FCE0949161
:103B6000E82FF0E0EE0FFF1FEB5FF34FA591B4914C
:103B7000EC91E92321F461E085E30E94AB0685E343
:103B80000E948B068CB580618CBD8CB580648CBD29
:103B900084E30E948B0683E30E948B0680913C03A2
:103BA0008F5F80933C031FBFD5CD8091D2040E94CC
:103BB0008B068091D3040E948B068091D204082E3C
:103BC000000C990BFC01E15EF34FE491F0E0EE0F85
:103BD000FF1FE551F44F259134913093D804209381
:103BE000D704FC01EB59F34FE491E093DF0480919B
:103BF000D304082E000C990BFC01E15EF34FE49115
:103C0000F0E0EE0FFF1FE551F44FA591B491B09392
:103C1000DA04A093D904FC01EB59F34FE491E0934B
:103C2000E0048C91E095E823EC9394CD8091C90455
:103C30009091CA04892B31F08091EC049091ED04AD
:103C40000E94250BE091DD04F091DE0490818091CB
:103C5000E204809589238083BDCD8FECF4CD80363E
:103C6000910569F48091B4049091B504409739F4BA
:103C70008091D004813029F480E18093EB0412E03C
:103C8000E5CD8FEAFACFE091DD04F091DE0480818A
:103C90009091E204892B808321CE8091C904909178
:103CA000CA04892B31F08091EC049091ED040E94BC
:103CB000250BE091DD04F091DE0490818091E20417
:103CC00080958923808377CE0E9408128091CB044F
:103CD0009091CC04892B09F487C12091E70430919D
:103CE000E8044091E9045091EA0460E074E284EF52
:103CF00090E00E94C1202051310941095109569597
:103D00004795379527952093B800809156038111E8
:103D100045C010924803109247038FEF80934B03E6
:103D200080934C0380934D0380934E0380934F0305
:103D30008093500381E080935103109253031092BB
:103D4000520310924A0310924903809164039091A8
:103D50006503892B31F485E493E0909365038093A8
:103D60006403E0914303F0914403309721F085E42C
:103D700093E09583848385E493E090934403809358
:103D8000430310925503109254038CE192E09093F8
:103D900046038093450381E080935603809101019F
:103DA0008061809301018AE693E0909348038093B9
:103DB00047038FE290E090935303809352038091E6
:103DC000A4049091A504A091A604B091A704843CFA
:103DD000F9E09F07A105B10520F484EC99E0A0E08B
:103DE000B0E08093A4049093A504A093A604B0939C
:103DF000A704EAE6F3E087EF93E047EA3BE420ED2F
:103E000040833183228333968E179F07C9F7D09062
:103E1000A1048091A4049091A504A091A604B0915E
:103E2000A704892B8A2B8B2BD9F00E94370700918E
:103E30006603109167032091680330916903601B4A
:103E4000710B820B930B0091A4041091A504209197
:103E5000A6043091A7046017710782079307C8F280
:103E60000E9437076093660370936703809368032B
:103E700090936903E091AC04F091AD04309759F050
:103E80004091A8045091A9046091AA047091AB04D8
:103E90008D2D1995D82EE0906403F09065034D2C7C
:103EA000512C712C612CE114F10409F4A7C0D70145
:103EB0001C96CC901C978091A2049091A304843608
:103EC000910510F41C961C92D701ED91FC91A280F3
:103ED000B38019821A821B82DD2079F1F7013696B0
:103EE00010E000E02191222319F19280992001F144
:103EF00030E050E040E02F5F3F4F4F4F5F4FC30136
:103F0000B2010E949D209B01AC01892D90E0B0E0A0
:103F1000A0E0BC01CD016F5F7F4F8F4F9F4F0E948C
:103F20009D20A1E0B0E0AC0FBD1FA00FB11F8C938E
:103F30000F5F1F4F03301105A9F609811A812B81EC
:103F4000F7014585568562817381C701F501199591
:103F5000D7011C96CC921C971496ED90FC90A3CFA1
:103F6000E091DB04F091DC0480819091E104892BE5
:103F700080830E151F0509F4A9CEF70181917F01F9
:103F80002091C9043091CA04232B19F00E941E0B02
:103F9000F0CF28E030E040E8E091D704F091D80479
:103FA0009091DF04582F5423D9F05081952B9083A2
:103FB000E091D904F091DA0490815091E004952BBE
:103FC0009083E091D904F091DA0450819091E0045B
:103FD000909595239083469521503109E9F6C9CFF4
:103FE000508190959523E3CFE091DD04F091DE04BC
:103FF00080819091E204892B808387CE8091620337
:10400000909163039C012F5F3F4F30936303209394
:10401000620349970CF44AC08FB7F8942091F803D3
:104020003091F9034091FA035091FB038FBF8091C7
:104030005E0390915F03A0916003B0916103281B20
:10404000390B4A0B5B0B21F421E030E040E050E0FB
:10405000E0916203F091630388EE93E0E89FB00182
:10406000E99F700DF89F700D1124072E000C880B2E
:10407000990B0E94C1203093A3042093A2041092B4
:104080006303109262032FB7F8948091F803909124
:10409000F903A091FA03B091FB032FBF80935E0355
:1040A00090935F03A0936003B0936103E0911404C5
:1040B000F091150482E08083E0911004F0911104E6
:1040C0001082E0911204F09113048FEC808310921F
:1040D0001C04E0911804F091190486E08083E091BB
:1040E0001604F0911704808180618083E0911604AA
:1040F000F0911704808188608083E0911604F0912C
:104100001704808180688083E0911604F091170481
:1041100080818F7D80830E949608FDCF82E492E0AB
:104120009093AF048093AE048091CD049091CE041F
:10413000009711F00C94BC210895DB018F939F939D
:104140000E94F220BF91AF91A29F800D911DA39F6D
:10415000900DB29F900D1124089597FB072E16F431
:10416000009407D077FD09D00E94FD2007FC05D000
:104170003EF4909581959F4F0895709561957F4F7E
:104180000895A1E21A2EAA1BBB1BFD010DC0AA1F98
:10419000BB1FEE1FFF1FA217B307E407F50720F0B0
:1041A000A21BB30BE40BF50B661F771F881F991F2B
:1041B0001A9469F760957095809590959B01AC0174
:1041C000BD01CF010895EE0FFF1F881F8BBF079021
:1041D000F691E02D19940E941121B7FF0895821BDA
:1041E000930B08950E941121A59F900DB49F900DEF
:1041F000A49F800D911D11240895AA1BBB1B51E1A2
:1042000007C0AA1FBB1FA617B70710F0A61BB70B46
:10421000881F991F5A95A9F780959095BC01CD01EB
:104220000895A29FB001B39FC001A39F700D811D8F
:104230001124911DB29F700D811D1124911D0895AF
:104240000F931F93CF93DF938230910510F482E098
:1042500090E0E091F004F091F10430E020E0B0E073
:10426000A0E0309799F42115310509F44AC0281BC4
:10427000390B24303105D8F58A819B816115710590
:1042800089F1FB0193838283FE0111C0408151813A
:104290000281138148175907E0F04817590799F42C
:1042A000109761F012960C93129713961C93329606
:1042B000CF01DF91CF911F910F9108950093F004EA
:1042C0001093F104F4CF2115310551F04217530733
:1042D00038F0A901DB019A01BD01DF01F801C1CF6E
:1042E000EF01F9CF9093F1048093F004CDCFFE015C
:1042F000E20FF31F81939193225031093983288370
:10430000D7CF2091EE043091EF04232B41F420917C
:104310000202309103023093EF042093EE042091C7
:104320000002309101022115310541F42DB73EB74D
:104330004091040250910502241B350BE091EE04DC
:10434000F091EF04E217F307A0F42E1B3F0B2817A0
:10435000390778F0AC014E5F5F4F2417350748F0FE
:104360004E0F5F1F5093EF044093EE04819391939F
:104370009FCFF0E0E0E09CCFCF93DF930097E9F090
:10438000FC01329713821282A091F004B091F104E3
:10439000ED0130E020E01097A1F420813181820FFF
:1043A000931F2091EE043091EF042817390709F08C
:1043B00061C0F093EF04E093EE04DF91CF91089594
:1043C000EA01CE17DF07E8F54A815B819E014115BE
:1043D0005105B1F7E901FB83EA8349915991C40F73
:1043E000D51FEC17FD0761F4808191810296840F3F
:1043F000951FE90199838883828193819B838A83B6
:10440000F0E0E0E012968D919C9113970097B9F53A
:104410002D913C911197CD010296820F931F20910F
:10442000EE043091EF042817390739F6309751F52B
:104430001092F1041092F004B093EF04A093EE04F4
:10444000BCCFD383C28340815181840F951FC8178D
:10445000D90761F44E5F5F4F88819981480F591FDA
:10446000518340838A819B81938382832115310507
:1044700009F0B0CFF093F104E093F0049ECFFD017A
:10448000DC01C0CF13821282D7CF81E090E0F89494
:104490000C945122DC0101C06D9341505040E0F773
:1044A000089516E0C7E5D6E000E006C0802FFE01C3
:1044B0000E94E3202196011DC835D10780E008073E
:1044C000A9F7F894FFCF0000F2048000000000007C
:1044D000091809180918C917C5171A17C2170000B3
:1044E00000007F1723171D17C917C5171A178E0746
:1044F0009C140000000029089307C0077608F10704
:10450000CF07E30700000000630D93075C141C1144
:104510006E0AAA060810E00FFC0FF00F7010AA0632
:10452000290B0614DE09270A290F0C0F940E350EED
:104530000D0A004D454348414E454B4F004F5554E1
:10454000204F462053455256494345203A28000003
:020000040003F7
:10E000000D9489F10D94B2F10D94B2F10D94B2F129
:10E010000D94B2F10D94B2F10D94B2F10D94B2F1F0
:10E020000D94B2F10D94B2F10D94B2F10D94B2F1E0
:10E030000D94B2F10D94B2F10D94B2F10D94B2F1D0
:10E040000D94B2F10D94B2F10D94B2F10D94B2F1C0
:10E050000D94B2F10D94B2F10D94B2F10D94B2F1B0
:10E060000D94B2F10D94B2F10D94B2F10D94B2F1A0
:10E070000D94B2F10D94B2F10D94B2F10D94B2F190
:10E080000D94B2F10D94B2F10D94B2F10D94B2F180
:10E090000D94B2F10D94B2F10D94B2F10D94B2F170
:10E0A0000D94B2F10D94B2F10D94B2F10D94B2F160
:10E0B0000D94B2F10D94B2F10D94B2F10D94B2F150
:10E0C0000D94B2F10D94B2F10D94B2F10D94B2F140
:10E0D0000D94B2F10D94B2F10D94B2F10D94B2F130
:10E0E0000D94B2F141546D656761323536300041AF
:10E0F000726475696E6F206578706C6F72657220DE
:10E1000073746B3530305632206279204D4C530099
:10E11000426F6F746C6F616465723E004875683F52
:10E1200000436F6D70696C6564206F6E203D200048
:10E130004350552054797065202020203D20005FF9
:10E140005F4156525F415243485F5F3D2000415658
:10E1500052204C696243205665723D20004743437C
:10E160002056657273696F6E203D20004350552024
:10E1700049442020202020203D20004C6F7720663D
:10E18000757365202020203D20004869676820665F
:10E190007573652020203D200045787420667573D6
:10E1A00065202020203D20004C6F636B2066757336
:10E1B000652020203D20004D617220203720323024
:10E1C000313300312E362E3800342E332E350056A2
:10E1D00023202020414444522020206F7020636F70
:10E1E00064652020202020696E73747275637469E1
:10E1F0006F6E2061646472202020496E74657272B3
:10E20000757074006E6F20766563746F7200726A49
:10E210006D702020006A6D70200057686174207056
:10E220006F72743A00506F7274206E6F7420737541
:10E2300070706F72746564004D7573742062652030
:10E2400061206C6574746572002000577269747483
:10E25000696E672045450052656164696E672045B7
:10E26000450045452065727220636E743D00504F35
:10E27000525400303D5A65726F2061646472003FF1
:10E280003D43505520737461747300403D454550C3
:10E29000524F4D207465737400423D426C696E6B41
:10E2A000204C454400453D44756D70204545505215
:10E2B0004F4D00463D44756D7020464C415348001B
:10E2C000483D48656C70004C3D4C69737420492F83
:10E2D0004F20506F72747300513D51756974005234
:10E2E0003D44756D702052414D00563D73686F7707
:10E2F00020696E7465727275707420566563746FF0
:10E30000727300593D506F727420626C696E6B00BD
:10E310002A0011241FBECFEFD1E2DEBFCDBF01E046
:10E320000CBF12E0A0E0B2E0EEE1FDEF03E00BBFB6
:10E3300002C007900D92A030B107D9F712E0A0E01B
:10E34000B2E001C01D92AE30B107E1F70F9460F367
:10E350000D948DFE01E20EBF0FEF0DBF11241FBE05
:10E360000D9460F30D9400F020E030E040ED57E0B4
:10E3700005C0FA013197F1F72F5F3F4F2817390792
:10E38000C0F308959C01260F311DC901A0E0B0E043
:10E390002F5F3F4FABBFFC018791882361F08093D3
:10E3A000C6008091C00086FFFCCF8091C0008064D1
:10E3B0008093C000EACF08958DE08093C6008091DD
:10E3C000C00086FFFCCF8091C00080648093C000B5
:10E3D0008AE08093C6008091C00086FFFCCF8091C8
:10E3E000C00080648093C00008950F94C2F10F9420
:10E3F000DCF10895FC019081992359F09093C600B7
:10E400008091C00086FFFCCF8091C0008064809323
:10E41000C0003196992379F70895282F982F929567
:10E420009F70892F805D8A3308F0895F8093C600D2
:10E430008091C00086FFFCCF8091C00080648093F3
:10E44000C000822F8F70982F905D9A3308F0995FEB
:10E450009093C6008091C00086FFFCCF8091C000E1
:10E4600080648093C00008959C01FB01853691056E
:10E470001CF46330710594F0C90164E670E00F94F8
:10E480002EFE605D7F4F6093C6008091C00086FFC6
:10E49000FCCF8091C00080648093C0002B30310598
:10E4A00014F43297B4F0C90164E670E00F942EFEC4
:10E4B0006AE070E00F942EFE605D7F4F6093C600AF
:10E4C0008091C00086FFFCCF8091C0008064809363
:10E4D000C000C9016AE070E00F942EFEC0968093E0
:10E4E000C6008091C00086FFFCCF8091C000806490
:10E4F0008093C00008951F93182F8EE692EE60E07F
:10E500000F94C2F11093C6008091C00086FFFCCF2B
:10E510008091C00080648093C0000F94DCF11F9153
:10E5200008952F923F924F925F926F927F928F92B7
:10E530009F92AF92BF92CF92DF92EF92FF920F9392
:10E540001F93DF93CF93CDB7DEB762970FB6F894E2
:10E55000DEBF0FBECDBF382E622ECA01DB015C01CB
:10E560006D01772420E2222E2E010894411C511CBB
:10E570008BC081E0A81680E0B80681E0C80680E084
:10E58000D80628F0C601AA27BB270F940DF2BB2797
:10E59000AD2D9C2D8B2D0F940DF28A2D0F940DF225
:10E5A0002092C6008091C00086FFFCCF8091C00001
:10E5B00080648093C0009DE29093C6008091C0006B
:10E5C00086FFFCCF8091C00080648093C0002092C1
:10E5D000C6008091C00086FFFCCF8091C00080649F
:10E5E0008093C00019828601750188249924A1E0D6
:10E5F0003A1651F03A1620F0B2E03B1661F409C029
:10E600000BBFF701779007C0C7010F9477FE782EF4
:10E6100002C0F7017080872D0F940DF22092C60082
:10E620008091C00086FFFCCF8091C0008064809301
:10E63000C000872D8052F401EF70F0708F3520F408
:10E64000E40DF51D708204C0E40DF51D8EE280839B
:10E650000894E11CF11C011D111D0894811C911CE2
:10E6600090E18916910409F0C2CF80E190E0A0E02A
:10E67000B0E0A80EB91ECA1EDB1E198AC2010F9493
:10E68000FAF10F94DCF16A94662009F072CF629679
:10E690000FB6F894DEBF0FBECDBFCF91DF911F91B3
:10E6A0000F91FF90EF90DF90CF90BF90AF909F9031
:10E6B0008F907F906F905F904F903F902F90089534
:10E6C0002F923F924F925F926F927F928F929F9282
:10E6D000AF92BF92CF92DF92EF92FF920F931F9370
:10E6E000DF93CF93CDB7DEB7CD53D1400FB6F894BB
:10E6F000DEBF0FBECDBF01E20EBF0FEF0DBF94B75F
:10E70000F894A89514BE80916000886180936000A1
:10E7100010926000789493FF05C0E0910002F091A0
:10E7200001021995279A2F9A8091C00082608093E8
:10E73000C00080E18093C40088E18093C1000000A4
:10E74000EE24FF24870144E0A42EB12CCC24DD2448
:10E7500024C0C5010197F1F70894E11CF11C011DCB
:10E76000111D21E2E2162EE4F20620E0020720E06D
:10E77000120718F031E0C32ED12CC801B70127ECE5
:10E780003BE140E050E00F9441FE611571058105C9
:10E79000910519F485B1805885B98091C00087FD35
:10E7A00003C0C114D104A9F2A6014F5F5F4FC25E3E
:10E7B000DE4F59834883CE51D140C25EDE4F8881FF
:10E7C0009981CE51D140019711F00D9410FEC05D9A
:10E7D000DE4F19821882C053D14060E0C15DDE4F28
:10E7E0001882CF52D14088249924C35DDE4F19820C
:10E7F0001882CD52D140C05EDE4F188219821A8233
:10E800001B82C052D140CE5CDE4F188219821A8220
:10E810001B82C253D140EE24FF2487010BBFF701B6
:10E8200007911691C45CDE4F19830883CC53D14005
:10E830000D940BFEC25EDE4F28813981CE51D1404E
:10E840002130310509F52091C600C25EDE4F1982E4
:10E850001882CE51D14022C02F5F3F4F4F4F5F4FA4
:10E86000213082E138078AE7480780E0580780F0C6
:10E87000C45CDE4FE881F981CC53D140EF5FFF4F9C
:10E8800019F0EE27FF27099420E030E040E050E047
:10E890008091C00087FFE0CF2091C600C35DDE4FAE
:10E8A00048815981CD52D1404F5F5F4FC35DDE4FEC
:10E8B00059834883CD52D140213209F063C64A3092
:10E8C000510508F05FC60894811C911C53E0851621
:10E8D000910409F059C600E010E018C081E280936D
:10E8E000C6008091C00086FFFCCF8091C00080648C
:10E8F0008093C0002F5F3F4F2931310579F70F9486
:10E90000DCF10F5F1F4F0530110519F020E030E0FA
:10E91000E5CF10920A0210920B0210920C02109294
:10E920000D02109206021092070210920802109235
:10E930000902109202021092030210920402109235
:10E9400005028FEE90EE60E00F94F5F180E191EE1C
:10E9500060E00F94C2F18091C00087FFFCCF9091DE
:10E96000C600903608F09F759032B8F09093C600BC
:10E970008091C00086FFFCCF8091C00080648093AE
:10E98000C000A0E2A093C6008091C00086FFFCCF2B
:10E990008091C00080648093C000983409F4D7C18E
:10E9A0009934B8F4923409F459C1933458F490333B
:10E9B00019F1903308F4E3C59F33A1F1903409F0C5
:10E9C000DEC5BDC0953409F470C1963409F0D7C5D1
:10E9D00098C1923509F42BC2933538F49C3409F46C
:10E9E000F5C1913509F0CBC518C2963509F445C279
:10E9F000993509F0C4C567C483E792EE62E00F94CD
:10EA0000F5F110920602109207021092080210927D
:10EA1000090210920A0210920B0210920C0210923C
:10EA20000D0213C18FE792EE62E00F94F5F18FEEC5
:10EA300090EE60E00F94F5F181E291EE60E00F94CA
:10EA4000C2F187EB91EE60E00F94F5F180E391EE77
:10EA500060E00F94C2F184EE90EE60E00F94F5F167
:10EA60008FE391EE60E00F94C2F186E090E061E008
:10EA700070E00F9434F20F94DCF18DE591EE60E0DC
:10EA80000F94C2F189EC91EE60E00F94F5F18EE401
:10EA900091EE60E00F94C2F183EC91EE60E00F9490
:10EAA000F5F18CE691EE60E00F94C2F18EE10F94E7
:10EAB0000DF288E90F940DF281E00F940DF20F949E
:10EAC000DCF18BE791EE60E00F94C2F119E0E0E039
:10EAD000F0E010935700E4918E2F0F940DF20F94F5
:10EAE000DCF18AE891EE60E00F94C2F1E3E0F0E03F
:10EAF00010935700E4918E2F0F940DF20F94DCF1D8
:10EB000089E991EE60E00F94C2F1E2E0F0E0109349
:10EB10005700E4918E2F0F940DF20F94DCF188EAE8
:10EB200091EE60E00F94C2F1E1E0F0E01093570045
:10EB30001491812F0F940DF20F94DCF107CF8BE825
:10EB400092EE62E00F94F5F18BE492EE60E00F94A8
:10EB5000F5F10F94DCF100E010E019C0C8016F2D51
:10EB60000F947FFEFF2031F489E492EE60E00F9471
:10EB7000C2F10BC0F092C6008091C00086FFFCCFAE
:10EB80008091C00080648093C0000F5F1F4FC80158
:10EB900081519F41A0E0B0E0ABBFFC01F790BAE229
:10EBA000FB1621F0E2E000301E07C1F60F94DCF105
:10EBB0000F94DCF187E592EE60E00F94F5F10F948D
:10EBC000DCF1CC24DD2400E010E01EC0C8010F946D
:10EBD00077FEF82E882331F489E492EE60E00F94FA
:10EBE000C2F10BC08093C6008091C00086FFFCCFAD
:10EBF0008091C00080648093C000FE1419F00894D6
:10EC0000C11CD11C0F5F1F4FC80181519F41A0E063
:10EC1000B0E0ABBFFC01E790FAE2EF1621F022E092
:10EC20000030120799F60F94DCF10F94DCF182E6C4
:10EC300092EE60E00F94C2F1C60161E070E00F94C3
:10EC400034F20F94DCF10F94DCF110920202109276
:10EC50000302109204021092050278CE89E992EE26
:10EC600062E00F94F5F1279A2F9A16C02F9880E052
:10EC700090E0E0EDF7E03197F1F7019684369105E9
:10EC8000C1F72F9A80E090E0E0EDF7E03197F1F7DF
:10EC9000019684369105C1F78091C00087FFE6CFC9
:10ECA0008091C00087FFFCCF64C485EA92EE62E0E9
:10ECB0000F94F5F140910202509103026091040219
:10ECC0007091050281E020E10F9491F2809102029F
:10ECD00090910302A0910402B091050280509F4FD1
:10ECE000AF4FBF4F8093020290930302A0930402A0
:10ECF000B093050280509041A040B04008F426CE69
:10ED0000A4CF83EB92EE62E00F94F5F140910602FE
:10ED100050910702609108027091090280E020E1A1
:10ED20000F9491F28091060290910702A09108023F
:10ED3000B091090280509F4FAF4FBF4F80930602A2
:10ED400090930702A0930802B0930902FFCD80ECD4
:10ED500092EE62E00F94F5F183E792EE60E00F949B
:10ED6000F5F18FE792EE60E00F94F5F18BE892EE0B
:10ED700060E00F94F5F189E992EE60E00F94F5F10F
:10ED800085EA92EE60E00F94F5F183EB92EE60E09D
:10ED90000F94F5F180EC92EE60E00F94F5F187ECC2
:10EDA00092EE60E00F94F5F188ED92EE60E00F9442
:10EDB000F5F18FED92EE60E00F94F5F18AEE92EEB0
:10EDC00060E00F94F5F183E093EEBDCD87EC92EE19
:10EDD00062E00F94F5F181E40F947BF282E40F94EA
:10EDE0007BF283E40F947BF284E40F947BF285E45E
:10EDF0000F947BF286E40F947BF287E40F947BF20E
:10EE000088E40F947BF28AE40F947BF28BE40F94F6
:10EE10007BF28CE40F947BF299CD88ED92EE62E068
:10EE20000F94F5F1772473948824992409C48FED05
:10EE300092EE62E00F94F5F140910A0250910B02BC
:10EE400060910C0270910D0282E020E10F9491F22A
:10EE500080910A0290910B02A0910C02B0910D02D8
:10EE600080509F4FAF4FBF4F80930A0290930B0289
:10EE7000A0930C02B0930D0269CD8AEE92EE62E08F
:10EE80000F94F5F184EE90EE60E00F94F5F18FECC5
:10EE900091EE60E00F94F5F1662477244301CC5D98
:10EEA000DE4F19821882C452D140D401C301B695F5
:10EEB000A79597958795CA5DDE4F88839983AA8326
:10EEC000BB83C652D140CC5DDE4FA881B981C4520C
:10EED000D1401196CC5DDE4FB983A883C452D14096
:10EEE000CD0162E070E00F9434F2B0E2B093C6005E
:10EEF0008091C00086FFFCCF8091C0008064809329
:10EF0000C000EDE2E093C6008091C00086FFFCCF18
:10EF10008091C00080648093C000F0E2F093C6004E
:10EF20008091C00086FFFCCF8091C00080648093F8
:10EF3000C000CA5DDE4FE880F9800A811B81C6529D
:10EF4000D140BB27A12F902F8F2D0F940DF2CA5DBA
:10EF5000DE4F8881C652D1400F940DF2B0E2FB2EF5
:10EF6000F092C6008091C00086FFFCCF8091C00067
:10EF700080648093C0000DE30093C6008091C000C0
:10EF800086FFFCCF8091C00080648093C00010E2B7
:10EF90001093C6008091C00086FFFCCF8091C00016
:10EFA00080648093C0008BBEF3012791C65DDE4F65
:10EFB0002883CA52D140A22EBB24CC24DD2408943D
:10EFC000611C711C811C911C8BBEF3018791282E42
:10EFD0003324442455240894611C711C811C911C09
:10EFE0008BBEF3013791C55DDE4F3883CB52D140E4
:10EFF0000894611C711C811C911C8BBEF30147910C
:10F00000C45DDE4F4883CC52D140ADEFEA2EAFEF66
:10F01000FA2EAFEF0A2FAFEF1A2F6E0C7F1C801E57
:10F02000911E142D032DF22CEE24EA0CFB1C0C1D5A
:10F030001D1D0F940DF220E22093C6008091C000A8
:10F0400086FFFCCF8091C00080648093C000C65DC5
:10F05000DE4F8881CA52D1400F940DF230E23093D6
:10F06000C6008091C00086FFFCCF8091C000806404
:10F070008093C000C45DDE4F8881CC52D1400F9494
:10F080000DF240E24093C6008091C00086FFFCCFA5
:10F090008091C00080648093C000C55DDE4F888190
:10F0A000CB52D1400F940DF250E25093C6008091A4
:10F0B000C00086FFFCCF8091C00080648093C000B8
:10F0C0008FEFE8168FEFF80680E0080780E018075A
:10F0D00031F484E092EE60E00F94C2F1DFC0D80119
:10F0E000C7018070907CA070B0708050904CA040A0
:10F0F000B040D1F52FEF3FE340E050E0E222F322B1
:10F1000004231523CA5DDE4FA880B980CA80DB8046
:10F11000C652D140AE0CBF1CC01ED11EAA0CBB1CD7
:10F12000CC1CDD1C8EE092EE60E00F94C2F1BB2798
:10F13000A12F902F8F2D0F940DF28E2D0F940DF285
:10F1400030E23093C6008091C00086FFFCCF8091F2
:10F15000C00080648093C0004EE34093C60080915D
:10F16000C00086FFFCCF87C08EE09EEFA0E0B0E03D
:10F17000E822F9220A231B239CE0E91694E9F90608
:10F1800090E0090790E0190709F088C0C45DDE4FE0
:10F19000A881CC52D140EA2EFF2400E010E0102FCD
:10F1A0000F2DFE2CEE24C55DDE4FB881CB52D14031
:10F1B000EB0EF11C011D111DD601C501817090706F
:10F1C000A070B070DC0199278827E80EF91E0A1F8D
:10F1D0001B1F20EF30E040E050E0A222B322C42207
:10F1E000D52241E1AA0CBB1CCC1CDD1C4A95D1F7F1
:10F1F000EA0CFB1C0C1D1D1D81E090E0A0E0B0E0BE
:10F20000282239224A225B2235E1220C331C441C7D
:10F21000551C3A95D1F7E20CF31C041D151D57013E
:10F220006801AA0CBB1CCC1CDD1C85E192EE60E0E1
:10F230000F94C2F1C801AA27BB270F940DF2BB2778
:10F24000A12F902F8F2D0F940DF28E2D0F940DF274
:10F2500090E29093C6008091C00086FFFCCF809121
:10F26000C00080648093C000AEE3A093C60080918C
:10F27000C00086FFFCCF8091C00080648093C000F6
:10F28000C601AA27BB270F940DF2BB27AD2D9C2DDD
:10F290008B2D0F940DF28A2D0F940DF20F94DCF14B
:10F2A000CC5DDE4FE881F981C452D140F99709F471
:10F2B0004DCBF4E0EF2EF12C012D112D6E0C7F1CA7
:10F2C000801E911EF2CD83E093EE62E00F94F5F183
:10F2D0008AE192EE60E00F94C2F18091C00087FF56
:10F2E000FCCF1091C6001F751093C6008091C0001E
:10F2F00086FFFCCF8091C00080648093C0000F9493
:10F30000DCF1812F81548A3108F036C1163409F4BA
:10F3100095C0173490F4133409F44EC0143430F40B
:10F320001134F1F0123409F01DC130C0143409F465
:10F3300059C0153409F016C16BC01A3409F4C4C0A1
:10F340001B3438F4173409F48FC0183409F00AC19B
:10F35000A1C01B3409F4D2C01C3409F003C1E8C0B9
:10F360008FEF81B90DC082B1809582B980E090E0C5
:10F37000E0EDF7E03197F1F70196883C9105C1F790
:10F380008091C00087FFEFCF12B8EFC08FEF84B934
:10F390000DC085B1809585B980E090E0E0EDF7E0A3
:10F3A0003197F1F70196883C9105C1F78091C00033
:10F3B00087FFEFCF15B8D9C08FEF87B90DC088B1DF
:10F3C000809588B980E090E0E0EDF7E03197F1F7C3
:10F3D0000196883C9105C1F78091C00087FFEFCF6F
:10F3E00018B8C3C08FEF8AB90DC08BB180958BB9A7
:10F3F00080E090E0E0EDF7E03197F1F70196883C8E
:10F400009105C1F78091C00087FFEFCF1BB8ADC059
:10F410008FEF8DB90DC08EB180958EB980E090E0F0
:10F42000E0EDF7E03197F1F70196883C9105C1F7DF
:10F430008091C00087FFEFCF1EB897C08FEF80BBD1
:10F440000DC081B3809581BB80E090E0E0EDF7E0F6
:10F450003197F1F70196883C9105C1F78091C00082
:10F4600087FFEFCF11BA81C08FEF83BB0DC084B38C
:10F47000809584BB80E090E0E0EDF7E03197F1F714
:10F480000196883C9105C1F78091C00087FFEFCFBE
:10F4900014BA6BC08FEF809301010FC080910201FD
:10F4A00080958093020180E090E0E0EDF7E03197F5
:10F4B000F1F70196883C9105C1F78091C00087FF64
:10F4C000EDCF1092020151C08FEF809304010FC065
:10F4D0008091050180958093050180E090E0E0ED4A
:10F4E000F7E03197F1F70196883C9105C1F78091DB
:10F4F000C00087FFEDCF1092050137C08FEF8093DA
:10F5000007010FC08091080180958093080180E079
:10F5100090E0E0EDF7E03197F1F70196883C910536
:10F52000C1F78091C00087FFEDCF109208011DC088
:10F530008FEF80930A010FC080910B01809580931B
:10F540000B0180E090E0E0EDF7E03197F1F70196F4
:10F55000883C9105C1F78091C00087FFEDCF1092E4
:10F560000B0103C085E292EEEEC98091C00087FFD7
:10F57000FCCF8091C600EAC988E392EEE4C98CE131
